:1000000034C000004EC000004CC000004AC00000D8
:1000100048C0000046C0000044C0000042C00000CC
:1000200040C0000097C400003CC000003AC000007F
:1000300038C0000036C0000034C0000032C00000EC
:1000400030C000002EC000002CC000002AC00000FC
:1000500028C0000026C0000024C0000022C000000C
:1000600020C000001EC000005D0511241FBECFEFA0
:10007000D8E0DEBFCDBF11E0A0E0B1E0E6E5F3E1FE
:1000800002C005900D92A434B107D9F711E0A4E4A1
:10009000B1E001C01D92A83AB107E1F7EED10C948E
:1000A0009F09AECF97FF03C091958195910908955F
:1000B000ECE7F0E080818062808386E01DD290933F
:1000C000A3018093A20187E017D29093A1018093AE
:1000D000A00108950F931F93CF93DF93CDB7DEB7A1
:1000E000A8970FB6F894DEBF0FBECDBF98E2EAE046
:1000F000F1E0DE01119601900D929A95E1F701E091
:1001000010E00C0F1D1F98E0899F000D111D112498
:1001100040E050E0E0EDF7E080E0DA01AA0FBB1F1D
:10012000A00FB11F2D913C91261B370B37FF03C049
:100130003195219531092E173F0714F09F0101C019
:10014000842F4F5F5F4F4430510511F0F901E5CF27
:10015000A8960FB6F894DEBF0FBECDBFDF91CF914A
:100160001F910F910895CF93DF93CDB7DEB72B97F3
:100170000FB6F894DEBF0FBECDBF61E0CE01019691
:100180006AD48E010D5F1F4F91E0F801608171818B
:10019000892F9B879FDF282F30E0F801219331932F
:1001A0008F019B859F5F943081F760E080E0E9D20A
:1001B0006B817C8180E090E0C5D260E085E0E1D297
:1001C0006D817E8180E090E0BDD261E080E0D9D297
:1001D0006F81788580E090E0B5D261E085E0D1D292
:1001E00069857A8580E090E0ADD284E690E0FAD32C
:1001F000C4CFAF92BF92CF92DF92EF92FF920F9354
:100200001F93CF93DF93CDB7DEB72A970FB6F8943D
:10021000DEBF0FBECDBF61E0CE0101961CD4CE0182
:1002200001966C0100E010E0E12CF12CAA24A394CB
:10023000B12C61E0802FA5D2F601819191916F01DF
:100240008F39924060F0C501002E02C0880F991FBF
:100250000A94E2F7E82AF92A87E391E002C089E3E9
:1002600091E03CD20F5F1F4F0530110511F7C70118
:100270002A960FB6F894DEBF0FBECDBFDF91CF91A7
:100280001F910F91FF90EF90DF90CF90BF90AF90B4
:100290000895AC0120E030E081E090E026173707B8
:1002A0005CF4FC01E49FC001E59F900DF49F900D6C
:1002B00011242F5F3F4FF2CF0895CF93DF93CDB737
:1002C000DEB72A970FB6F894DEBF0FBECDBF8E0102
:1002D0000F5F1F4F8AE0F80111928A95E9F7EE242B
:1002E000E394F12C6E01FBE0CF0ED11C47E0B42E5D
:1002F000DFDE61E0C801AFD37CDF40914401509163
:10030000450120E030E0B701022E02C0660F771FE2
:100310000A94E2F768237923672B11F040E050E05C
:100320002F5F3F4F2530310571F7509345014093C2
:100330004401483051050CF081C020E030E040E03D
:1003400050E0BA01F701022E02C0EE0FFF1F0A941F
:10035000E2F7E823F923EF2B01F121303105A1F079
:1003600044F421153105C9F4455051096109710959
:1003700014C02330310569F02430310571F44B5F2E
:100380005F4F6F4F7F4F09C042505109610971099A
:1003900004C04E5F5F4F6F4F7F4F2F5F3F4F253041
:1003A000310581F6B49E9001B59E300D1124C9012E
:1003B000C2968135910534F48A3091052CF48AE097
:1003C00090E002C080E590E062E370E0621B730B96
:1003D0006135710534F46A3071052CF46AE070E01F
:1003E00002C060E570E078D28091A0019091A101F7
:1003F000833891053CF48091A2019091A301833848
:100400009105C4F062E370E082E390E065D288EE8B
:1004100093E0E8D26EEC7FEF8EEC9FEF5DD288EE3A
:1004200093E0E0D26EEC7FEF82E390E055D280E281
:1004300093E0D8D282E390E0D5D25ACF62E370E065
:100440008EEC9FEF49D261E0C80105D38091440151
:1004500090914501009729F41092450110924401B2
:1004600047CFF801219131912330310511F480E01B
:1004700090E0EC15FD05B1F7EDCF80ED97E01BD3D3
:1004800060E070E080E090E027D28BE391E026D13D
:1004900080E15ED216D111DF80917C0085FB882738
:1004A00080F90895F9DF882321F08091790090E0A8
:1004B0000895809178009091790008958032A0F499
:1004C00097E890937A0090917C00662311F0906CED
:1004D00002C09F779064907E982B90937C008091CF
:1004E0007A00806480937A00089560E0E7DF80916D
:1004F0007A0086FDFCCFD6CFF8CF089581E090E05A
:100500006F9364E06A95F1F76F910197C9F70895C9
:100510000F931F93CF93DF931AB157985A98289A45
:10052000C0E0D0E0EBDF5C9AE9DF09B15C98E6DF80
:100530005C9AE4DF5C98249607FF10C0AE0160E08F
:1005400070E08091460190914701A0914801B091DF
:100550004901481759076A077B0720F31AB9DF9149
:10056000CF911F910F91089595B1282F217030E000
:10057000220F331F482F467068E0469FA0011124C8
:10058000242B9D7C292B25B99BB188708295807F77
:100590009F77892B8BB95C9AB1DF5C98AFCFA0E0D5
:1005A000B0E0E4EDF2E072C5C82FD62EE42E8091C3
:1005B0009C01811104C081E080939C012AD0A8DFB6
:1005C00014B1D5B1FAB00BB12898DD2011F05A9AC8
:1005D00001C05A9894B1926394B9579A81E0E81691
:1005E00021F08C2F82958F70BFDF8C2F8F70BCDF36
:1005F000FAB80BB914B9D5B9CDB7DEB7E7E062C523
:1006000042E060E0CCCF42E061E0C9CF41E060E091
:10061000C6CF80E197E2A0E0B0E0809346019093DE
:100620004701A0934801B0934901529A209A549AE5
:100630008EE190E0D7D183E0E9DF86E090E0D2D18F
:1006400083E0E4DF82E090E0CDD183E0DFDF82E091
:1006500090E0C8D182E0DADF82E090E0C3D188E2A6
:10066000CFDF88E0CDDF81E0CBDF86E0C9DF8CE043
:10067000C7CF81E0C5DF80914C0190914D01892B5E
:10068000F9F060E0A0E2262F30E070910201809145
:10069000030190E00197789FA001799F500D1124EC
:1006A000241735074CF4E0914C01F0914D01E20F15
:1006B000F31FA0836F5FE7CF10924A0110924B01A6
:1006C0000895D7CF0895CF93DF93EC0189918823C4
:1006D00011F099DFFBCFDF91CF910895F4CF08950A
:1006E000AAE0B0E0E5E7F3E0D0C41AE05AE0C52E96
:1006F000D12CE12CF12C062FA70196019AD4CA0126
:10070000B9011150E1E0F0E0EC0FFD1FE10FF11D28
:10071000005D2AE0629F00191124008361157105B4
:100720008105910541F71A3050F4E1E0F0E0EC0F5B
:10073000FD1FE10FF11D808166DF1F5FF4CF2A9658
:10074000E8E0BFC4CDCF0895A5E0B0E0E9EAF3E06A
:10075000A1C4182F80E8898380EC8A8384E98B8385
:1007600084ED8C83FE01E60FF11D8181810F6D8385
:1007700047DF10934A016D8160934B012596E3E0BA
:10078000A5C4E2CF0895883058F491E001C0990FD4
:100790008A95EAF7892FAAE2B0E0EBE2F0E021C007
:1007A0008E3060F498EF980F81E001C0880F9A9521
:1007B000EAF7A4E2B0E0E5E2F0E013C0853160F4CE
:1007C00092EF980F81E001C0880F9A95EAF7A7E2AF
:1007D000B0E0E8E2F0E005C080E0A0E0B0E0E0E0FA
:1007E000F0E06F3F19F49081982709C0662319F053
:1007F0009081982B04C02081982F9095922390830C
:100800009C91982B9C93089583EF8093B00084BDB6
:1008100082E08093B10085BD1092B4001092B300C5
:1008200018BC17BC60E086E0AEDF60E085E0ABDFBF
:1008300060E08BE0A8DF60E083E0A5CF80919D01C0
:10084000811104C081E080939D01DECF0895CF9394
:10085000DF93EC01F3DFD7FF05C0D195C195D10936
:1008600081E001C080E0CF3FD10519F014F0CFEF57
:10087000D0E0882319F018BCC7BD02C0C8BD17BCA2
:10088000DF91CF910895CF93DF93EC01D7DFD7FFAE
:1008900005C0D195C195D10981E001C080E0CF3F6D
:1008A000D10519F014F0CFEFD0E0882329F0109291
:1008B000B400C093B30004C0C093B4001092B3005E
:1008C000DF91CF910895CF93DF93EB01C0DFCE018D
:1008D000DADFDF91CF910895F6CF089584B18D7C52
:1008E00084B985B1826385B985E090E06F9364E057
:1008F0006A95F1F76F910197C9F7089580919E016C
:10090000811104C081E080939E01E8CF08951F9378
:10091000CF93DF93182FF2DFC12FD0E023B130E067
:10092000209530952C233D23232BC1F38AE090E0C2
:1009300059D023B130E0209530952C233D23232B33
:1009400069F383B180958123DF91CF911F91089541
:10095000DECF08952F928F939F932FB680915501EC
:10096000909156010196809355019093560190E025
:1009700080915701891F8093570190914F019C5F8F
:1009800090934F0180914E0180519742C0F0909317
:100990004F0180934E018091500190915101019639
:1009A000809350019093510190E080915201891FF2
:1009B0008093520180915301891F809353012FBE70
:1009C0009F918F912F90189528EE33E0019748F072
:1009D000F9016F9364E06A95F1F76F913197C9F768
:1009E000F5CF0895F1CF0895E0E7F0E080818E7FA4
:1009F0008083A0EBB0E08C9183608C93A1EBB0E09E
:100A00008C91807F8C938C9182608C93B89A80813A
:100A1000816080837894089580919F01811104C042
:100A200081E080939F01E0CF0895F6DFE0E7F0E0FA
:100A300080818E7F8083109250011092510110921C
:100A400052011092530110924F0110924E01808179
:100A5000816080830895462FBC0188E591E067C2DC
:100A60000F93CF93DF9300D000D01F92CDB7DEB7A6
:100A70009C0185E0E2E3F1E0DE01119601900D9228
:100A80008A95E1F7662311F00FEF01C003E145E01D
:100A9000BE016F5F7F4F88E591E0A8D088E591E0C7
:100AA0007ED0C3DF0F900F900F900F900F90DF91CB
:100AB000CF910F91089560E0D3CF88E591E08BC28C
:100AC0006F9364E06A95F1F76F910197C9F7089504
:100AD000FC01118210821382128215821482168206
:100AE000683068F489E290E0918380838BE290E043
:100AF000938382838AE290E0958384831FC06E3063
:100B000070F483E290E09183808385E290E09383A8
:100B1000828384E290E09583848368500FC06531BE
:100B200098F486E290E09183808388E290E093835A
:100B3000828387E290E0958384836E5081E001C0D8
:100B4000880F6A95EAF786830895A7E0B0E0EAEA9D
:100B5000F5E09FC28C01FC01118210821382128287
:100B60001582148217821682613118F080E1808725
:100B700002C0FC016087F801208B642FCE01019632
:100B8000A7DF8F81F80181878B819C819387828782
:100B90008D819E81958784872796E4E096C2FC012B
:100BA000A485B585109771F08C919185892B8C93D4
:100BB000A285B3859C918185809589238C9388EC4F
:100BC00090E07ECF0895FC01A485B585109769F06B
:100BD0008C919185892B8C93A285B3858C9191857D
:100BE000892B8C9388EC90E06BCF0895A7E0B0E060
:100BF000EBEFF5E043C27C014B01642F3901402F3C
:100C000020E0A3DF87010F5B1F4FF801108267010F
:100C1000F2E4CF0ED11CF60110825701F3E4AF0EBF
:100C2000B11CF5011082F70177866686512CF70119
:100C30008085581648F5652C712CF401E60DF71DDA
:100C40006081CE01019644DF2F81F701E60DF71D8B
:100C5000218B89819A81F301EE0FFF1FEE0DFF1D9D
:100C600092A381A38332910511F4F80108C0863262
:100C7000910511F4F60103C0899721F4F5018081F3
:100C8000822B80835394D3CF2796EFE013C2A0E04A
:100C9000B0E0ECE4F6E0F4C1EC015B016C0181E44E
:100CA000C80ED11CF60180807E01F2E4EF0EF11C2B
:100CB000F70170808E010D5B1F4FF801908080E07E
:100CC0009885891748F4F501E80FF11DE80FF11D2B
:100CD000118210828F5FF4CF84B1F6019081892B4D
:100CE00084B987B1F7019081892B87B98AB1F8015E
:100CF0009081892B8AB985B1F6019081892B85B9BC
:100D000088B1F7019081892B88B98BB1F801908166
:100D1000892B8BB98AE090E0D3DE94B1F601808113
:100D20008095892384B997B1F701808180958923C3
:100D300087B99AB1F8018081809589238AB995B1E4
:100D4000F60180818095892385B998B1F70180816A
:100D50008095892388B99BB1F8018081809589238A
:100D60008BB9E090B000D090B1008091B00083606A
:100D70008093B00082E08093B1004091B20080E0A7
:100D800090E02E853F858217930720F5C090B20032
:100D90002C2D241B820F911D03B1081132C0F6B017
:100DA000F7102FC029B129112CC010C0212F30E01D
:100DB000A901440F551FF501E40FF51F60817181F2
:100DC000672B21F11F5F2885121780F37F2C802E5F
:100DD0004C2DD7CFE092B000D092B10020E08885B2
:100DE000281730F5F501E20FF11DE20FF11D8081AA
:100DF0009181892B21F48E859F85918380832F5F3C
:100E0000EECF03B1F6B099B010E0DDCFDE01A40F54
:100E1000B51F91960D90BC91A02D4C91DE01A20FB3
:100E2000B31F51962C91422369F691838083CACFD8
:100E3000CDB7DEB7EDE040C1EF92FF920F931F9365
:100E4000CF93DF93FC019B01F0907C0000917A002E
:100E500047B118B180917A0086FDFCCF80E0908583
:100E6000891748F4D901A80FB11DA80FB11D1D9213
:100E70001C928F5FF4CF97B182A18095892387B9A7
:100E800098B182A18095892388B987E880937A00F8
:100E9000E12C81A1E81610F0E12C29C050E08085FA
:100EA000581718F5A52FB0E0EF01CA0FDB1F89898D
:100EB000806480937C0080917A00806480937A00C3
:100EC00080917A0086FDFCCF609178007091790066
:100ED000AA0FBB1FA20FB31F8D919C911197860F74
:100EE000971F8D939C935F5FDACFE394D2CF808579
:100EF000E81698F4E901CE0DD11DCE0DD11D61A1EA
:100F000070E0CB0195958795A881B9818A0F9B1FC9
:100F10007CD079836883E394EACFF0927C000093DD
:100F20007A0018B947B9CDB7DEB7E6E0CCC0A0E289
:100F3000B0E0ECE9F7E0AAC08C017B01D42E8FEF82
:100F4000840F823010F4C8013EDED80150968C9197
:100F5000B70181110DC0C8019ADEC80120DEB2E0E0
:100F6000DB1236C0BE016F5F7F4FC80190DE0CC040
:100F7000C80162DFC80113DEE2E0DE1229C0BE0153
:100F80006F5F7F4FC80158DF40E0F8018085481748
:100F9000F8F4842F90E0880F991FF701E80FF91FEC
:100FA00021E030E02C0F3D1F820F931FD8011E96C9
:100FB0002D913C911F97DC018D919C91281B390B41
:100FC00080819181820F931F918380834F5FDDCF5A
:100FD000A096E7E077C0CF93DF93EC018A819B81F5
:100FE000009709F01DD18E819F81009709F018D1DB
:100FF00088819981009709F013D18C819D81009798
:1010000009F00ED1DF91CF910895AA1BBB1B51E1CE
:1010100007C0AA1FBB1FA617B70710F0A61BB70B68
:10102000881F991F5A95A9F780959095BC01CD010D
:101030000895A1E21A2EAA1BBB1BFD010DC0AA1F19
:10104000BB1FEE1FFF1FA217B307E407F50720F031
:10105000A21BB30BE40BF50B661F771F881F991FAC
:101060001A9469F760957095809590959B01AC01F5
:10107000BD01CF0108952F923F924F925F926F92E0
:101080007F928F929F92AF92BF92CF92DF92EF9218
:10109000FF920F931F93CF93DF93CDB7DEB7CA1B99
:1010A000DB0B0FB6F894DEBF0FBECDBF09942A88C4
:1010B000398848885F846E847D848C849B84AA846C
:1010C000B984C884DF80EE80FD800C811B81AA81F9
:1010D000B981CE0FD11D0FB6F894DEBF0FBECDBFC4
:1010E000ED010895EE0FFF1F0590F491E02D099496
:1010F000CF93DF938230910510F482E090E0E0918D
:10110000A601F091A70120E030E0A0E0B0E0309728
:1011100039F14081518148175907B8F048175907EC
:1011200071F482819381109729F013969C938E938A
:1011300012972CC09093A7018093A60127C0211578
:10114000310531F04217530718F0A901DB0101C046
:10115000EF019A01BD01DF010280F381E02DD7CFBD
:1011600021153105F9F0281B390B2430310580F4A5
:101170008A819B816115710521F0FB019383828334
:1011800004C09093A7018093A601FE01329644C04B
:10119000FE01E20FF31F81939193225031093983AD
:1011A00028833AC02091A4013091A501232B41F45A
:1011B00020910601309107013093A5012093A401ED
:1011C00020910401309105012115310541F42DB71D
:1011D0003EB74091080150910901241B350BE09165
:1011E000A401F091A501E217F307A0F42E1B3F0B19
:1011F0002817390778F0AC014E5F5F4F2417350789
:1012000048F04E0F5F1F5093A5014093A4018193B6
:10121000919302C0E0E0F0E0CF01DF91CF9108951B
:10122000CF93DF93009709F487C0FC0132971382B4
:101230001282C091A601D091A701209781F420814C
:101240003181280F391F8091A4019091A501821747
:10125000930779F5F093A501E093A4016DC0DE0139
:1012600020E030E0AE17BF0750F412964D915C912C
:1012700013979D014115510509F1DA01F3CFB383AD
:10128000A28340815181840F951F8A179B0771F4B7
:101290008D919C911197840F951F02969183808365
:1012A00012968D919C91139793838283211531051A
:1012B00029F4F093A701E093A6013EC0D90113964B
:1012C000FC93EE9312974D915D91A40FB51FEA1711
:1012D000FB0779F480819181840F951F0296D901D3
:1012E00011969C938E938281938113969C938E93F7
:1012F0001297E0E0F0E08A819B81009719F0FE01EF
:10130000EC01F9CFCE01029628813981820F931F1B
:101310002091A4013091A5012817390769F430976D
:1013200029F41092A7011092A60102C01382128222
:10133000D093A501C093A401DF91CF91089510E04F
:10134000C8E6D0E003C0FE01CFDE2296CA36D10740
:06135000D1F7F894FFCF75
:10135600881308020000A801200000000000000019
:1013660000008601E0015C03B004FA005E0162023F
:10137600B004860126028403B004000000000000C9
:1013860000000E0F10111231003000507265737399
:0413960020422100D0
:00000001FF
