:1000000064C000007EC000007CC000007AC0000018
:1000100078C0000076C0000074C0000072C000000C
:1000200070C000004CC500006CC000006AC0000039
:1000300068C0000066C0000064C0000062C000002C
:1000400060C000005EC0000066C4000014C500006F
:1000500058C0000056C0000054C0000052C000004C
:1000600050C000004EC000000D0A0020205B656DEE
:100070007074795D0D0A00726F626F6C69622F7324
:100080007472696E672F737472696E672E632030A5
:10009000352E31302E323031352056312E312E3042
:1000A0000D0A000D0A0020205B656D7074795D0DEE
:1000B0000A00737472696E673A0D0A0066616C73A8
:1000C0006500747275650000120611241FBECFEF23
:1000D000D8E0DEBFCDBF11E0A0E0B1E0E0E3F5E1A4
:1000E00002C005900D92A235B107D9F721E0A2E533
:1000F000B1E001C01D92AF3FB207E1F76ED20C94A0
:100100008C0A7ECFDC011296ED91FC911397169626
:100110008C9190816F3F11F4892706C0662311F0FE
:10012000892B02C08095892380830895CF93DF9324
:100130001F92CDB7DEB7898361E0CE01019699D4D5
:100140000F90DF91CF910895CF93DF93CDB7DEB7B6
:1001500027970FB6F894DEBF0FBECDBF29E230E07F
:100160003A8329832BE230E03C832B832AE230E080
:100170003E832D8390E89F83682FCE010196C2DFD6
:10018000ED81FE8190818F81892B808327960FB628
:10019000F894DEBF0FBECDBFDF91CF9108951092CE
:1001A000520160E071EE80E090E007D460E48DEAF7
:1001B00091E0AFC32FD3909152018917D9F3E92F62
:1001C000F0E0E355FE4F80819F5F903418F49093E8
:1001D00052010895109252010895CF93DF93EC01DC
:1001E000D7FF06C08DE2A2DFD195C195D109F8CF26
:1001F000CA30D10534F0CE016AE070E0CFD7CB0130
:10020000ECDFCE016AE070E0C9D7805DDF91CF916D
:100210008DCFBC0186E990E06DC1CF93DF93ECE711
:10022000F0E080818062808386E047D2C7EFD1E032
:100230009B838A8387E041D299838883DF91CF9122
:1002400008952A982298089583B1847090E00895C3
:10025000E4DF61E08DEE91E0B3D48091F5019091FF
:10026000F6018531954008F438C064E170E084E11E
:1002700090E0CED28CEB92E06AD41A9929C08BE040
:1002800091E0C7DF80E060DF84E690E060D46EEC50
:100290007FEF82E390E0BCD28EE591E058D46CE32E
:1002A00070E08CE390E0B4D280E293E050D462EE50
:1002B0007FEF82EE9FEFACD284EF91E048D462E30F
:1002C00070E08EEC9FEFA4D28EE591E040D405C0A3
:1002D0008CE291E09EDF81E037DF8091F90190911F
:1002E000FA018035910544F062E370E08EEC9FEFF7
:1002F0008FD283E391E02BC42091F7013091F80174
:1003000028573109220F331FB9016C597F4F84E6FA
:1003100090E0821B930B7CC2EF92FF921F93CF93CE
:10032000DF9300D000D000D0CDB7DEB77C01CB0189
:10033000413208F040E220E0EAE0F0E011E0120F84
:1003400061E070E06C0F7D1F620F711D9B01BF01AA
:1003500011D790E3980FD9019C93CB01212F0097DF
:1003600069F7141738F480E24E83F70109954E813E
:100370004150F7CF115050F0E1E0F0E0EC0FFD1FDD
:10038000E10FF11D8081F7010995F4CF26960FB694
:10039000F894DEBF0FBECDBFDF91CF911F91FF90CC
:1003A000EF9008950F931F93CF93DF9300D01F9288
:1003B000CDB7DEB78C0177FF13C0719561957109D8
:1003C0008DE24B8369837A83F80109954B816981BA
:1003D0007A81413218F4442319F001C040E24150BF
:1003E000C8010F900F900F90DF91CF911F910F9147
:1003F00093CFEF92FF920F931F93CF93DF931F92B0
:10040000CDB7DEB77C018B0147FF09C0419580E382
:100410004983F701099588E7F70109954981453036
:100420004CF424E030E0241B310947FD3395220FC2
:10043000220F01C020E0022E02C0000F111F0A94FB
:10044000E2F72031A4F4912F92959F709A3010F426
:1004500080E301C087E3890F2983F701099584E0D0
:10046000000F111F8A95E1F729812C5FEACF0F90C9
:10047000DF91CF911F910F91FF90EF900895DF9240
:10048000EF92FF920F931F93CF93DF931F92CDB7FD
:10049000DEB77C018B0147FF09C0419580E34983AA
:1004A000F701099582E6F70109954981413124F464
:1004B00080E1D82ED41A01C0D12C0D2C02C0000F1F
:1004C000111F0A94E2F7FFE0FD155CF017FF02C070
:1004D00081E301C080E3F7010995000F111FD39458
:1004E000F2CF0F90DF91CF911F910F91FF90EF907E
:1004F000DF9008950F931F93CF93DF938C01EB014F
:100500008991882319F0F8010995FACFDF91CF91ED
:100510001F910F9108950F931F93CF93DF938C0139
:10052000FB018491EB012196882321F0F8010995C4
:10053000BE01F6CFDF91CF911F910F9108956623F1
:1005400019F062EC70E002C06CEB70E0E4CFEF9267
:10055000FF920F931F93CF93DF937C01CFEFC40FD4
:10056000FB01CF3F99F084918F010F5F1F4FDFEFA9
:10057000DC0F811106C0C15048F080E2F7010995F7
:10058000FACFF7010995F801CD2FEBCFDF91CF918D
:100590001F910F91FF90EF900895CF93DF93EC019F
:1005A00062EB70E0B8DF66EA70E0CE01B4DF63EAC8
:1005B00070E0CE01DF91CF91AECFCF93DF93EC010E
:1005C00067E770E0A8DF6BE670E0CE01A4DF68E6C5
:1005D00070E0CE01DF91CF919ECFCF93DF93CDB767
:1005E000DEB727970FB6F894DEBF0FBECDBF60E031
:1005F00070E080E090E00CD1D2DD23DE80ED97E06A
:100600000FD388EE93E0A3D289E2C82ED12C9BE2CF
:10061000E92EF12C0AE210E022E0A22EBB24B394D2
:1006200017DE83B1847090DD63B1DA82C982FC8207
:10063000EB821E830D83AF8262FB662760F96B2518
:10064000CE0101965FDDED81FE8190818F81892B46
:10065000808383E090E07BD2E3CF80917C0085FBB8
:10066000882780F90895F9DF882321F080917900A7
:1006700090E00895809178009091790008958032FB
:10068000A0F497E890937A0090917C00662311F093
:10069000906C02C09F779064907E982B90937C0022
:1006A00080917A00806480937A00089560E0E7DFAB
:1006B00080917A0086FDFCCFD6CFF8CF08958830A0
:1006C00058F491E001C0990F8A95EAF7892FAAE2C0
:1006D000B0E0EBE2F0E021C08E3060F498EF980FCC
:1006E00081E001C0880F9A95EAF7A4E2B0E0E5E264
:1006F000F0E013C0853160F492EF980F81E001C003
:10070000880F9A95EAF7A7E2B0E0E8E2F0E005C0CA
:1007100080E0A0E0B0E0E0E0F0E06F3F19F490810D
:10072000982709C0662319F09081982B04C0208176
:10073000982F9095922390839C91982B9C93089549
:1007400083EF8093B00084BD82E08093B10085BDCB
:100750001092B4001092B30018BC17BC60E086E0A1
:10076000AEDF60E085E0ABDF60E08BE0A8DF60E05B
:1007700083E0A5CF8091AB01811104C081E080931B
:10078000AB01DECF0895CF93DF93EC01F3DFD7FF0A
:1007900005C0D195C195D10981E001C080E0CF3F6E
:1007A000D10519F014F0CFEFD0E0882319F018BC70
:1007B000C7BD02C0C8BD17BCDF91CF910895CF93CC
:1007C000DF93EC01D7DFD7FF05C0D195C195D109E3
:1007D00081E001C080E0CF3FD10519F014F0CFEFE8
:1007E000D0E0882329F01092B400C093B30004C075
:1007F000C093B4001092B300DF91CF910895CF93CE
:10080000DF93EB01C0DFCE01DADFDF91CF910895F6
:10081000F6CF0895809155010895282F30E09AE091
:10082000899FF0011124ED5AFE4F80859185009734
:1008300021F052814481541780F08AE0829FF001B8
:10084000839FF00D1124ED5AFE4F928184819813FD
:100850000EC0858181110AC008954281DC01A40F78
:10086000B11D6C9382818F5F8283E7CF12820895DE
:10087000CF93DF939091C1009F779093C100C82FD1
:10088000D0E09AE0899FF0011124ED5AFE4F2085B7
:100890003185232B41F022819481291720F49091F6
:1008A000C00097FD11C08AE08C9FF0018D9FF00D74
:1008B0001124ED5AFE4F808181110AC08091C10040
:1008C00080688093C10004C06091C600A6DFEBCFB2
:1008D000DF91CF9108959091C1009F779093C100CF
:1008E0009AE0899FF0011124ED5AFE4F71876087CD
:1008F0001282448325838081811105C08091C100CB
:1009000080688093C1000895462F21E0BC0180E0FB
:10091000E2CFFACF08951F920F920FB60F921124D3
:100920002F933F934F935F936F937F938F939F93F7
:10093000AF93BF93EF93FF936091C60080E06DDFAC
:10094000FF91EF91BF91AF919F918F917F916F91A7
:100950005F914F913F912F910F900FBE0F901F907D
:1009600018959AE0899FF0011124ED5AFE4F868177
:100970009781892B59F091818381981738F4808170
:10098000811104C08091C100806203C08091C100C8
:100990008F7D8093C10008959AE0899FF001112412
:1009A000ED5AFE4F9081911102C098E901C098E183
:1009B0009093C100D6DF78940895CF92DF92EF92A2
:1009C000FF926B017C0180E0E7DFA8EFBFEFA7019A
:1009D000960134D4735D8E4C9E4FE4E0220F331F9A
:1009E000441F551FEA95D1F7ECD33093C5002093EF
:1009F000C400FF90EF90DF90CF9008959AE0899F18
:100A0000F0011124ED5AFE4F268137812115310561
:100A100041F041819381491720F49091C00095FDE8
:100A200001C09FCF9181D901A90FB11D9C919093D5
:100A3000C60091819F5F9183F4CFE1ECF0E080816B
:100A40008F7D808380E0DADF80E012CF90935A01BF
:100A500080935901109254016093560180E081DF28
:100A60009091540180915601981711F0E6DFF8CF6C
:100A70000895ECCF08951F920F920FB60F92112494
:100A80002F933F934F935F936F937F938F939F9396
:100A9000AF93BF93EF93FF9380E0B0DFFF91EF91AF
:100AA000BF91AF919F918F917F916F915F914F9186
:100AB0003F912F910F900FBE0F901F9018952F927E
:100AC0008F939F932FB68091640190916501019659
:100AD000809364019093650190E080916601891F85
:100AE0008093660190915E019C5F90935E0180917E
:100AF0005D0180519742C0F090935E0180935D014B
:100B000080915F0190916001019680935F019093C5
:100B1000600190E080916101891F80936101809163
:100B20006201891F809362012FBE9F918F912F9048
:100B3000189528EE33E0019748F0F9016F9364E0CF
:100B40006A95F1F76F913197C9F7F5CF0895F1CF15
:100B50000895E0E7F0E080818E7F8083A0EBB0E035
:100B60008C9183608C93A1EBB0E08C91807F8C930F
:100B70008C9182608C93B89A808181608083789414
:100B800008958091AC01811104C081E08093AC0193
:100B9000E0CF0895F6DFE0E7F0E080818E7F80838C
:100BA00010925F0110926001109261011092620137
:100BB00010925E0110925D018081816080830895B2
:100BC000462FBC0187E691E067C20F93CF93DF9376
:100BD00000D000D01F92CDB7DEB79C0185E0E6E0E3
:100BE000F1E0DE01119601900D928A95E1F76623FE
:100BF00011F00FEF01C003E145E0BE016F5F7F4FD1
:100C000087E691E0A8D087E691E07ED0C3DF0F9021
:100C10000F900F900F900F90DF91CF910F9108954B
:100C200060E0D3CF87E691E08BC26F9364E06A9572
:100C3000F1F76F910197C9F70895FC0111821082B5
:100C400013821282158214821682683068F489E257
:100C500090E0918380838BE290E0938382838AE2A9
:100C600090E0958384831FC06E3070F483E290E03F
:100C70009183808385E290E09383828384E290E095
:100C80009583848368500FC0653198F486E290E0C4
:100C90009183808388E290E09383828387E290E06F
:100CA000958384836E5081E001C0880F6A95EAF7CE
:100CB00086830895A7E0B0E0EFE5F6E0D1C28C01AD
:100CC000FC01118210821382128215821482178213
:100CD0001682613118F080E1808702C0FC016087D4
:100CE000F801208B642FCE010196A7DF8F81F801D8
:100CF00081878B819C81938782878D819E81958757
:100D000084872796E4E0C8C2FC01A485B5851097C6
:100D100071F08C919185892B8C93A285B3859C91E0
:100D20008185809589238C9388EC90E07ECF08950F
:100D3000FC01A485B585109769F08C919185892B6C
:100D40008C93A285B3858C919185892B8C9388ECAB
:100D500090E06BCF0895A7E0B0E0E0EBF6E075C25D
:100D60007C014B01642F3901402F20E0A3DF870174
:100D70000F5B1F4FF80110826701F2E4CF0ED11C08
:100D8000F60110825701F3E4AF0EB11CF501108299
:100D9000F70177866686512CF7018085581648F54D
:100DA000652C712CF401E60DF71D6081CE010196D2
:100DB00044DF2F81F701E60DF71D218B89819A8190
:100DC000F301EE0FFF1FEE0DFF1D92A381A38332EF
:100DD000910511F4F80108C08632910511F4F6016D
:100DE00003C0899721F4F5018081822B808353947D
:100DF000D3CF2796EFE045C2A0E0B0E0E1E0F7E016
:100E000026C2EC015B016C0181E4C80ED11CF60125
:100E100080807E01F2E4EF0EF11CF70170808E01FC
:100E20000D5B1F4FF801908080E09885891748F48A
:100E3000F501E80FF11DE80FF11D118210828F5F9F
:100E4000F4CF84B1F6019081892B84B987B1F70181
:100E50009081892B87B98AB1F8019081892B8AB951
:100E600085B1F6019081892B85B988B1F701908110
:100E7000892B88B98BB1F8019081892B8BB98AE0D5
:100E800090E0D3DE94B1F60180818095892384B906
:100E900097B1F70180818095892387B99AB1F801CC
:100EA0008081809589238AB995B1F60180818095EA
:100EB000892385B998B1F70180818095892388B904
:100EC0009BB1F8018081809589238BB9E090B000B7
:100ED000D090B1008091B00083608093B00082E038
:100EE0008093B1004091B20080E090E02E853F8574
:100EF0008217930720F5C090B2002C2D241B820F7F
:100F0000911D03B1081132C0F6B0F7102FC029B1FE
:100F100029112CC010C0212F30E0A901440F551F0A
:100F2000F501E40FF51F60817181672B21F11F5FCF
:100F30002885121780F37F2C802E4C2DD7CFE0927E
:100F4000B000D092B10020E08885281730F5F50177
:100F5000E20FF11DE20FF11D80819181892B21F4B7
:100F60008E859F85918380832F5FEECF03B1F6B08E
:100F700099B010E0DDCFDE01A40FB51F91960D9062
:100F8000BC91A02D4C91DE01A20FB31F51962C9164
:100F9000422369F691838083CACFCDB7DEB7EDE0F7
:100FA00072C1EF92FF920F931F93CF93DF93FC01D7
:100FB0009B01F0907C0000917A0047B118B18091BC
:100FC0007A0086FDFCCF80E09085891748F4D9012E
:100FD000A80FB11DA80FB11D1D921C928F5FF4CFF9
:100FE00097B182A18095892387B998B182A1809514
:100FF000892388B987E880937A00E12C81A1E816DB
:1010000010F0E12C29C050E08085581718F5A52F65
:10101000B0E0EF01CA0FDB1F8989806480937C00F8
:1010200080917A00806480937A0080917A0086FDB6
:10103000FCCF6091780070917900AA0FBB1FA20FBE
:10104000B31F8D919C911197860F971F8D939C9341
:101050005F5FDACFE394D2CF8085E81698F4E90198
:10106000CE0DD11DCE0DD11D61A170E0CB019595A6
:101070008795A881B9818A0F9B1F7CD0798368836B
:10108000E394EACFF0927C0000937A0018B947B954
:10109000CDB7DEB7E6E0FEC0A0E2B0E0E1E5F8E003
:1010A000DCC08C017B01D42E8FEF840F823010F4D2
:1010B000C8013EDED80150968C91B70181110DC058
:1010C000C8019ADEC80120DEB2E0DB1236C0BE01E4
:1010D0006F5F7F4FC80190DE0CC0C80162DFC8019E
:1010E00013DEE2E0DE1229C0BE016F5F7F4FC80150
:1010F00058DF40E0F80180854817F8F4842F90E02D
:10110000880F991FF701E80FF91F21E030E02C0F3D
:101110003D1F820F931FD8011E962D913C911F9762
:10112000DC018D919C91281B390B80819181820F6C
:10113000931F918380834F5FDDCFA096E7E0A9C026
:10114000CF93DF93EC018A819B81009709F04CD10A
:101150008E819F81009709F047D1888199810097FE
:1011600009F042D18C819D81009709F03DD1DF913A
:10117000CF910895AA1BBB1B51E107C0AA1FBB1F3B
:10118000A617B70710F0A61BB70B881F991F5A9513
:10119000A9F780959095BC01CD01089597FB072E86
:1011A00016F4009406D077FD08D0E4DF07FC05D0E4
:1011B0003EF4909581959F4F0895709561957F4F6E
:1011C0000895A1E21A2EAA1BBB1BFD010DC0AA1F88
:1011D000BB1FEE1FFF1FA217B307E407F50720F0A0
:1011E000A21BB30BE40BF50B661F771F881F991F1B
:1011F0001A9469F760957095809590959B01AC0164
:10120000BD01CF010895A29FB001B39FC001A39F6C
:10121000700D811D1124911DB29F700D811D11242F
:10122000911D0895F0DFA59F900DB49F900DA49F90
:10123000800D911D11240895B7FFF4CFF3DF821BB9
:10124000930B08952F923F924F925F926F927F92ED
:101250008F929F92AF92BF92CF92DF92EF92FF92C6
:101260000F931F93CF93DF93CDB7DEB7CA1BDB0B72
:101270000FB6F894DEBF0FBECDBF09942A88398817
:1012800048885F846E847D848C849B84AA84B9841E
:10129000C884DF80EE80FD800C811B81AA81B9812A
:1012A000CE0FD11D0FB6F894DEBF0FBECDBFED013E
:1012B0000895EE0FFF1F0590F491E02D0994CF9350
:1012C000DF938230910510F482E090E0E091FD011F
:1012D000F091FE0120E030E0C0E0D0E0309711F165
:1012E0004081518148175907C0F04817590761F4E8
:1012F00082819381209719F09B838A832BC09093DE
:10130000FE018093FD0126C02115310519F0421719
:10131000530718F49A01BE01DF01EF010280F38147
:10132000E02DDCCF2115310509F1281B390B2430C4
:10133000310590F412968D919C911397611571056A
:1013400021F0FB019383828304C09093FE0180937C
:10135000FD01FD01329644C0FD01E20FF31F8193B0
:101360009193225031092D933C933AC02091FB0177
:101370003091FC01232B41F42091020130910301B3
:101380003093FC012093FB01209100013091010179
:101390002115310541F42DB73EB74091040150911C
:1013A0000501241B350BE091FB01F091FC01E217D4
:1013B000F307A0F42E1B3F0B2817390778F0AC0178
:1013C0004E5F5F4F2417350748F04E0F5F1F509355
:1013D000FC014093FB018193919302C0E0E0F0E0B7
:1013E000CF01DF91CF9108950F931F93CF93DF9398
:1013F000009709F48CC0FC0132971382128200918D
:10140000FD011091FE010115110581F4208131814A
:10141000820F931F2091FB013091FC01281739079F
:1014200079F5F093FC01E093FB0171C0D80140E035
:1014300050E0AE17BF0750F412962D913C911397D0
:10144000AD012115310509F1D901F3CF9D01DA0173
:101450003383228360817181860F971F82179307E0
:1014600069F4EC0128813981260F371F2E5F3F4F29
:10147000318320838A819B8193838283452B29F446
:10148000F093FE01E093FD0142C01396FC93EE93AE
:101490001297ED01499159919E01240F351FE217D2
:1014A000F30771F480819181840F951F0296119644
:1014B0009C938E938281938113969C938E93129723
:1014C000E0E0F0E0D80112968D919C91139700977F
:1014D00019F0F8018C01F6CF8D919C9198012E5F47
:1014E0003F4F820F931F2091FB013091FC01281781
:1014F000390769F4309729F41092FE011092FD012A
:1015000002C0138212821093FC010093FB01DF9151
:10151000CF911F910F91089510E0C4E6D0E003C071
:10152000FE01C7DE2196C536D107D1F7F894FFCF6B
:101530000000FF0120000E0F1011120A4C4544203C
:101540006175732C204B6E6F706620776972642012
:1015500067656472C3BC636B742E0A000A4C454411
:1015600020616E2C204B6E6F70662077697264204C
:101570006E696368742067656472C3BC636B742EA4
:021580000A005F
:00000001FF
