:1000000056C3000075C3000073C3000071C3000035
:100010006FC300006DC300000C944B140C9470145B
:100020000C94951465C3000063C3000061C3000015
:100030005FC300000C94BA145BC3000059C30000F6
:1000400057C3000055C3000053C3000051C3000054
:100050004FC300004DC300004BC3000049C3000064
:1000600047C300000C94051B0C94D11A41C3000037
:100070003FC300003DC300003BC3000039C3000084
:1000800037C3000035C3000033C3000031C3000094
:100090000C94891D0C94551D2BC3000029C300002E
:1000A00027C3000025C3000023C3000021C30000B4
:1000B0001FC300001DC300001BC3000019C30000C4
:1000C00017C3000015C3000013C3000005A84CCDE2
:1000D000B2D44EB93836A9020C50B9918688083C82
:1000E000A6AAAA2ABE000000803F0A0D004F6D6E2E
:1000F00069776865656C20526F626F7465720A0D6E
:10010000003D3D3D3D3D3D3D3D3D3D3D3D3D3D3D5C
:100110003D3D0A0D0A0D004F6D6E69776865656C8F
:10012000202D20586265650020205761727465207B
:1001300020202020202020200062202D2042756DCC
:10014000706572733A0D0A0042756D7065727320A6
:1001500000202068696E74656E206C696E6B732078
:10016000284269742031290D0A0068696C692031C0
:1001700000202068696E74656E2072656368747310
:1001800020284269742032290D0A006869726520AE
:10019000320020207265636874732072656368742E
:1001A0007320284269742033290D0A007265726534
:1001B0002033002020726563687473206C696E6B55
:1001C0007320284269742034290D0A0072656C6915
:1001D00020340020206C696E6B73206C696E6B7329
:1001E00020284269742036290D0A006C696C692048
:1001F000360020206C696E6B7320726563687473BF
:1002000020284269742037290D0A006C6972652024
:100210003700202042616C6C202842697420352907
:100220000D0A0062616C6C20350020204E69636805
:10023000747320676564727565636B740D0A006E74
:100240006963687473007A202D205A6569743A0DC9
:100250000A005A65697420002020000D0A00202041
:1002600020006D6F746F723A0D0A006D6F746F72BB
:100270002020202020202020200020206D6C3D20E8
:10028000000A0D20206D723D20000A0D20206D68AF
:100290003D20000D0A00706F7765723A0D0A0070FC
:1002A0006F776572200020206D61783D20000A0D77
:1002B00000202020202000202000202000202020BE
:1002C00020200020202020200053687574646F7760
:1002D0006E004572726F7220202020202020202086
:1002E000004572726F7220202020202020202000E4
:1002F0004572726F72202020202020202020000DC7
:100300000A0020205B656D7074795D0D0A00736FC3
:10031000757263652F737472696E672F7374726977
:100320006E672E632032332E30392E323031342036
:1003300056312E302E300D0A000D0A0020205B654C
:100340006D7074795D0D0A00737472696E673A0D91
:100350000A0066616C73650074727565000D0A00B1
:100360000D0A003136303030303030003A20002075
:1003700020465F43505500736F757263652F646547
:100380006C61792F64656C61792E632032332E3075
:10039000392E323031342056312E302E300D0A00B5
:1003A0000D0A0020205B656D7074795D0D0A006494
:1003B000656C61793A0D0A000D0A000D0A005B7543
:1003C0006E646566696E65645D003A2000202044B5
:1003D0004953504C41595F444154415F4849000DD5
:1003E0000A0041003A20002020444953504C415912
:1003F0005F444154415F504F5254000D0A00360093
:100400003A20002020444953504C41595F50494EF6
:100410005F5257000D0A0035003A20002020444961
:1004200053504C41595F50494E5F5253000D0A00E2
:1004300034003A20002020444953504C41595F5029
:10044000494E5F45000D0A0041003A20002020443B
:100450004953504C41595F504F525400736F75725D
:1004600063652F646973706C61792F646973706C54
:1004700061792E632031372E31302E3230313420E5
:1004800056312E302E300D0A000D0A000D0A003AAA
:1004900020002020656E61626C6564006469737081
:1004A0006C61793A0D0A000D0A000D0A003634001D
:1004B0003A2000202055415254305F5458000D0A14
:1004C000003634003A2000202055415254305F520B
:1004D00058000D0A003136303030303030003A20CC
:1004E000002020465F435055000D0A0061746D6581
:1004F000676132353631003A200020204D435500E7
:10050000736F757263652F75617274302F756172C8
:1005100074305F61746D656761323536312E6320EA
:1005200031362E30392E323031342056312E302EA5
:10053000300D0A00736F757263652F7561727430C8
:100540002F75617274302E632032332E30392E3283
:100550003031342056312E302E300D0A000D0A0075
:100560000D0A003A200020207278000D0A003A207F
:100570000020207478000D0A003A200020206261DB
:100580007564000D0A003A20002020554252523076
:10059000000D0A003A20002020656E61626C6564DF
:1005A0000075617274303A0D0A000D0A000D0A00E0
:1005B0003634003A2000202055415254315F5458BF
:1005C000000D0A003634003A2000202055415254D4
:1005D000315F5258000D0A00313630303030303043
:1005E000003A20002020465F435055000D0A00616C
:1005F000746D65676132353631003A200020204D38
:10060000435500736F757263652F75617274312F76
:1006100075617274315F61746D6567613235363151
:100620002E632032332E30392E3230313420563181
:100630002E302E300D0A00736F757263652F756151
:100640007274312F75617274312E632032332E3003
:10065000392E323031342056312E302E300D0A00F2
:100660000D0A000D0A003A200020207278000D0AC1
:10067000003A200020207478000D0A003A20002063
:100680002062617564000D0A003A20002020554266
:10069000525231000D0A003A20002020656E61623E
:1006A0006C65640075617274313A0D0A00001124A2
:1006B0001FBECFEFD1E2DEBFCDBF00E00CBF13E025
:1006C000A8E0B2E001C01D92A935B107E1F712E040
:1006D000A0E0B2E0E2E7FCE400E00BBF02C007905C
:1006E0000D92A830B107D9F70E94C3230C94372686
:1006F00087CC82E08093B00097E09093B1009BE9B3
:100700009093B300809370000895CF93DF93A3D6A6
:1007100082E306D71092870084E680938600C0E8C3
:10072000D0E0188284E180938100109285001092BD
:100730008400109289001092880010928B00109211
:100740008A0010928D0010928C008AE090E00E9446
:10075000D9168881886A8883DF91CF9108950E9495
:10076000100E84E60E94090F0C94F40D58D61DBAA1
:1007700084E580936A0080EE8CBB8DBB089561E0B8
:1007800081E00E94E8134FEF61E081E00C94F313E5
:100790008CEF84B915B817B88EEF88B989E98AB992
:1007A00080E68BB981E08DB91EB810BA11BA13BAC0
:1007B00014BAABDFD4DFDADF9CDFE1CFCF93DF9376
:1007C00069E371E088E993E10E94761668E471E0DC
:1007D00086E897E10E9476168EED0E949313D82F3B
:1007E00081FF0EC061E571E088E993E10E94761611
:1007F0006AE671E086E897E10E947616C0E001C0E3
:10080000CFEFD2FF0FC061E771E088E993E10E946A
:100810007616CC2339F06BE871E086E897E10E9408
:100820007616C0E0D3FF0FC062E971E088E993E17A
:100830000E947616CC2339F06CEA71E086E897E1E5
:100840000E947616C0E0D4FF0FC063EB71E088E928
:1008500093E10E947616CC2339F06CEC71E086E8C7
:1008600097E10E947616C0E0D6FF0FC063ED71E0FD
:1008700088E993E10E947616CC2339F06BEE71E0A3
:1008800086E897E10E947616C0E0D7FF0FC062EFBE
:1008900071E088E993E10E947616CC2339F06BE091
:1008A00072E086E897E10E947616C0E080E20E943E
:1008B000931385FF0BC062E172E088E993E10E9427
:1008C0007616CC2399F063E272E00AC0CC2371F073
:1008D0006AE272E088E993E10E9476166FE372E0C3
:1008E00086E897E1DF91CF910C947616DF91CF9156
:1008F0000895CF93DF9366E472E088E993E10E9464
:10090000761662E572E086E897E10E9476160E940C
:100910004B15EC0168E572E088E993E10E947616D8
:10092000CE010E945C1542E0682F70E088E993E1F7
:100930000E9477158AE30E949813CE010E946215E7
:1009400042E0682F70E088E993E10E9477158CE21D
:100950000E949813CE010E946B1543E0BC0188E908
:1009600093E10E9477156BE572E088E993E10E94BC
:100970007616CE010E945C1542E0682F70E086E892
:1009800097E10E9477158AE30E948617CE010E94A4
:10099000621542E0682F70E086E897E10E947715C3
:1009A0006EE572E086E897E1DF91CF910C947616C0
:1009B00062E672E088E993E10E9476166BE672E0E7
:1009C00086E897E10E9476166AE772E088E993E18B
:1009D0000E94761681E091D5682F772767FD709584
:1009E00044E088E993E10E94BE1561E872E088E97D
:1009F00093E10E94761682E080D5682F772767FD05
:100A0000709544E088E993E10E94BE156AE872E0BF
:100A100088E993E10E94761683E06FD5682F7727E7
:100A200067FD709544E088E993E10E94BE1563E993
:100A300072E088E993E10C947616CF93DF93D82F78
:100A400075D5DD2329F0853F40F4C82FC65F08C067
:100A50008B3028F0C82FCA5003C0CFEF01C0C0E0D0
:100A60008C2F5ED566E972E088E993E10E947616E4
:100A70006FE972E086E897E10E94761666EA72E016
:100A800088E993E10E94761643E06C2F70E088E9D4
:100A900093E10E9477156EEA72E088E993E10E9483
:100AA000761643E06C2F70E086E897E10E94771598
:100AB00061EB72E086E897E1DF91CF910C947616B6
:100AC000CF9362E080E00E94AA1781E0ECD246E07A
:100AD000BC0186E897E10E94BE1567EB72E086E8EC
:100AE00097E10E94761682E0DED246E0BC0186E8FD
:100AF00097E10E94BE156AEB72E086E897E10E94DA
:100B0000761663E080E00E94AA176DEB72E086E83B
:100B100097E10E94761683E0C6D246E0BC0186E8E3
:100B200097E10E94BE1563EC72E086E897E10E94AF
:100B3000761680E20E943214882319F080E80E9421
:100B4000461480E40E943214882349F10E94A317BE
:100B500080E80E94401480E10E943B14CFE084EFC3
:100B600091E00E94D91680E90E94461461E085E078
:100B70000E94AA1769EC72E086E897E10E94761657
:100B800084EF91E00E94D91680E90E9446140E94E9
:100B9000A317C15021F780E90E944014FFCF809134
:100BA0000802909109028B30910540F080E80E9484
:100BB0004614109209021092080205C00196909303
:100BC00009028093080282E390E0CF910C94D91639
:100BD0009F92AF92BF92CF92DF92EF92FF920F93CC
:100BE0001F93CF93DF93CDB7DEB728970FB6F89456
:100BF000DEBF0FBECDBF912CA12C9AE0B92E86E5A9
:100C00000E9498136A2D772767FD709546E088E962
:100C100093E10E94BE158FE20E949813692D7727F9
:100C200067FD709546E088E993E10E94BE158AE071
:100C30000E9498138DE00E94981383C080910A024D
:100C4000882309F478C0BE016F5F7F4FCE010596FF
:100C5000A3D76B017C0120E030E048EC52E46D81C9
:100C60007E818F8198850E945F1F6D837E838F8335
:100C7000988720E030E048EC52E469817A818B81EA
:100C80009C810E945F1F69837A838B839C8388E5A4
:100C90000E9498138AE30E9498136D817E818F8150
:100CA00098850E94DD2146E088E993E10E94BE1507
:100CB00080E20E94981380E20E94981389E50E94C6
:100CC00098138AE30E94981369817A818B819C81B1
:100CD0000E94DD2146E088E993E10E94BE1580E292
:100CE0000E94981380E20E94981381E40E94981356
:100CF0008AE30E949813C701B6010E94DD2146E0F5
:100D000088E993E10E94BE158AE50E9498138AE360
:100D10000E9498130E944B150E94621544E0682FB0
:100D200070E088E993E10E94BE158AE00E94981362
:100D30008DE00E949813C4DE8EED0E949313811102
:100D40008AD30E94AF13882309F478CF0E94CD1371
:100D5000082F61E080E00E94AA17802F0E9486176A
:100D600080E20E948617093559F1B0F40C3451F134
:100D700060F40734A9F130F4003209F4A9C0023458
:100D8000C1F5F9C00834A9F521C00635E9F00835E8
:100D9000C1F1033571F51CC00C36A1F038F40736EB
:100DA000F9F0083699F0023621F5E5C0063761F012
:100DB00018F40337F1F40CC0083719F10937C9F4F6
:100DC00011E020C013E01EC014E01CC015E01AC0E2
:100DD00081E090910A02911180E080930A020FC095
:100DE00081E090910B02911180E080930B0216E05C
:100DF00009C062ED72E086E897E10E94761610E085
:100E000001C012E0812F8150823008F08CC069C08F
:100E100046E0B70188E993E10E94BE158CE20E948A
:100E2000981306C04DDE8EED0E949313811113D3EB
:100E30000E94AF138823B1F30E94CD13082F0E94A4
:100E400086170B3309F454C0C701B89E7001B99ED0
:100E5000F00C1124043369F178F4013399F138F47A
:100E60000D32A1F10033A1F20032A1F531C00233FD
:100E700031F1033379F520C0073391F028F40533BD
:100E8000A9F0063339F50FC0093321F030F00B33E8
:100E900009F52EC09FEFE91AF90A8FEFE81AF80A50
:100EA0009FEFE91AF90A8FEFE81AF80A9FEFE91A9B
:100EB000F90A8FEFE81AF80A9FEFE91AF90A8FEF9B
:100EC000E81AF80A9FEFE91AF90A0FC0C194A0CFF7
:100ED000A7D651C061EE72E086E897E10E947616CF
:100EE00004C0CC24C394E12CF12C0B3309F090CF37
:100EF00085E6E816F1041CF084E6E82EF12C46E0C5
:100F0000B70188E993E10E94BE158AE00E94981318
:100F10008DE00E949813CE9CE02C1124123011F029
:100F20009E2C01C0AE2C80910B02882309F467CE61
:100F3000692D772767FD7095872F972F0E94852150
:100F400020E030E048EC52E40E943F206B017C013D
:100F50006A2D772767FD7095872F972F0E9485212F
:100F600020E030E048EC52E40E943F20A7019601C7
:100F70000E94111144CE28960FB6F894DEBF0FBE22
:100F8000CDBFDF91CF911F910F91FF90EF90DF9038
:100F9000CF90BF90AF909F9008950E94AF138111A2
:100FA00002C08EDDFACF0E94CD13C82F61E080E031
:100FB0000E94AA178C2F0E94861780E20E94861733
:100FC000C63309F45DC000F5C13309F453C090F491
:100FD000CD3209F43DC040F4CA3299F1CB32B1F1BF
:100FE000C03209F059C055C0CF3269F1C03309F0A1
:100FF00053C04AC0C33389F1B0F1C43309F43DC0D2
:10100000C53309F049C040C0C334C9F048F4C833FF
:1010100039F100F1C93359F1C23409F03DC00BC0B8
:10102000C23649F018F4CA35B9F507C0C33639F0ED
:10103000CA3791F502C0C2DBB0CF5BDCAECFC8DDF2
:10104000ACCF8FEF01C080E0F8DCA7CF44E616C03C
:101050004CE917C04CE964E619C044E66CE916C0D7
:1010600040E064E60FC040E06CE984E610C044E66E
:1010700060E008C04CE960E0F8CF4CE964E6F5CFE9
:1010800044E66CE98CE903C040E060E080E0FAD11E
:1010900001C0E1D18DDC81CF60EF72E086E897E19D
:1010A0000E9476167ACF9FB7F894813029F4209168
:1010B00021023091220210C0823029F420912302B3
:1010C0003091240209C0833029F420912502309107
:1010D000260202C020E030E09FBFC90108959FB7FB
:1010E000F894813029F420912D0230912E0210C005
:1010F000823029F420912F023091300209C08330D0
:1011000029F4209131023091320202C020E030E017
:101110009FBFC9010895CF92DF92FF920F931F9353
:10112000CF93DF93F89461E272E0FB0180819181BB
:1011300047E252E0FA0120813181821B930B2AE0C1
:10114000F22EF89E9001F99E300D112430932E025C
:1011500020932D0223E232E0F90180819181C9E2DE
:10116000D2E0E881F9818E1B9F0BF89EF001F99E79
:10117000F00D1124F0933002E0932F02A5E2B2E0CB
:101180008D919C911197EBE2CE2EE2E0DE2EF601DE
:1011900000811181801B910BF89E8001F99E100D3A
:1011A00011241093320200933102FB01808191815E
:1011B000FA0191838083F9018081918199838883E9
:1011C0008D919C91F601918380837894DF91CF91EA
:1011D0001F910F91FF90DF90CF9008952F923F9233
:1011E0004F925F926F927F928F929F92AF92BF9237
:1011F000CF92DF92EF92FF920F931F93CF93DF93E3
:10120000CDB7DEB762970FB6F894DEBF0FBECDBF85
:101210009C878B877E876D8783E061DF9A838983D4
:1012200082E05DDF9C838B8381E059DF9E838D8329
:1012300029813A81B901882777FD8095982F0E94EE
:1012400085214B015C01DC01CB01B0588F8398876D
:10125000A987BA87AB81BC81BD01882777FD8095BE
:10126000982F0E9485216B017C019B01AC010E949B
:101270000F1F2B013C01C701B601905827ED33EB3E
:101280004DE55FE30E943F208B018A8B998BED81B6
:10129000FE81BF01882777FD8095982F0E948521C8
:1012A0006B017C019B01AC010E940F1F6F87788B43
:1012B0001C0127ED33EB4DE55FE3C701B6010E944A
:1012C0003F206B017C01242D352D462D572D6F813C
:1012D000788589859A850E94DD2081111CC07F85D3
:1012E0006889272F362F422D532D642D752D862D7D
:1012F000972D0E94DD2081110EC08F819885A985D0
:10130000BA85EB85FC8580839183A283B383AA246D
:10131000A394B12C1FC0A5019401642D752D862DB9
:10132000972D0E94351FBF85A8892B2F3A2F422D5C
:10133000532D0E940F1F20E030E040E450E40E9453
:101340003F20AB85BC856D937D938D939C931397C4
:10135000A12CB12C2C2D3D2D4E2D5F2DFA89E98924
:10136000602F712F8F2F9E2F0E94DD20811110C0C2
:101370003A892989802F912FA32FB22FED85FE85E1
:1013800080839183A283B383AA94AB28D1F42AC02B
:101390002C2D3D2D4E2D5F2DFA89E989602F712F5F
:1013A0008F2F9E2F0E940F1F20E030E040E05FE370
:1013B0000E945F1FAD85BE856D937D938D939C9339
:1013C00013976D817E81EB81FC816E0F7F1F2981D8
:1013D0003A81620F731F882777FD8095982F0E94AE
:1013E000852104C060E070E080E090E062960FB676
:1013F000F894DEBF0FBECDBFDF91CF911F910F914B
:10140000FF90EF90DF90CF90BF90AF909F908F9024
:101410007F906F905F904F903F902F9008958FB77F
:10142000F89410922202109221021092240210923B
:101430002302109226021092250210922E02109280
:101440002D021092300210922F021092320210924E
:1014500031028FBF0895E4D38FB7F894109235020C
:10146000109236021092370210923902109238020E
:1014700010923B0210923A0210923D0210923C02EE
:101480008FBF089585361CF48C391CF003C084E6A8
:1014900001C08CE965361CF46C391CF003C064E6AD
:1014A00001C06CE945361CF44C391CF003C044E61D
:1014B00001C04CE99FB7F8948093350260933602DF
:1014C000409337029FBF089565361CF46C391CF0B9
:1014D00003C064E601C06CE9982F9150933060F42A
:1014E000813019F4609335020895823019F46093C5
:1014F00036020895609337020895982F91509330E3
:1015000068F4813019F4809135020895823019F41D
:1015100080913602089580913702089580E0089501
:10152000853608F084E680933E02089580913E025D
:1015300008952091350230913E022303C001112409
:1015400064E670E00E940E24809138029091390286
:1015500068177907A9F09B01281B390B2630310544
:1015600014F0059609C09C01261B370B2630310567
:1015700014F0059701C0CB01909339028093380293
:1015800097FD02C02A9A04C02A98919581959109E5
:10159000F89410928D0080938C00789420913602FC
:1015A00030913E022303C001112464E670E00E94E2
:1015B0000E2480913A0290913B0268177907A9F0B6
:1015C0009B01281B390B2630310514F0059609C004
:1015D0009C01261B370B2630310514F0059701C0FE
:1015E000CB0190933B0280933A0297FD02C02B9867
:1015F00004C02B9A919581959109F89410928B00D3
:1016000080938A0078942091370230913E02230320
:10161000C001112464E670E00E940E2480913C0217
:1016200090913D0268177907A9F09B01281B390B9F
:101630002630310514F0059609C09C01261B370B96
:101640002630310514F0059701C0CB0190933D027F
:1016500080933C0297FD02C02C9A04C02C9891956F
:1016600081959109F894109289008093880078946C
:1016700008952F923F924F925F926F927F928F9236
:101680009F92AF92BF92CF92DF92EF92FF920F9311
:101690001F93CF93DF93CDB7DEB763970FB6F89460
:1016A000DEBF0FBECDBF83E01ADD0AE010E0B80157
:1016B0000E940E247F836E8382E011DDB8010E94B8
:1016C0000E247987688781E00ADDB8010E940E2424
:1016D0007B876A8760914C0270914D0280914E0227
:1016E00090914F0228E939EF4EE85CE30E945F1FBA
:1016F0000E949F246B017C0160914C0270914D020D
:1017000080914E0290914F0228E939EF4EE85CE358
:101710000E945F1F0E94FD244B015C0127ED33EB0B
:101720004DE55FE30E945F1F2B013C0120E030E0AC
:1017300040E05FE3C701B6010E945F1F9B01AC015F
:10174000C301B2010E94351F6983372E8C0120E04E
:1017500030E040E05FE3C501B4010E945F1F2B0150
:101760003C0127ED33EB4DE55FE3C701B6010E9475
:101770005F1F9B01AC01C301B2010E940F1F6B8B65
:101780007A8B8A839C872E813F81B901882777FDD8
:101790008095982F0E9485212B013C0177FA709447
:1017A00077F87094A7019601C301B2010E945F1FF0
:1017B000F62E7B838C83292EA5019401C301B201EF
:1017C0000E945F1F6E877F87888B998BE885F985DC
:1017D000BF01882777FD8095982F0E9485214B01B6
:1017E0005C017981272F332D402F512FC501B40182
:1017F0000E945F1F762EC72ED82EE92EC501B40198
:101800009058BB89AA89BA80AC842B2F3A2F4B2DD4
:101810005A2D0E945F1F6D83472E582E692E2A85F0
:101820003B85B901882777FD8095982F0E948521F7
:101830004B015C017981272F332D402F512FC5019A
:10184000B4010E945F1F69837D878C017B896A894F
:101850009A818C85272F362F492F582FC501B40127
:101860000E945F1F362E7A838B8B9C87272D3C2D01
:101870004D2D5E2DAB81BC806F2D7A2F8B2D922D3F
:101880000E94DD20811135C079816D85272F362F8B
:10189000402F512F672D7C2D8D2D9E2D0E94DD20F8
:1018A000811127C08090440290904502A09046028A
:1018B000B09047022FE632E143E85AE3AB811C8146
:1018C0006F2D7A2F812F922D0E945F1F9B01AC01FB
:1018D000C501B4010E940F1FAB01BC01409344023B
:1018E00050934502609346027093470201E010E076
:1018F00048C08090440290904502A0904602B0906B
:101900004702272D3C2D4D2D5E2DAB818C818A8B7E
:101910006F2D7A2F922D0E940F1FB981AD852B2F2D
:101920003A2F402F512F0E940F1F20E030E040E45B
:1019300050E40E943F202FE632E143E85AE30E9440
:101940005F1F9B01AC01C501B4010E940F1FAB01D9
:10195000BC01409344025093450260934602709349
:101960004702272D3C2D4D2D5E2DAB811C816F2D07
:101970007A2F812F922D0E94DD2081113AC000E044
:1019800010E06A819B898C85232D362F492F582F93
:10199000BD816B2F742D852D962D0E94DD20811128
:1019A00028C0C0904802D0904902E0904A02F090CE
:1019B0004B022FE632E143E85AE3BD816B2F742DD1
:1019C000852D962D0E945F1F9B01AC01C701B601BA
:1019D0000E940F1FAB01BC01409348025093490283
:1019E00060934A0270934B020130110509F4BBC0A9
:1019F0003CC0C0904802D0904902E0904A02F0906A
:101A00004B027D81272F342D452D562DBE85AF8568
:101A1000188909896B2F7A2F812F902F0E940F1F11
:101A2000AA81FB89EC85232D3A2F4F2F5E2F0E9430
:101A30000F1F20E030E040E450E40E943F202FE6FA
:101A400032E143E85AE30E945F1F9B01AC01C701EA
:101A5000B6010E940F1FAB01BC0140934802509396
:101A6000490260934A0270934B02C0904C02D0909E
:101A70004D02E0904E02F0904F026A857B85E8852A
:101A8000F9856E0F7F1F2E813F81620F731F88279C
:101A900077FD8095982F0E94852121EE3AE744E951
:101AA0005EE30E945F1F9B01AC01C701B6010E946B
:101AB0000F1FAB01BC0140934C0250934D02609349
:101AC0004E0270934F0260914C0270914D028091D2
:101AD0004E0290914F0220E030E044E353E40E9434
:101AE00031211816C4F460914C0270914D0280911E
:101AF0004E0290914F0220E030E044EB53E40E940C
:101B0000351FAB01BC0140934C0250934D026093D2
:101B10004E0270934F0260914C0270914D02809181
:101B20004E0290914F0220E030E044E353EC0E94DB
:101B30005B2187FF18C060914C0270914D0280912B
:101B40004E0290914F0220E030E044EB53E40E94BB
:101B50000F1FAB01BC0140934C0250934D026093A8
:101B60004E0270934F0263960FB6F894DEBF0FBE1D
:101B7000CDBFDF91CF911F910F91FF90EF90DF903C
:101B8000CF90BF90AF909F908F907F906F905F901D
:101B90004F903F902F900895FB0140914402509147
:101BA00045026091460270914702DC014D935D93BE
:101BB0006D937C9313978091480290914902A09174
:101BC0004A02B0914B0280839183A283B3838091B8
:101BD0004C0290914D02A0914E02B0914F02682F9D
:101BE000792F8A2F9B2F08958FB7F89410921502A2
:101BF00010921602109217021092180210921902F7
:101C000010921A0210921B0210921C0210921D02D6
:101C100010921E0210921F02109220028FBF089590
:101C20008FB7F894109210021092110210921202C3
:101C3000109214028FBF40E060E080E023CCBF929E
:101C4000CF92DF92EF92FF920F931F93CF93DF9388
:101C5000B82EC62ED42E89E46BD58CE469D5EB2C36
:101C6000FF24E7FCF09446E0B70188E993E186D7CA
:101C700082E55ED50C2D112707FD109546E0B801D1
:101C800088E993E17BD788E453D5CD2DDD27C7FDC7
:101C9000D09546E0BE0188E993E170D78AE048D547
:101CA0008DE046D59701F7FE03C0319521953109A6
:101CB0002115310511F440E001C041E0F80117FFA2
:101CC00003C0F195E195F1092E173F0714F0F901D2
:101CD00001C042E0D7FF03C0D195C195D109EC17EF
:101CE000FD0714F0EF0101C043E0C536D105DCF07B
:101CF0002B2D34E62302C0011124BE010E940E24C4
:101D0000B62E2C2D34E62302C0011124BE010E9400
:101D10000E24C62E2D2D34E62302C0011124BE014F
:101D20000E940E24D62E84E68B1524F02CE9B216E0
:101D300024F005C064E6B62E02C05CE9B52E34E698
:101D40003C1524F08CE9C81624F005C034E6C32EF7
:101D500002C02CE9C22E24E62D1524F03CE9D3164E
:101D600024F005C094E6D92E02C08CE9D82E8FB796
:101D7000F894B0921002C0921102D09212024093D5
:101D800014028FBF8FE4D4D48CE4D2D46B2D772788
:101D900067FD709546E088E993E1F0D682E5C8D406
:101DA0006C2D772767FD709546E088E993E1E6D6CC
:101DB00088E4BED46D2D772767FD709546E088E9ED
:101DC00093E1DCD68DE4B4D446E0BE0188E993E12A
:101DD000D5D68AE0ADD48DE0DF91CF911F910F91E0
:101DE000FF90EF90DF90CF90BF90A2C4982F9150BA
:101DF000933068F4813019F4809110020895823094
:101E000019F480911102089580911202089580E0E2
:101E10000895853608F084E6809313020895809132
:101E2000130208952F923F924F925F926F927F928A
:101E30008F929F92AF92BF92CF92DF92EF92FF92DA
:101E40000F931F93CF93DF9380911402882309F49B
:101E5000D5C18091140243D997FF08C08091140224
:101E60003ED900271127081B190B04C080911402CA
:101E700036D98C01F090100281E031D9EC012F2D80
:101E80002003B001219F700D1124882777FD8095D4
:101E9000982F0E94852120E030E048EC52E40E9417
:101EA0003F206B017C01BE01882777FD8095982F2C
:101EB0000E9485219B01AC01C701B6010E94351F1C
:101EC0003B014C01F090110282E009D9EC014F2D49
:101ED0004003B001419F700D1124882777FD809544
:101EE000982F0E94852120E030E048EC52E40E94C7
:101EF0003F206B017C01BE01882777FD8095982FDC
:101F00000E9485219B01AC01C701B6010E94351FCB
:101F10005B016C01C091120283E0E1D87C015C2F6F
:101F20005003B001519F700D1124882777FD8095D3
:101F3000982F0E94852120E030E048EC52E40E9476
:101F40003F201B012C01B701882777FD8095982F32
:101F50000E9485219B01AC01C201B1010E94351F85
:101F6000D62FC72F8C0160911502709116028091B7
:101F7000170290911802262D372D482D592D0E94B9
:101F80000F1FAB01BC0140931502509316026093E2
:101F90001702709318026091190270911A028091D1
:101FA0001B0290911C022A2D3B2D4C2D5D2D0E9471
:101FB0000F1FAB01BC014093190250931A026093AA
:101FC0001B0270931C0260911D0270911E02809191
:101FD0001F0290912002DE012B2F3A2F402F512F0C
:101FE0000E940F1FAB01BC0140931D0250931E02C3
:101FF00060931F0270932002F0901002209015024F
:102000003090160240901702509018022DEC3CECD4
:102010004CEC5DE3662D772D882D992D0E945F1F76
:102020003B014C012AE037ED43E25CE3C201B10120
:102030000E945F1F9B01AC01C401B3010E940F1FEE
:102040000E94DD21962E9F0C809011024090190273
:1020500050901A0260901B0270901C022DEC3CEC18
:102060004CEC5DE36A2D7B2D8C2D9D2D0E945F1F16
:102070006B017C012AE037ED43E25CE3C301B2016E
:102080000E945F1F9B01AC01C701B6010E940F1F98
:102090000E94DD21B62EB80CA090120240901D02C5
:1020A00050901E0260901F02709020022DEC3CECBC
:1020B0004CEC5DE3DE016B2F7A2F802F912F0E9475
:1020C0005F1F6B017C012AE037ED43E25CE3C30153
:1020D000B2010E945F1F9B01AC01C701B6010E94C3
:1020E0000F1F0E94DD21C62FCA0D292D332727FD82
:1020F000309537FF03C03195219531092115310500
:1021000011F0422F01C040E02B2D332727FD3095E1
:1021100037FF03C0319521953109842F992787FD19
:102120009095821793070CF4422F2C2F332727FD0D
:10213000309537FF03C0319521953109842F9927B8
:1021400087FD9095821793070CF4422F4536F4F0E3
:10215000242F332727FD3095492D54E64502C00131
:102160001124B9010E940E24962E4B2D54E64502EF
:10217000C0011124B9010E940E24B62E44E6C40207
:10218000C0011124B9010E940E24C62FDCD660E0E4
:1021900080E0E0D681E00E946F0846E0BC0186E85E
:1021A00097E1ECD460E088E0D5D682E00E946F0829
:1021B00046E0BC0186E897E1E1D461E084E0CAD65C
:1021C00083E00E946F0846E0BC0186E897E1D6D420
:1021D0004C2F6B2D892DDF91CF911F910F91FF9087
:1021E000EF90DF90CF90BF90AF909F908F907F90B7
:1021F0006F905F904F903F902F9044C9DF91CF91A7
:102200001F910F91FF90EF90DF90CF90BF90AF9014
:102210009F908F907F906F905F904F903F902F9006
:1022200008952F923F924F925F926F927F928F927A
:102230009F92AF92BF92CF92DF92EF92FF920F9355
:102240001F93CF93DF93CDB7DEB727970FB6F894E0
:10225000DEBF0FBECDBF4B015C0169017A0120E0FA
:1022600030E0A9010E94072181110AC020E030E07E
:10227000A901C701B6010E940721882309F413C1EF
:1022800024013501E89477F8D701C601BF77898327
:102290009A83AB83BC839C01AD01C301B2010E9450
:1022A000312118169CF4A3019201C701B6010E94C6
:1022B0003F207B018C01A3019201C501B4010E9462
:1022C0003F20462E572E682E792E16C029813A813E
:1022D0004B815C81C501B4010E943F20462E572EE0
:1022E000682E792E29813A814B815C81C701B60124
:1022F0000E943F207B018C0120E030E040E05FE362
:10230000C301B2010E945F1F5B011C0127ED33EB8B
:102310004DE55FE36E2D7F2D802F912F0E945F1F73
:102320004B018C01762F272F392D402F512F6A2DED
:102330007B2D822D932D0E940F1FC62ED72EE82EA7
:10234000F92E282D392D402F512F6A2D7B2D822DCE
:10235000932D0E94351F862E972EA82EB92E77FA20
:10236000709477F87094A70196015F7760E070E051
:1023700080E89FE30E943F201B018F839E83A5017D
:1023800094015F7760E070E080E89FE30E943F2067
:1023900069837D838C019F818E81222D332D492F6E
:1023A000582FB981AD816B2F7A2F802F912F0E94EA
:1023B0005B2187FF04C029803D800F831E83A3011A
:1023C00092015F7760E070E080E89FE30E943F2029
:1023D00069837D838C019F818E81222D332D492F2E
:1023E000582FB981AD816B2F7A2F802F912F0E94AA
:1023F0005B2187FF04C029803D800F831E839F815E
:102400008E81222D332D492F582FC301B2010E94F6
:102410005F1F20E030E048EC52E40E945F1F0E9402
:10242000DD21162F9F818E81222D332D492F582F8C
:10243000C501B4010E945F1F20E030E048EC52E487
:102440000E945F1F0E94DD21062F9F818E81222D19
:10245000332D492F582FC701B6010E945F1F20E07E
:1024600030E048EC52E40E945F1F0E94DD21862F7D
:10247000412F602F27960FB6F894DEBF0FBECDBF59
:10248000DF91CF911F910F91FF90EF90DF90CF9050
:10249000BF90AF909F908F907F906F905F904F9084
:1024A0003F902F90CCCB27960FB6F894DEBF0FBE8F
:1024B000CDBFDF91CF911F910F91FF90EF90DF90F3
:1024C000CF90BF90AF909F908F907F906F905F90D4
:1024D0004F903F902F90A4CBFF920F931F93CF93D9
:1024E000DF93D82FC62FA82FBB27A7FDB09528E5CF
:1024F00032E00E94F4232FEF30E040E050E00E94F1
:1025000021248B019C0146E0D402C0011124EFEF8D
:10251000F0E0BF010E94FA2377276230710509F4C9
:102520005FC044F46115710581F06130710509F0F7
:10253000F4C02EC06430710509F49BC00CF476C061
:102540006530710509F0E9C0BAC084E6C802E0014F
:102550001124C09FC001C19F900DD09F900D1124E8
:10256000919581959109BF010E94FA23462FCE01D2
:10257000BF010E94FA23F62EA4E6B0E0A01BB10B27
:10258000AC9FC001AD9F900DBC9F900D112493C0D6
:1025900044E6C402E0011124882799278C1B9D0B77
:1025A000BF010E94FA23462FA4E6B0E0A01BB10BA6
:1025B000AC9FC001AD9F900DBC9F900D1124BF0139
:1025C0000E94FA23F62EC09FC001C19F900DD09F9C
:1025D000900D1124BF010E94FA23862F6F2D96C003
:1025E00084E6C802E001112444E650E0401B510B90
:1025F0004C9FC0014D9F900D5C9F900D11249195B3
:1026000081959109BF010E94FA23462FC09FC00106
:10261000C19F900DD09F900D1124919581959109A6
:10262000BF010E94FA23262FCE016BC044E6C402EC
:10263000E0011124C09FC001C19F900DD09F900D5B
:102640001124BF010E94FA23462F882799278C1B4B
:102650009D0BBF010E94FA23F62EA4E6B0E0A01B5A
:10266000B10BAC9FC001AD9F900DBC9F900D11248C
:10267000B1CF84E6C802E0011124CE01BF010E945F
:10268000FA23462FA4E6B0E0A01BB10BAC9FC0011B
:10269000AD9F900DBC9F900D11249195819591094E
:1026A000BF010E94FA23F62EC09FC001C19F900D6A
:1026B000D09F900D11249195819591098BCF44E67F
:1026C000C402E001112444E650E0401B510B4C9F32
:1026D000C0014D9F900D5C9F900D1124BF010E9481
:1026E000FA23462FC09FC001C19F900DD09F900D2F
:1026F0001124BF010E94FA23262F882799278C1BBB
:102700009D0BBF010E94FA23862F622FDF91CF918C
:102710001F910F91FF900C94420ADF91CF911F916E
:102720000F91FF90089596B190959E7F892308950B
:10273000CF93C82F80913F02882311F08C2FC2D7EE
:1027400080914202882311F08C2F37D5809134027A
:10275000882319F08C2FCF91D9C3CF9108959091F0
:102760003302809143029923A1F0882381F00E94D3
:10277000D61B811108C095D521E030E0811105C03C
:1027800020E030E002C021E030E0822F08950C9478
:10279000D61B811186C580E0089590913302809107
:1027A0004302992379F0811102C00FC00000FED7C7
:1027B000882321F076D5811107C007C072D5882300
:1027C000A9F3F8CF882311F005C589C780E00895E3
:1027D000662319F06F5F60934302882319F08F5FBF
:1027E000809333020895662319F06F5F609342026D
:1027F000882319F08F5F80933F02442319F04F5FC5
:1028000040933402089520914302222311F021E0E5
:1028100001C02FEFFB01208320913302222311F00E
:1028200021E001C02FEFFC01208308952091420296
:10283000222311F021E001C02FEFFB012083209122
:102840003F02222311F021E001C02FEFFC01208381
:1028500080913402882311F081E001C08FEFFA01EA
:102860008083089599B190959076892308959BB1BE
:102870009079892308959BB18079892B8BB908952C
:102880009BB18079809589238BB908959BB180791C
:1028900089278BB908951F920F920FB60F921124BA
:1028A0008F939F939CB1892F8695869586958927CE
:1028B00082FF06C08091210290912202019605C0FC
:1028C000809121029091220201979093220280939D
:1028D00021029F918F910F900FBE0F901F9018951E
:1028E0001F920F920FB60F9211248F939F939CB15A
:1028F000892F869586958695892783FF06C08091C6
:10290000250290912602019705C0809125029091A1
:102910002602019690932602809325029F918F9123
:102920000F900FBE0F901F9018951F920F920FB629
:102930000F9211248F939F939CB1892F8695869532
:102940008695892784FF06C08091230290912402F6
:10295000019605C0809123029091240201979093E3
:102960002402809323029F918F910F900FBE0F90AE
:102970001F9018951F920F920FB60F9211240BB64D
:102980000F922F933F934F935F936F937F938F9308
:102990009F93AF93BF93EF93FF93809140029091E9
:1029A00041020196909341028093400280910C0273
:1029B00080FD0EC080910C02816080930C0278949F
:1029C0000E94990AF89480910C028E7F80930C02E9
:1029D00080910D028F5F80930D028A30A0F080916C
:1029E0000C0281FD10C010920D0280910C028260D9
:1029F00080930C0278940E948B08F89480910C02CA
:102A00008D7F80930C0280910E028F5F80930E0267
:102A10008A3098F080910C0282FD0FC010920E0255
:102A200080910C02846080930C027894FBD9F89416
:102A300080910C028B7F80930C0280910F028F5F3C
:102A400080930F028A30A0F080910C0283FD10C0A9
:102A500010920F0280910C02886080930C0278948F
:102A60000E94390BF89480910C02877F80930C02AE
:102A7000FF91EF91BF91AF919F918F917F916F9156
:102A80005F914F913F912F910F900BBE0F900FBE12
:102A90000F901F9018958FB7F894209140023091B5
:102AA00041028FBFC90108952FB7F8949093410256
:102AB000809340022FBF089560E777E10E94FA23D8
:102AC000862F089564E670E00E94FA23CB016CE340
:102AD00070E00C94FA2364E670E00E94FA234AE066
:102AE000489F9001499F300D1124C9010895FF921C
:102AF0000F931F93CF93DF9300D000D0CDB7DEB7F5
:102B00008C01CB01413208F040E250E02AE030E095
:102B1000FF24F394F50EE1E0F0E0EC0FFD1FE50F6C
:102B2000F11DB9010E94FA23805D8083CB010097DB
:102B300011F05F2DEDCFF41638F480E24E83F801EA
:102B400019954E814150F7CFFA94FFEFFF1651F0DF
:102B5000E1E0F0E0EC0FFD1FEF0DF11D8081F801C9
:102B60001995F2CF26960FB6F894DEBF0FBECDBFF3
:102B7000DF91CF911F910F91FF9008950F931F93B5
:102B8000CF93DF9300D0CDB7DEB78C0177FF13C0B2
:102B90007195619571098DE24B8369837A83F801A0
:102BA00019954B8169817A81413218F4442319F0D7
:102BB00001C040E24150C8010F900F900F90DF918B
:102BC000CF911F910F9193CFEF92FF920F931F938D
:102BD000CF93DF931F92CDB7DEB77C018B0147FF08
:102BE00009C0419580E34983F701199588E7F7010A
:102BF00019954981453054F484E090E0841B910993
:102C000047FD9395982F990F990F01C090E0092ED9
:102C100002C0000F111F0A94E2F790319CF4812F3B
:102C200082958F708A3010F4805D01C0895C998331
:102C3000F701199584E0000F111F8A95E1F799813A
:102C40009C5FEBCF0F90DF91CF911F910F91FF9081
:102C5000EF900895CF92DF92FF920F931F93CF933F
:102C6000DF931F92CDB7DEB76C018B0147FF09C020
:102C7000419580E34983F601199582E6F60119959D
:102C80004981413124F420E1F22EF41A01C0F12CE3
:102C90000F2C02C0000F111F0A94E2F7FFE0FF158E
:102CA0005CF017FF02C081E301C080E3F6011995D3
:102CB000000F111FF394F2CF0F90DF91CF911F916E
:102CC0000F91FF90DF90CF9008950F931F93CF93B4
:102CD000DF938C01EB018991882319F0F801199594
:102CE000FACFDF91CF911F910F9108950F931F930A
:102CF000CF93DF93EC01FB0184918B010F5F1F4F9A
:102D0000882321F0FE011995B801F5CFDF91CF910D
:102D10001F910F910895662319F068E573E002C0D2
:102D200062E573E0E3CFFF920F931F93CF93DF939E
:102D3000EC014150FB014F3FB1F084918F010F5FD7
:102D40001F4FFF24FA94F40E811108C0142F112391
:102D500051F080E2FE0119951150F9CFFE0119954D
:102D6000F8014F2DE8CFDF91CF911F910F91FF9088
:102D70000895CF93DF93EC0168E473E0B7DF6CE371
:102D800073E0CE01B3DF69E373E0CE01DF91CF9151
:102D9000ADCFCF93DF93EC016EE073E0A7DF62E08D
:102DA00073E0CE01A3DF6FEF72E0CE01DF91CF9130
:102DB0009DCF009769F020ED37E000000000000093
:102DC00000002150310921153105B9F70197F1CFE4
:102DD00008958A95F1F7089534E3009729F0232F99
:102DE0002A95F1F70197F9CF0895CF93DF93EC017E
:102DF0006FEA73E07BDF63EA73E0CE0177DF60EABE
:102E000073E0CE01DF91CF9171CFCF93DF93EC01CF
:102E100067E773E06BDF4FE06FE673E0CE0183DFBF
:102E20006CE673E0CE0162DF63E673E0CE015EDF45
:102E300060E673E0CE015ADF6DE573E0CE01DF910D
:102E4000CF9154CF81E090E0C7DF149A81E090E009
:102E5000C3DF149881E090E0BFCFCF93DF938091E0
:102E600050028823A1F1169A1598149882B1807F98
:102E700082B981B1807F81B981B1806781B9809148
:102E80005002853010F084E003C0809150028150E0
:102E90008093500281E090E09FDFC4E6DFEF8091F5
:102EA00050028F3F61F0C15051F0149A81E090E0E0
:102EB00093DF039BD09350021498C4DFF0CF169891
:102EC00080915002811103C081B18F7881B9DF9167
:102ED000CF910895CF93C82FC0DF809150028F3FCC
:102EE00099F491B19F6091B922B19C2F92959F70F6
:102EF000207F922B92B9A6DF92B18C2F8F70907F9A
:102F0000892B82B9CF919ECFCF910895CF93C82FAF
:102F1000A4DF809150028F3FA1F4159A91B19F6078
:102F200091B922B19C2F92959F70207F922B92B9DC
:102F300089DF92B18C2F8F70907F892B82B9CF91CE
:102F400081CFCF91089581E0C5CF82E0C3CF837058
:102F50008C60C0CF8F7060FD806461FD806180688F
:102F6000B9CFEF92FF920F931F93CF93DF931F92EE
:102F70001F92CDB7DEB7877028E0829FC001112471
:102F8000806469837A83A6DF6981E62E7A81F72ED1
:102F90008701085F1F4FF70181917F01B7DFE016BE
:102FA000F106C9F70F900F90DF91CF911F910F910C
:102FB000FF90EF9008958FEF809350020895109244
:102FC000500208959091500281E09F3F09F080E007
:102FD0000895CF93DF93EC016CE974E087DE4FE056
:102FE00062E974E0CE019FDE6FE874E0CE017EDE20
:102FF0008091500261E08F3F09F060E0CE018BDEEE
:103000006CE874E0CE0172DE69E874E0CE01DF9115
:10301000CF916CCECF93DF93EC016CE574E066DE6C
:1030200044E16DE474E0CE017EDE6AE474E0CE013A
:103030005DDE68E474E0CE0159DE65E474E0CE0143
:1030400055DE44E165E374E0CE016DDE62E374E0D9
:10305000CE014CDE60E374E0CE0148DE6DE274E048
:10306000CE0144DE44E16CE174E0CE015CDE69E156
:1030700074E0CE013BDE67E174E0CE0137DE64E14F
:1030800074E0CE0133DE44E163E074E0CE014BDE58
:1030900060E074E0CE012ADE6EEF73E0CE0126DE42
:1030A0006BEF73E0CE0122DE44E167EE73E0CE0108
:1030B0003ADE64EE73E0CE0119DE62EE73E0CE011B
:1030C00015DE6FED73E0CE0111DE44E16DEC73E0CF
:1030D000CE0129DE6AEC73E0CE0108DE6EEB73E010
:1030E000CE0104DE6BEB73E0CE0100DE68EB73E033
:1030F000CE01DF91CF91FACD8FEF809350021698D9
:103100001598149882B1807F82B981B1806781B9A6
:1031100081B18F6081B98FE090E04BDE82B1807F1A
:10312000836082B98FDE85E090E043DE8BDE86E946
:1031300090E052DE87DE169881B18F6081B982B14E
:10314000807F826082B97EDE88E2C4DE86E0C2DEF5
:103150008CE0C0DE81E0BECE2FB7F8943091D4026F
:103160009091920239130BC04091C10043FF07C0F8
:103170004091C00045FF03C08093C6001BC0E92FEB
:10318000F0E0EF5AFD4F808381E0890F803410F02A
:1031900081EC890F381303C02FBF80E0089580931E
:1031A00092028091C10083FF05C08091C1008062BE
:1031B0008093C1002FBF8FEF0895CF93C82F8C2F1E
:1031C000CBDF811105C078948091C10083FDF7CFDA
:1031D000CF910895F8949091930280919102981361
:1031E00013C08091C10084FF07C08091C00087FF99
:1031F00003C08091C60015C078948091C10084FFFF
:1032000012C00000F894F8CFE92FF0E0EC56FD4F23
:10321000808121E0290F203410F021EC290F209328
:1032200093027894089580E008959FB7F8942091D0
:10323000930280919102281771F0E22FF0E0EC5692
:10324000FD4F808131E0320F303410F031EC320F1D
:10325000309393020AC08091C10084FF08C080911E
:10326000C00087FF04C08091C6009FBF08959FBF24
:1032700080E008953FB7F8949091D4022091920293
:10328000822F891B291708F4805C8F3F41F09091B1
:10329000C10093FF04C09091C00095FF8F5F3FBFB6
:1032A00008953FB7F8949091930220919102822F54
:1032B000891B291708F4805C8F3F41F09091C10071
:1032C00094FF04C09091C00097FD8F5F3FBF0895A9
:1032D0008FB7F8941092D402109292021092930237
:1032E000109291028FBF0895CF939C01CFB70097A2
:1032F00011F480E01FC0BC017695679580E090E0F6
:10330000605C7D4B804F9F4F40E050E00E94212445
:103310002150310941095109452B59F7C901882725
:10332000907F892B31F7F8943093C5002093C40027
:10333000CFBF8FEFCF9108958FB7F8949091C400CD
:10334000292F9091C500392F8FBF3F702F5F3F4FBE
:10335000B9017695679580E090E0605C7D4B804F89
:103360009F4F40E050E00E942124452B11F4C901F9
:1033700008958FEF9FEF08959FB7F8948091C10053
:1033800088608093C1008091C10080618093C100FA
:10339000209192028091D402281729F08091C100D7
:1033A00080628093C1008091C10080688093C100D9
:1033B0009FBF08951092D40210929202109293022D
:1033C000109291021092C0001092C1008EE0809382
:1033D000C20080E091EE88DFCFCF9FB7F894E1EC98
:1033E000F0E08081877F808380818F7E80838081F1
:1033F0008F7D808380818F7780839FBF0895909198
:10340000C100987181E0983109F080E081950895BC
:103410000F931F93CF93DF93EC0161EA75E066DCB5
:103420004FE067E975E0CE017EDC64E975E0CE012E
:103430005DDCE5DF682FCE016EDC61E975E0CE0171
:1034400055DC8FB7F8949091C400692F9091C50016
:10345000792F8FBF8B011F704FE069E875E0CE01B7
:1034600062DC66E875E0CE0141DC45E0B801CE01E2
:103470003EDB63E875E0CE0139DC4FE06CE775E0D8
:10348000CE0151DC69E775E0CE0130DC55DF45E067
:10349000BC01CE012CDB66E775E0CE0127DC4FE0F6
:1034A00061E775E0CE013FDC6EE675E0CE011EDC23
:1034B000E1DE682F70E041E0CE0119DB6BE675E0DC
:1034C000CE0114DC4FE066E675E0CE012CDC63E64D
:1034D00075E0CE010BDCE5DE682F70E041E0CE0147
:1034E00006DB60E675E0CE0101DC6DE575E0CE013E
:1034F000DF91CF911F910F91F9CBCF93DF93EC0127
:1035000064E375E0F3DB60E075E0CE01EFDB4FE0F4
:103510006AEF74E0CE0107DC67EF74E0CE01E6DB12
:103520006CEE74E0CE01E2DB69EE74E0CE01DEDB2E
:103530004FE061EE74E0CE01F6DB6EED74E0CE019B
:10354000D5DB65ED74E0CE01D1DB62ED74E0CE0138
:10355000CDDB4FE067EC74E0CE01E5DB64EC74E0BA
:10356000CE01C4DB61EC74E0CE01C0DB6EEB74E035
:10357000CE01BCDB4FE063EB74E0CE01D4DB60EB4B
:1035800074E0CE01B3DB6DEA74E0CE01AFDB6AEA32
:1035900074E0CE01ABDB67EA74E0CE01DF91CF913E
:1035A000A5CB1F920F920FB60F9211240BB60F925C
:1035B0002F938F939F93EF93FF939091D402209139
:1035C0009202921789F0E92FF0E0EF5AFD4F8081C7
:1035D0008093C60081E0890F803410F081EC890F60
:1035E0008093D402821305C08091C1008F7D8093A7
:1035F000C100FF91EF919F918F912F910F900BBE82
:103600000F900FBE0F901F9018951F920F920FB63C
:103610000F9211240BB60F922F938F939F93EF93DA
:10362000FF932091930290919102E92FF0E0809115
:10363000C600EC56FD4F808381E0890F803410F086
:1036400081EC890F281380939102FF91EF919F9154
:103650008F912F910F900BBE0F900FBE0F901F9068
:1036600018952FB7F89430911803909117033913D8
:103670000BC04091C90043FF07C04091C80045FFFF
:1036800003C08093CE001BC0E92FF0E0E75EFC4F43
:10369000808381E0890F803410F081EC890F38132A
:1036A00003C02FBF80E00895809317038091C90065
:1036B00083FF05C08091C90080628093C9002FBF3D
:1036C0008FEF0895CF93C82F8C2FCBDF811105C0CA
:1036D00078948091C90083FDF7CFCF910895F89435
:1036E000909116038091D502981313C08091C90060
:1036F00084FF07C08091C80087FF03C08091CE007F
:1037000015C078948091C90084FF12C00000F8941D
:10371000F8CFE92FF0E0EA52FD4F808121E0290F38
:10372000203410F021EC290F20931603789408958B
:1037300080E008959FB7F894209116038091D502F8
:10374000281771F0E22FF0E0EA52FD4F808131E05E
:10375000320F303410F031EC320F309316030AC0C0
:103760008091C90084FF08C08091C80087FF04C011
:103770008091CE009FBF08959FBF80E008953FB71E
:10378000F8949091180320911703822F891B291711
:1037900008F4805C8F3F41F09091C90093FF04C012
:1037A0009091C80095FF8F5F3FBF08953FB7F89491
:1037B000909116032091D502822F891B291708F4B6
:1037C000805C8F3F41F09091C90094FF04C09091BC
:1037D000C80097FD8F5F3FBF08958FB7F894109290
:1037E000180310921703109216031092D5028FBF80
:1037F0000895CF939C01CFB7009711F480E01FC0CC
:10380000BC017695679580E090E0605C7D4B804FD1
:103810009F4F40E050E00E9421242150310941098E
:103820005109452B59F7C9018827907F892B31F71A
:10383000F8943093CD002093CC00CFBF8FEFCF9181
:1038400008958FB7F8949091CC00292F9091CD00D6
:10385000392F8FBF3F702F5F3F4FB9017695679526
:1038600080E090E0605C7D4B804F9F4F40E050E0F7
:10387000E8D7452B11F4C90108958FEF9FEF089504
:103880009FB7F8948091C90088608093C9008091A7
:10389000C90080618093C9002091170380911803AB
:1038A000281729F08091C90080628093C900809117
:1038B000C90080688093C9009FBF089510921803C3
:1038C00010921703109216031092D5021092C8009E
:1038D0001092C9008EE08093CA0080E091EE89DFEB
:1038E000CFCF9FB7F894E9ECF0E08081877F8083A9
:1038F00080818F7E808380818F7D808380818F77A0
:1039000080839FBF08959091C900987181E098319C
:1039100009F080E0819508950F931F93CF93DF9373
:10392000EC0164EA76E0E2D94FE06AE976E0CE01A4
:10393000FAD967E976E0CE01D9D9E5DF682FCE0163
:10394000EAD964E976E0CE01D1D98FB7F8949091A5
:10395000CC00692F9091CD00792F8FBF8B011F7004
:103960004FE06CE876E0CE01DED969E876E0CE0182
:10397000BDD945E0B801CE01BAD866E876E0CE01FF
:10398000B5D94FE06FE776E0CE01CDD96CE776E0B0
:10399000CE01ACD956DF45E0BC01CE01A8D869E71D
:1039A00076E0CE01A3D94FE064E776E0CE01BBD943
:1039B00061E776E0CE019AD9E2DE682F70E041E05F
:1039C000CE0195D86EE676E0CE0190D94FE069E65B
:1039D00076E0CE01A8D966E676E0CE0187D9E6DEAC
:1039E000682F70E041E0CE0182D863E676E0CE0138
:1039F0007DD960E676E0CE01DF91CF911F910F91E6
:103A000075C9CF93DF93EC0167E376E06FD963E08C
:103A100076E0CE016BD94FE06DEF75E0CE0183D932
:103A20006AEF75E0CE0162D96FEE75E0CE015ED926
:103A30006CEE75E0CE015AD94FE064EE75E0CE0130
:103A400072D961EE75E0CE0151D968ED75E0CE0115
:103A50004DD965ED75E0CE0149D94FE06AEC75E0CE
:103A6000CE0161D967EC75E0CE0140D964EC75E018
:103A7000CE013CD961EC75E0CE0138D94FE066EB60
:103A800075E0CE0150D963EB75E0CE012FD960EB24
:103A900075E0CE012BD96DEA75E0CE0127D96AEA2F
:103AA00075E0CE01DF91CF9121C91F920F920FB621
:103AB0000F9211240BB60F922F938F939F93EF9336
:103AC000FF939091180320911703921789F0E92F23
:103AD000F0E0E75EFC4F80818093CE0081E0890FAB
:103AE000803410F081EC890F80931803821305C095
:103AF0008091C9008F7D8093C900FF91EF919F91C4
:103B00008F912F910F900BBE0F900FBE0F901F90B3
:103B100018951F920F920FB60F9211240BB60F92A9
:103B20002F938F939F93EF93FF9320911603909180
:103B3000D502E92FF0E08091CE00EA52FD4F80835C
:103B400081E0890F803410F081EC890F2813809375
:103B5000D502FF91EF919F918F912F910F900BBE06
:103B60000F900FBE0F901F901895A4E0B0E0EAEB05
:103B7000FDE197C67C016A01FC018081823008F476
:103B80004AC1FB019081923008F442C1843079F43B
:103B9000943009F040C1F7019181FB0181819817B0
:103BA00009F439C1A0E0EA2EA2E0FA2E34C1943023
:103BB00009F42EC1923091F4823009F02CC188E0D2
:103BC000F701DA0101900D928A95E1F7FB018181FD
:103BD000F70191818923FA0181831CC1823009F4A4
:103BE00017C1F70182819381FB01A281B381F701A3
:103BF0000481158126813781FB0184809580A68010
:103C0000B780FC01EA1BFB0BAF01F7FF04C04427A0
:103C100055274E1B5F0B403251050CF074C01E1629
:103C20001F06B4F524013501042E04C07694679470
:103C3000579447940A94D2F749825A826B827C82C5
:103C4000412C512C3201439404C0440C551C661C79
:103C5000771C4A95D2F741E0441A5108610871086F
:103C6000482059206A207B20812C912C5401839478
:103C700045284628472819F4812C912C5401498065
:103C80005A806B807C8084289528A628B72846C057
:103C9000EF2B09F443C0840F951F28013901042E2E
:103CA00004C076946794579447940A94D2F7498253
:103CB0005A826B827C82412C512C3201439404C085
:103CC000440C551C661C771C4A95D2F741E0441AF7
:103CD000510861087108402251226222732201E0DA
:103CE00010E020E030E045284628472819F400E09D
:103CF00010E0980149805A806B807C800429152946
:103D0000262937290BC0A817B90724F4812C912C38
:103D1000540104C0CD0100E010E09801F701418199
:103D2000FB015181451709F446C0442349F02401A1
:103D30003501401A510A620A730A9301820104C0D4
:103D4000081919092A093B0937FD05C0F601118236
:103D5000938382830CC041E0F60141839383828385
:103D600030952095109501951F4F2F4F3F4F04839D
:103D70001583268337830EC0880F991FAA1FBB1F88
:103D8000F60184839583A683B7838281938101970B
:103D900093838283F60184819581A681B781AC01EA
:103DA000BD0141505109610971094F3F5F4F6F4F8C
:103DB0007F4310F30CC0F601418393838283080D87
:103DC000191D2A1D3B1D048315832683378383E039
:103DD000F6018083448155816681778177FF1AC01F
:103DE000DB01CA0181709927AA27BB2776956795C1
:103DF00057954795842B952BA62BB72B84839583BA
:103E0000A683B7838281938101969383828302C0C4
:103E10007B0101C07601C7012496E0E15EC5A0E206
:103E2000B0E0E4E1FFE14BC56D8F7E8F8F8F98A3EB
:103E3000298F3A8F4B8F5C8FBE016F5E7F4FCE0113
:103E40004D96D1D3BE01675F7F4FCE014996CBD34C
:103E5000AE014F5F5F4FBE01675F7F4FCE0141965E
:103E600084DEF7D2A096E2E046C5A0E2B0E0EAE345
:103E7000FFE125C56D8F7E8F8F8F98A3298F3A8F95
:103E80004B8F5C8FBE016F5E7F4FCE014D96ABD3E3
:103E9000BE01675F7F4FCE014996A5D38A8591E029
:103EA00089278A87AE014F5F5F4FBE01675F7F4FF3
:103EB000CE0141965ADECDD2A096E2E01CC5A0E22A
:103EC000B0E0E4E6FFE1EDC46D8F7E8F8F8F98A3A5
:103ED000298F3A8F4B8F5C8FBE016F5E7F4FCE0173
:103EE0004D9681D3BE01675F7F4FCE0149967BD34C
:103EF0009989923008F412C08985823008F41AC07A
:103F0000943021F4823009F4B4C008C0843021F424
:103F1000923009F4AEC00EC0923051F481E02A898B
:103F20009A85291301C080E08A8BCE014196A3C0F7
:103F3000823051F481E02A899A85291301C080E0FA
:103F40008A87CE01099697C08D889E88AF88B88CE5
:103F50000D851E852F853889E0E2F0E080E090E055
:103F6000DC01C12CD12C760140E050E0BA0180FE8A
:103F700018C0400F511F621F731F8C0D9D1DAE1D79
:103F8000BF1D412C512C3201439440175107620749
:103F9000730718F0412C512C3201840D951DA61D7C
:103FA000B71DCC0CDD1CEE1CFF1C37FF02C0689453
:103FB000C0F8000F111F221F331FB694A7949794C7
:103FC00087943197A1F62B893C89EB85FC852E0FD0
:103FD0003F1F2E5F3F4F3C832B8321E0EA893A85C8
:103FE000E31301C020E02A83EB81FC810CC080FF39
:103FF00005C076956795579547957068B695A795CE
:10400000979587953196B7FDF2CF9F010CC0880F29
:10401000991FAA1FBB1F77FD8160440F551F661FA4
:10402000771F215031090097A105E0E4BE0778F31E
:104030002B833C838C019D010F7711272227332787
:10404000003411052105310559F487FD09C0452BC0
:10405000462B472B29F0805C9F4FAF4FBF4F807896
:104060008D839E83AF83B88783E08983CE010196D9
:1040700002C080E092E0EDD1A096E0E12EC4A8E17C
:10408000B0E0E4E4F0E215C46D8B7E8B8F8B988FEB
:10409000298B3A8B4B8B5C8BBE01675F7F4FCE01C8
:1040A0004596A1D2BE016F5F7F4FCE0141969BD254
:1040B0009985923008F475C08981823008F474C003
:1040C0002A853A8123272A87943011F0923019F4F7
:1040D000981367C06CC0843039F41D861E861F8615
:1040E000188A1C861B8604C0823029F484E08987E4
:1040F000CE0109965EC08B859C852B813C81821BFD
:10410000930B9C878B874D855E856F857889CD80E5
:10411000DE80EF80F8844C155D056E057F0538F470
:10412000440F551F661F771F01979C878B87EFE110
:10413000F0E000E010E020E030E480E090E0DC011E
:104140004C155D056E057F0540F0802B912BA22B51
:10415000B32B4C195D096E097F0936952795179584
:104160000795440F551F661F771F319749F78C013C
:104170009D010F77112722273327003411052105D0
:10418000310559F487FD09C0452B462B472B29F0F3
:10419000805C9F4FAF4FBF4F80788D879E87AF87E2
:1041A000B88BCE01099605C0CE01019602C080E011
:1041B00092E04FD16896E8E098C3A8E1B0E0E2EE63
:1041C000F0E27DC36D8B7E8B8F8B988F298B3A8B22
:1041D0004B8B5C8BBE01675F7F4FCE01459603D250
:1041E000BE016F5F7F4FCE014196FDD18985823040
:1041F00050F08981823038F0BE016F5F7F4FCE0171
:10420000099660D201C081E06896E2E074C3A8E13B
:10421000B0E0ECE0F1E253C36D8B7E8B8F8B988F17
:10422000298B3A8B4B8B5C8BBE01675F7F4FCE0136
:104230004596D9D1BE016F5F7F4FCE014196D3D154
:104240008985823050F08981823038F0BE016F5FFD
:104250007F4FCE01099636D201C081E06896E2E038
:104260004AC3A8E1B0E0E6E3F1E229C36D8B7E8B9F
:104270008F8B988F298B3A8B4B8B5C8BBE01675F42
:104280007F4FCE014596AFD1BE016F5F7F4FCE010C
:104290004196A9D18985823050F08981823038F0E9
:1042A000BE016F5F7F4FCE0109960CD201C08FEF28
:1042B0006896E2E020C3A8E1B0E0E0E6F1E2FFC2E8
:1042C0006D8B7E8B8F8B988F298B3A8B4B8B5C8B76
:1042D000BE01675F7F4FCE01459685D1BE016F5FFE
:1042E0007F4FCE0141967FD18985823050F0898100
:1042F000823038F0BE016F5F7F4FCE010996E2D168
:1043000001C081E06896E2E0F6C2A8E0B0E0EAE829
:10431000F1E2D3C223E029838B019C01002737FD02
:104320000395112722273327402F0A836115710532
:104330008105910519F482E0898334C02EE130E0D3
:104340003C832B83442371F061157105810520E8BE
:10435000920761F1002711279801061B170B280B04
:10436000390B02C08B019C01C901B801CFD2019762
:10437000181619062CF00D831E832F83388712C060
:10438000082E04C0000F111F221F331F0A94D2F7FA
:104390000D831E832F8338872EE130E0281B390BD5
:1043A0003C832B83CE01019654D004C060E070E0C2
:1043B00080E09FEC2896E4E09CC2ACE0B0E0E2EE46
:1043C000F1E27BC269877A878B879C87BE016F5F2A
:1043D0007F4FCE01099607D18981823091F18230D9
:1043E00080F1843041F48A81882331F100E010E0CB
:1043F00020E030E829C02B813C8137FD22C02F31DD
:1044000031058CF78EE190E0821B930B0D811E81AC
:104410002F81388504C036952795179507958A957D
:10442000D2F78A81882381F03095209510950195E7
:104430001F4F2F4F3F4F08C00FEF1FEF2FEF3FE7EA
:1044400003C000E010E09801B801C9012C96E4E037
:1044500050C20F931F93CF93DF93DC0114964D91BD
:104460005D916D917C9117971196EC9111978C91BC
:10447000823020F460618FEF90E0A6C0843009F4B0
:104480009EC0823009F495C0411551056105710542
:1044900009F492C012962D913C91139722388FEF18
:1044A00038070CF058C0C2E8DFEFC21BD30BCA318B
:1044B000D1056CF58A019B010C2E04C03695279519
:1044C000179507950A94D2F781E090E0A0E0B0E05C
:1044D0000C2E04C0880F991FAA1FBB1F0A94D2F785
:1044E0000197A109B10984239523A623B72341E0AD
:1044F00050E060E070E0892B8A2B8B2B19F440E0B0
:1045000050E0BA01402B512B622B732B03C040E0CB
:1045100050E0BA01DB01CA018F779927AA27BB2790
:1045200080349105A105B10539F447FF09C0405C0D
:104530005F4F6F4F7F4F04C0415C5F4F6F4F7F4FA6
:1045400081E090E041155105610520E4720748F5CE
:1045500080E090E026C0203831058CF5DB01CA01EF
:104560008F779927AA27BB2780349105A105B1052C
:1045700039F447FF09C0405C5F4F6F4F7F4F04C065
:10458000415C5F4F6F4F7F4F77FD04C0C901815879
:104590009F4F07C07695679557954795C9018058F5
:1045A0009F4F97E076956795579547959A95D1F7E0
:1045B0000BC080E090E005C080E090E005C08FEF88
:1045C00090E040E050E0BA01982F9695E0FB97F913
:1045D000362F80FB37F9642F752F832FDF91CF9112
:1045E0001F910F910895CF92DF92EF92DC01FB01B2
:1045F000CC901196DC90119712968C9112973FE710
:10460000E32EE8226E2DA60170E0982F991F9927BE
:10461000991F13962C91822F880F892B90E027FBEE
:10462000222720F92183009729F5411551056105BD
:10463000710511F482E027C082E89FEF93838283A3
:1046400027E0440F551F661F771F2A95D1F783E097
:10465000808309C0440F551F661F771F8281938195
:1046600001979383828341155105610580E47807A2
:1046700088F320C08F3F910579F4411551056105FC
:10468000710519F484E0808319C0E4FE03C081E061
:10469000808310C010820EC08F579109938382834C
:1046A00083E0808387E0440F551F661F771F8A953C
:1046B000D1F770644483558366837783EF90DF90EE
:1046C000CF900895CF93FC01DB019081923008F4E4
:1046D00052C08C91823008F44EC0943071F4843012
:1046E00039F411962C9130E08181281B310948C0A2
:1046F0008181882309F43FC03BC0843029F411969E
:104700008C91811138C034C0923019F48230B9F7DD
:1047100035C0823069F3C18111968C911197C8130D
:104720001DC02281338112968D919C91139782171F
:1047300093070CF413C0281739070CF417C04481F1
:1047400055816681778114968D919D910D90BC91D4
:10475000A02D84179507A607B70718F4C11108C044
:104760000AC0481759076A077B0740F4C11103C004
:104770002FEF3FEF05C021E030E002C020E030E045
:10478000C901CF910895F8940E947C180E94DA190B
:1047900095D878940E94C80378946AEE70E088E90E
:1047A00093E10E9476166DEE70E088E993E10E9435
:1047B000761661E071E088E993E10E94761667E180
:1047C00071E086E897E10E94761661E080E00E9441
:1047D000AA1768E271E086E897E10E9476160E94C7
:1047E000CD0780E090E008954ED0B7FF0895821B7A
:1047F000930B0895AA1BBB1B51E107C0AA1FBB1F47
:10480000A617B70710F0A61BB70B881F991F5A955C
:10481000A9F780959095BC01CD01089597FB072ECF
:1048200016F4009406D077FD08D0E4DF07FC05D02D
:104830003EF4909581959F4F0895709561957F4FB7
:104840000895A1E21A2EAA1BBB1BFD010DC0AA1FD1
:10485000BB1FEE1FFF1FA217B307E407F50720F0E9
:10486000A21BB30BE40BF50B661F771F881F991F64
:104870001A9469F760957095809590959B01AC01AD
:10488000BD01CF010895A29FB001B39FC001A39FB6
:1048900001D0B29F700D811D1124911D08952F929A
:1048A0003F924F925F926F927F928F929F92AF92C0
:1048B000BF92CF92DF92EF92FF920F931F93CF930D
:1048C000DF93CDB7DEB7CA1BDB0B0FB6F894DEBFA4
:1048D0000FBECDBF19942A88398848885F846E84BA
:1048E0007D848C849B84AA84B984C884DF80EE8014
:1048F000FD800C811B81AA81B981CE0FD11D0FB61D
:10490000F894DEBF0FBECDBFED01089506D084FF41
:104910000895CB0102D0805F0895AA27992329F436
:10492000A85F982B11F480E10895903118F4AD5FE1
:104930009295A395990FE8F78A2F9927089503D0A8
:10494000E39528C0D4C03FD0E8F3E894E0E0BB276B
:104950009F57F0F02AED3FE049EC06C0EE0FBB0F89
:10496000661F771F881F28F0B23A62077307840713
:1049700028F0B25A620B730B840BE3959A9572F789
:10498000803830F49A95BB0F661F771F881FD2F7C7
:104990009048A1C0EF93E0FF06C0A2EA2AED3FE0F5
:1049A00049EC5FEB3DD0C5D00F90039401FC9058CB
:1049B000ECECF0E09FC057FD9058440F551F59F0A4
:1049C0005F3F71F04795880F97FB991F61F09F3FFC
:1049D00079F087950895121613061406551FF2CF25
:1049E0004695F1DF08C0161617061806991FF1CF75
:1049F000869571056105089408959F93A4DF0F9033
:104A000007FCEE5FC7CF87D030F08CD020F031F4B8
:104A10009F3F11F41EF46BC00EF4E095E7FB53C00A
:104A2000E92FC9DF80F3BA17620773078407950778
:104A300018F071F49EF58EC00EF4E0950B2EBA2F8F
:104A4000A02D0B01B90190010C01CA01A001112494
:104A5000FF27591B99F0593F50F4503E68F11A1640
:104A6000F040A22F232F342F4427585FF3CF4695D1
:104A700037952795A795F0405395C9F77EF41F16F3
:104A8000BA0B620B730B840BBAF09150A1F0FF0FBD
:104A9000BB1F661F771F881FC2F70EC0BA0F621FA9
:104AA000731F841F48F4879577956795B795F79599
:104AB0009E3F08F0B3CF9395880F08F09927EE0F2B
:104AC00097958795089597F99F6780E870E060E073
:104AD00008959F3F31F0915020F487957795679521
:104AE000B795880F911D9695879597F908959FEF33
:104AF00080EC08959F938F937F936F93FF93EF9331
:104B00009B01AC01DCD9EF91FF912BD02F913F910C
:104B10004F915F91D4C900240A94161617061806FF
:104B20000906089500240A941216130614060506B1
:104B30000895092E0394000C11F4882352F0BB0F42
:104B400040F4BF2B11F460FF04C06F5F7F4F8F4FA5
:104B50009F4F0895E894BB2766277727CB0197F9E5
:104B60000895DF93CF931F930F93FF92EF92DF92FD
:104B70007B018C01689405C0DA2EEF0121D0FE0183
:104B8000E894A5912591359145915591AEF3EF01AA
:104B900047DFFE019701A801DA9479F7DF90EF90E3
:104BA000FF900F911F91CF91DF910895B4DF28F00E
:104BB000B9DF18F0952309F086CF99CF1124CBCF18
:104BC000FADEA0F3959FD1F3950F50E0551F629F39
:104BD000F001729FBB27F00DB11D639FAA27F00D56
:104BE000B11DAA1F649F6627B00DA11D661F829F7D
:104BF0002227B00DA11D621F739FB00DA11D621F62
:104C0000839FA00D611D221F749F3327A00D611D7E
:104C1000231F849F600D211D822F762F6A2F112460
:104C20009F5750408AF0E1F088234AF0EE0FFF1FB3
:104C3000BB1F661F771F881F91505040A9F79E3FEA
:104C4000510570F040CF87CF5F3FECF3983EDCF327
:104C5000869577956795B795F795E7959F5FC1F727
:104C6000FE2B880F911D9695879597F90895F894D6
:024C7000FFCF74
:084C720000000000000000003A
:00000001FF
