:1000000073C3000085C3000083C3000081C30000E8
:100010007FC300007DC300000C9475130C949A13E9
:100020000C94BF1375C3000073C3000071C30000BC
:100030006FC300000C94E4136BC3000069C300009D
:1000400067C3000065C3000063C3000061C3000014
:100050005FC300005DC300005BC3000059C3000024
:1000600057C300000C944A1A0C94161A51C300008E
:100070004FC300004DC300004BC3000049C3000044
:1000800047C3000045C3000043C3000041C3000054
:100090000C94E51C0C94B11C3BC3000039C3000058
:1000A00037C3000035C3000033C3000031C3000074
:1000B0002FC300002DC300002BC3000029C3000084
:1000C00027C3000025C3000023C300002E077F07BD
:1000D0007F077F077F077F077F077F077F077F07F0
:1000E0007F077F077F077D077F077F074B0748074D
:1000F000450742073F073C073907360733073007F4
:1001000005A84CCDB2D44EB93836A9020C50B991DD
:100110008688083CA6AAAA2ABE000000803F2020AC
:100120005761727465202020202020202020004F5D
:100130006D6E69776865656C202D20586265650075
:100140003D3D3D3D3D3D3D3D3D3D3D3D3D3D3D3DDF
:100150003D0A0D0A0D004F6D6E69776865656C206C
:10016000526F626F7465720A0D000A0D004572725B
:100170006F72202020202020202020004572726FE6
:1001800072202020202020202020004572726F72D3
:100190002020202020202020200053687574646FC8
:1001A000776E00202020202000202020202000200A
:1001B00020002020002020202020000A0D002020E8
:1001C0006D61783D2000706F7765722000706F77E9
:1001D00065723A0D0A000D0A000A0D20206D683D77
:1001E00020000A0D20206D723D200020206D6C3D06
:1001F00020006D6F746F722020202020202020208E
:10020000006D6F746F723A0D0A00202020000D0AF5
:10021000002020005A65697420007A202D205A653C
:1002200069743A0D0A006E69636874730020204E89
:10023000696368747320676564727565636B740DB8
:100240000A0062616C6C203500202042616C6C20D9
:10025000284269742035290D0A006C6972652037BF
:100260000020206C696E6B73207265636874732064
:10027000284269742037290D0A006C696C692036A0
:100280000020206C696E6B73206C696E6B73202884
:100290004269742036290D0A0072656C69203400A9
:1002A0002020726563687473206C696E6B732028FC
:1002B0004269742034290D0A00726572652033008A
:1002C000202072656368747320726563687473209C
:1002D000284269742033290D0A006869726520324A
:1002E00000202068696E74656E207265636874739F
:1002F00020284269742032290D0A0068696C69203F
:100300003100202068696E74656E206C696E6B73B5
:1003100020284269742031290D0A0042756D7065EC
:100320007273200062202D2042756D706572733AE1
:100330000D0A000D0A0020205B656D7074795D0D5B
:100340000A00726F626F6C69622F737472696E67F4
:100350002F737472696E672E632030352E31302E04
:10036000323031352056312E312E300D0A000D0A33
:100370000020205B656D7074795D0D0A00737472E6
:10038000696E673A0D0A0066616C73650074727578
:1003900065000D0A000D0A00313630303030303043
:1003A000003A20002020465F43505500726F626F74
:1003B0006C69622F64656C61792F64656C61792E5C
:1003C000632032372E30392E323031352056312EDF
:1003D000302E300D0A000D0A0020205B656D707410
:1003E000795D0D0A0064656C61793A0D0A000D0AA9
:1003F000000D0A005B756E646566696E65645D007C
:100400003A20002020444953504C41595F44415404
:10041000415F4849000D0A0041003A200020204475
:100420004953504C41595F444154415F504F5254DD
:10043000000D0A0036003A20002020444953504C59
:1004400041595F50494E5F5257000D0A0035003A3E
:1004500020002020444953504C41595F50494E5F81
:100460005253000D0A0034003A2000202044495322
:10047000504C41595F50494E5F45000D0A00410004
:100480003A20002020444953504C41595F504F526C
:100490005400726F626F6C69622F646973706C6173
:1004A000792F646973706C61792E632032372E3036
:1004B000392E323031352056312E302E300D0A0093
:1004C0000D0A000D0A003A20002020656E61626C62
:1004D000656400646973706C61793A0D0A000D0AF5
:1004E000000D0A003634003A2000202055415254B5
:1004F000305F5458000D0A003634003A20002020A6
:1005000055415254305F5258000D0A003136303098
:1005100030303030003A20002020465F43505500F4
:100520000D0A0061746D65676132353631003A201D
:100530000020204D435500726F626F6C69622F7509
:10054000617274302F75617274305F61746D6567AC
:1005500061323536312E632032372E30392E32302B
:1005600031352056312E302E300D0A00726F626FF9
:100570006C69622F75617274302F75617274302EE0
:10058000632032392E31302E323031372056312E21
:10059000302E330D0A000D0A000D0A003A2000200B
:1005A000207278000D0A003A200020207478000D97
:1005B0000A003A2000202062617564000D0A003AAA
:1005C000200020205542525230000D0A003A2000EF
:1005D0002020656E61626C65640075617274303AEA
:1005E0000D0A000D0A000D0A003634003A200020E2
:1005F0002055415254315F5458000D0A00363400E2
:100600003A2000202055415254315F5258000D0AC3
:10061000003136303030303030003A200020204673
:100620005F435055000D0A0061746D656761323596
:100630003631003A200020204D435500726F626F22
:100640006C69622F75617274312F75617274315FDC
:1006500061746D656761323536312E632032372E15
:1006600030392E323031352056312E302E300D0AB1
:1006700000726F626F6C69622F75617274312F75D1
:10068000617274312E632032392E31302E32303186
:10069000372056312E302E320D0A000D0A000D0A79
:1006A000003A200020207278000D0A003A20002035
:1006B000207478000D0A003A2000202062617564E1
:1006C000000D0A003A200020205542525231000D00
:1006D0000A003A20002020656E61626C6564007536
:1006E000617274313A0D0A0011241FBECFEFD1E2BE
:1006F000DEBFCDBF00E00CBF23E0A0E0B2E001C050
:100700001D92A135B207E1F70E94111D0C94412002
:1007100077CC82E08093B00097E09093B1009BE9A2
:100720009093B300809370000895CF93DF930E945D
:10073000B51182E30E940F121092870084E6809325
:100740008600C0E8D0E0188284E180938100109296
:1007500085001092840010928900109288001092F7
:100760008B0010928A0010928D0010928C008AE00B
:1007700090E00E940A168881886A8883DF91CF9171
:10078000089538D684E62BD723C610D61DBA84E543
:1007900080936A0080EE8CBB8DBB089561E081E0A0
:1007A0000E940D134FEF61E081E00C9418138CEF61
:1007B00084B915B817B88EEF88B989E98AB980E687
:1007C0008BB981E08DB91EB810BA11BA13BA14BA38
:1007D000ACDFD7DFDADF9DDFE1CFCF93DF9364E2D9
:1007E00073E081EC92E10E949E156BE173E085EB72
:1007F00096E10E949E158EED0E945713D82F81FF1F
:100800000EC062E073E081EC92E10E949E156BEFF6
:1008100072E085EB96E10E949E15C0E001C0CFEF2B
:10082000D2FF0FC061EE72E081EC92E10E949E1552
:10083000CC2339F06AED72E085EB96E10E949E15BB
:10084000C0E0D3FF0FC060EC72E081EC92E10E9447
:100850009E15CC2339F069EB72E085EB96E10E949E
:100860009E15C0E0D4FF0FC060EA72E081EC92E117
:100870000E949E15CC2339F069E972E085EB96E180
:100880000E949E15C0E0D6FF0FC061E872E081ECC7
:1008900092E10E949E15CC23C1F16AE772E085EBDC
:1008A00096E10E949E1531C0D7FF0FC061E672E04D
:1008B00081EC92E10E949E15CC2331F06AE572E052
:1008C00085EB96E10E949E15C0E080E20E945713DE
:1008D00085FF0BC069E472E081EC92E10E949E15F5
:1008E000CC23D1F062E472E00AC0CC23A9F06DE21F
:1008F00072E081EC92E10E949E1566E272E085EB67
:1009000096E1DF91CF910C949E15D7FFDDCF61E684
:1009100072E081EC92E1D6CFDF91CF910895CF9331
:10092000DF936AE172E081EC92E10E949E1564E13E
:1009300072E085EB96E10E949E150E947414EC0112
:1009400061E172E081EC92E10E949E15CE010E946D
:100950008514682F70E042E081EC92E10E94A014BF
:100960008AE30E94C112CE010E948B14682F70E0AE
:1009700042E081EC92E10E94A0148CE20E94C1123C
:10098000CE010E94941443E0BC0181EC92E10E94EC
:10099000A0146EE072E081EC92E10E949E15CE01FF
:1009A0000E948514682F70E042E085EB96E10E947A
:1009B000A0148AE30E94B516CE010E948B14682F02
:1009C00070E042E085EB96E10E94A0146AE072E0DC
:1009D00085EB96E1DF91CF910C949E1561E072E07A
:1009E00081EC92E10E949E1562EF71E085EB96E149
:1009F0000E949E156BEE71E081EC92E10E949E15C3
:100A000081E00E94FC11682F880F770B44E081EC95
:100A100092E10E94E61462EE71E081EC92E10E94A4
:100A20009E1582E00E94FC11682F880F770B44E02E
:100A300081EC92E10E94E61469ED71E081EC92E1B3
:100A40000E949E1583E00E94FC11682F880F770B8F
:100A500044E081EC92E10E94E61466ED71E081ECE5
:100A600092E10C949E15CF93DF93D82F0E9415121C
:100A7000DD2321F0853F38F4CAE003C08B3028F035
:100A8000C6EFC80F03C0CFEF01C0C0E08C2F0E949B
:100A90000F126DEC71E081EC92E10E949E1566EC04
:100AA00071E085EB96E10E949E156EEB71E081ECA2
:100AB00092E10E949E15D0E043E0BE0181EC92E1FC
:100AC0000E94A0146BEB71E081EC92E10E949E15F4
:100AD00043E0BE0185EB96E10E94A01465EB71E056
:100AE00085EB96E1DF91CF910C949E15CF9362E058
:100AF00080E00E94D91681E0E6D246E0BC0185EB99
:100B000096E10E94E61462EB71E085EB96E10E94AB
:100B10009E1582E0D8D246E0BC0185EB96E10E94AA
:100B2000E6146FEA71E085EB96E10E949E1563E0A2
:100B300080E00E94D91669EA71E085EB96E10E9497
:100B40009E1583E0C0D246E0BC0185EB96E10E9491
:100B5000E61463EA71E085EB96E10E949E1580E25F
:100B60000E945C13882319F080E80E94701380E4CF
:100B70000E945C13882349F10E94D21680E80E94EB
:100B80006A1380E10E946513CFE084EF91E00E9438
:100B90000A1680E90E94701361E085E00E94D91670
:100BA0006AE971E085EB96E10E949E1584EF91E081
:100BB0000E940A1680E90E9470130E94D216C1504A
:100BC00021F780E90E946A13FFCF80910202909181
:100BD00003028B30910540F080E80E947013109260
:100BE00003021092020205C00196909303028093C3
:100BF000020282E390E0CF910C940A169F92AF928A
:100C0000BF92CF92DF92EF92FF920F931F93CF93F9
:100C1000DF93CDB7DEB728970FB6F894DEBF0FBECF
:100C2000CDBFA12CB12C5AE0952E86E50E94C112B1
:100C300046E06B2D0B2C000C770B81EC92E10E94AF
:100C4000E6148FE20E94C11246E06A2D0A2C000CC5
:100C5000770B81EC92E10E94E6148AE00E94C112B7
:100C60008DE00E94C1120E94D812811188C080912B
:100C70000102882309F479C0BE016F5F7F4FCE0166
:100C800005960E9493116B017C0120E030E048EC56
:100C900052E46D817E818F8198850E94941F6D83BF
:100CA0007E838F83988720E030E048EC52E46981AE
:100CB0007A818B819C810E94941F69837A838B83C4
:100CC0009C8388E50E94C1128AE30E94C1126D8153
:100CD0007E818F8198850E94741E46E081EC92E1AE
:100CE0000E94E61480E20E94C11280E20E94C112BA
:100CF00089E50E94C1128AE30E94C11269817A814A
:100D00008B819C810E94741E46E081EC92E10E94DE
:100D1000E61480E20E94C11280E20E94C11281E4C6
:100D20000E94C1128AE30E94C112C701B6010E944B
:100D3000741E46E081EC92E10E94E6148AE50E946E
:100D4000C1128AE30E94C1120E9474140E948B1483
:100D5000682F70E044E081EC92E10E94E6148AE0A2
:100D60000E94C1128DE00E94C112C0DE8EED0E9471
:100D70005713882309F477CF0E94B51174CF0E94CE
:100D8000F212182F61E080E00E94D916812F0E9494
:100D9000B51680E20E94B516193509F453C0B8F4AF
:100DA000183499F148F4123409F4F2C01734C1F13F
:100DB000103209F453C03EC0133551F118F41C34FD
:100DC000F1F038C01635F1F01835B1F033C01C36EB
:100DD000B1F038F4173621F11836B9F0123651F562
:100DE000D7C0163779F018F4133791F023C01837AD
:100DF00019F0193739F11EC042E0D42E25C033E076
:100E0000D32E22C024E0D22E1FC095E0D92E1CC0C4
:100E100081E090910102911180E08093010210C065
:100E200081E090910002911180E08093000286E0C1
:100E3000D82E0AC06BE871E085EB96E10E949E1502
:100E4000D12C02C0DD24D3948FEF8D0D823008F0B9
:100E500078C0CC24C394E12CF12C1DC0CBD298C017
:100E60009FEFE91AF90A8FEFE81AF80A9FEFE91ADB
:100E7000F90A8FEFE81AF80A9FEFE91AF90A8FEFDB
:100E8000E81AF80A9FEFE91AF90A8FEFE81AF80A48
:100E90009FEFE91AF90A1B33C9F146E0B70181EC6B
:100EA00092E10E94E6148CE20E94C1120E94D812C4
:100EB000811109C01BDE8EED0E9457138823B1F308
:100EC0000E94B511F3CF0E94F212182F0E94B5169E
:100ED0001B33E1F0C701989E7001999EF00C11241C
:100EE000812F90E0FC01B097EA31F10540F48827AA
:100EF000EA59FF4F8F4F0C94831DC194CCCF6CE700
:100F000071E085EB96E10E949E15C5CF87010536FD
:100F1000110514F004E610E046E0B80181EC92E11E
:100F20000E94E6148AE00E94C1128DE00E94C11264
:100F3000C09EE02C112482E0D81611F0AE2C01C026
:100F4000BE2C80910002882309F46FCE6A2D0A2CF2
:100F5000000C770B880B990B0E94A71E20E030E055
:100F600048EC52E40E940C1E6B017C016B2D0B2C93
:100F7000000C770B880B990B0E94A71E20E030E035
:100F800048EC52E40E940C1EA701960128D54DCED4
:100F900028960FB6F894DEBF0FBECDBFDF91CF917C
:100FA0001F910F91FF90EF90DF90CF90BF90AF9087
:100FB0009F9008950E94D812811102C097DDFACF48
:100FC0000E94F212C82F61E080E00E94D9168C2F97
:100FD0000E94B51680E20E94B516C53309F465C0BB
:100FE00050F5CF3209F449C090F4CA3209F443C035
:100FF00030F4C03209F060C00E94B5115BC0CB3242
:1010000009F43EC0CD3209F057C04CE94BC0C233A1
:1010100009F441C048F4C03309F447C0C13309F0B2
:101020004BC04CE960E039C0C33379F1C43309F0F7
:1010300043C04CE934C0C234C1F050F4C73311F19D
:1010400080F1C83329F1C933B9F544E660E02BC01B
:10105000C23659F028F4C33461F0CA3541F02CC0CF
:10106000C33639F0CA3719F027C0B7DBA3CF57DC36
:10107000A1CFC4DD9FCF8FEF01C080E0F4DC9ACF19
:1010800044E60DC04CE964E612C044E66CE90FC0CA
:1010900040E064E608C040E06CE984E609C064E62C
:1010A000FCCF44E66CE98CE903C040E060E080E0FE
:1010B0000E94C51193DC7ECF6DE671E085EB96E171
:1010C0000E949E1577CF2FB7F894813029F4809134
:1010D000190290911A0210C0823029F480911B02EB
:1010E00090911C0209C0833029F480911D029091D7
:1010F0001E0202C080E090E02FBF08952FB7F89441
:10110000813029F4809125029091260210C082300E
:1011100029F4809127029091280209C0833029F494
:101120008091290290912A0202C080E090E02FBFB6
:101130000895F894E9E1F2E0808191812681378178
:10114000821B930B2AE0289FA001299F500D112498
:10115000558744878281938140855185841B950BF7
:10116000289FA001299F500D11245787468784810D
:10117000958142855385841B950B289FA001299F4B
:10118000500D1124518B408B8081918197838683F0
:1011900082819381918780878481958193878287DB
:1011A000789408952F923F924F925F926F927F9220
:1011B0008F929F92AF92BF92CF92DF92EF92FF9267
:1011C0000F931F93CF93DF93CDB7DEB762970FB620
:1011D000F894DEBF0FBECDBF9C878B877A8B698B5F
:1011E00083E08CDF1C0182E089DF8C0181E086DFF7
:1011F0009A838983B101032C000C880B990B0E9400
:10120000A71E6B837C838D839E83DC01CB01B0584A
:101210008F839887A987BA87B801012E000C880BA5
:10122000990B0E94A71E6B017C019B01AC010E94DF
:10123000A11D2B013C01C701B601905827ED33EBEE
:101240004DE55FE30E940C1E6B017C01A981BA8110
:10125000BD01BB0F880B990B0E94A71E4B015C01BF
:101260009B01AC010E94A11D6D877E878F87988BA3
:1012700027ED33EB4DE55FE3C501B4010E940C1E81
:101280004B015C01A30192016F81788589859A8564
:101290000E94051E811131C02D853E854F855889DC
:1012A000C301B2010E94051E811127C08F8198855C
:1012B000A985BA85EB85FC8580839183A283B3835E
:1012C000A5019401C701B6010E94051E882309F4F7
:1012D0004BC0A5019401C701B6010E94A11D20E0E9
:1012E00030E040E05FE30E94941FA989BA896D93C2
:1012F0007D938D939C93139729C02B813C814D81C5
:101300005E81C301B2010E94A01D2D853E854F85DF
:1013100058890E94A11D20E030E040E450E40E9482
:101320000C1EEB85FC856083718382839383A5010A
:101330009401C701B6010E94051E8111CACFA98977
:10134000BA89CD92DD92ED92FC92139729813A8170
:10135000020F131FB801620D731D072E000C880BBE
:10136000990B0E94A71E09C0E989FA89C082D1821F
:10137000E282F38260E070E0CB0162960FB6F894EF
:10138000DEBF0FBECDBFDF91CF911F910F91FF90B8
:10139000EF90DF90CF90BF90AF909F908F907F9015
:1013A0006F905F904F903F902F9008958FB7F89473
:1013B000E9E1F2E011821082138212821582148216
:1013C0001586148617861686118A108A8FBF08958F
:1013D0008FB7F894EDE0F2E010821182128213824E
:1013E0001482158216821782108611861286138641
:1013F0008FBF08958FB7F894E8E0F2E01082118271
:10140000128214828FBF40E060E080E0BEC7AF92DE
:10141000BF92CF92DF92FF920F931F93CF93DF93F0
:10142000F82E062F142F89E40E94C1128CE40E942A
:10143000C112CF2C0F2C000CDD0846E0B60181EC68
:1014400092E10E94E61482E50E94C112C02F002E94
:10145000000CDD0B46E0BE0181EC92E10E94E61437
:1014600088E40E94C112A12E012E000CBB0846E0A8
:10147000B50181EC92E10E94E6148AE00E94C1125B
:101480008DE00E94C112C601D7FE03C091958195DF
:101490009109D7FF03C0D195C195D1098C179D073C
:1014A00034F021E0009709F420E0EC0101C022E0D3
:1014B000B501B7FE03C0719561957109C617D707CD
:1014C00014F4EB0123E0C536D105CCF03F2D44E602
:1014D0003402C0011124BE010E944E1DF62E34E6D6
:1014E0000302C0011124BE010E944E1D062F44E6D6
:1014F0001402C0011124BE010E944E1D162F84E665
:101500008F1534F03CE9F3162CF48CE9F82E02C068
:1015100094E6F92E053624F40C391CF40CE901C0CC
:1015200004E6153624F41C391CF41CE901C014E649
:101530008FB7F894F09208020093090210930A0200
:1015400020930C028FBF8FE40E94C1128CE40E9492
:10155000C1126F2DFF0C770B46E081EC92E10E94E7
:10156000E61482E50E94C112602F000F770B46E05F
:1015700081EC92E10E94E61488E40E94C112612F7E
:10158000110F770B46E081EC92E10E94E6148DE4A6
:10159000F8D746E0BE0181EC92E10E94E6148AE0B1
:1015A000F0D78DE0DF91CF911F910F91FF90DF90E9
:1015B000CF90BF90AF90E5C79FEF980F933068F43E
:1015C000813019F4809108020895823019F48091D5
:1015D0000902089580910A02089580E008958536F1
:1015E00008F084E680930B02089580910B02089521
:1015F0002F923F924F925F926F927F928F929F9223
:10160000AF92BF92CF92DF92EF92FF920F931F9310
:10161000CF93DF9300D01F92CDB7DEB780910C023D
:10162000882309F4C5C180910C0268DD97FF08C0CA
:1016300080910C0263DD00271127081B190B04C0E1
:1016400080910C025BDD8C01D090080281E056DDB8
:101650007C012D2D2003B001219F700D1124072E38
:10166000000C880B990B0E94A71E20E030E048EC8C
:1016700052E40E940C1E4B015C01B701FF0C880B69
:10168000990B0E94A71E9B01AC01C501B4010E94E9
:10169000A01D2B013C01D090090282E02FDD7C01CE
:1016A0004D2D4003B001419F700D1124072E000CF9
:1016B000880B990B0E94A71E20E030E048EC52E412
:1016C0000E940C1E4B015C01B701FF0C880B990BAB
:1016D0000E94A71E9B01AC01C501B4010E94A01D80
:1016E0004B015C01F0900A0283E008DD1C015F2DD4
:1016F0005003B001519F700D1124072E000C880B70
:10170000990B0E94A71E20E030E048EC52E40E94B2
:101710000C1E6B017C01B101330C880B990B0E94EC
:10172000A71E9B01AC01C701B6010E94A01D6B0161
:101730007C0160910D0270910E0280910F029091D8
:101740001002A30192010E94A11D60930D027093EB
:101750000E0280930F02909310026091110270911B
:1017600012028091130290911402A50194010E942B
:10177000A11D609311027093120280931302909343
:1017800014026091150270911602809117029091D7
:101790001802A70196010E94A11D60931502709383
:1017A00016028093170290931802109108028091FC
:1017B0000D0290910E02A0910F02B0911002898348
:1017C0009A83AB83BC832DEC3CEC4CEC5DE3C30112
:1017D000B2010E94941F2B013C012AE037ED43E245
:1017E0005CE369817A818B819C810E94941F9B01BB
:1017F000AC01C301B2010E94A11D0E94741E160F0C
:101800000091090240901102509012026090130260
:10181000709014022DEC3CEC4CEC5DE3C501B4017E
:101820000E94941F4B015C012AE037ED43E25CE328
:10183000C301B2010E94941F9B01AC01C501B40118
:101840000E94A11D0E94741E060F70900A028090D3
:10185000150290901602A0901702B09018022DEC7D
:101860003CEC4CEC5DE3C701B6010E94941F6B0198
:101870007C012AE037ED43E25CE3C501B4010E943C
:10188000941F9B01AC01C701B6010E94A11D0E94DB
:10189000741EF72CF60E212F012E000C330B37FF90
:1018A00003C03195219531092115310509F420E056
:1018B000E02F002E000CFF0BF7FF03C0F195E19520
:1018C000F109822F022E000C990B8E179F070CF442
:1018D0002E2FEF2D0F2C000CFF0BF7FF03C0F195FF
:1018E000E195F109822F022E000C990B8E179F07AC
:1018F0000CF42E2F2536E4F0022E000C330BA4E658
:101900001A02C0011124B9010E944E1D162FB4E61F
:101910000B02C0011124B9010E944E1D062FEF2DAC
:10192000F4E6EF02C0011124B9010E944E1DF62E0B
:101930000E94D21660E080E00E94D91681E0DEDBD2
:1019400046E0BC0185EB96E10E94E61460E088E089
:101950000E94D91682E0D2DB46E0BC0185EB96E11D
:101960000E94E61461E084E00E94D91683E0C6DBA1
:1019700046E0BC0185EB96E10E94E6144F2D602FF6
:10198000812F0F900F900F900F90DF91CF911F91AB
:101990000F91FF90EF90DF90CF90BF90AF909F900E
:1019A0008F907F906F905F904F903F902F90EDC4FD
:1019B0000F900F900F900F90DF91CF911F910F918B
:1019C000FF90EF90DF90CF90BF90AF909F908F905F
:1019D0007F906F905F904F903F902F9008952F923F
:1019E0003F924F925F926F927F928F929F92AF92AF
:1019F000BF92CF92DF92EF92FF920F931F93CF93FC
:101A0000DF9300D01F92CDB7DEB76B017C01490197
:101A10005A0120E030E0A9010E94051E81110AC090
:101A200020E030E0A901C501B4010E94051E882311
:101A300009F4E6C0D701C601BF7789839A83AB83D7
:101A4000BC8324013501E89477F8A3019201BC011D
:101A5000CD010E94901F1816ACF429813A814B8168
:101A60005C81C501B4010E940C1E4B015C012981FF
:101A70003A814B815C81C701B6010E940C1E6B014B
:101A80007C0110C0A3019201C701B6010E940C1E87
:101A90006B017C01A3019201C501B4010E940C1EDF
:101AA0004B015C0120E030E040E05FE3C701B6019C
:101AB0000E94941F2B013C0127ED33EB4DE55FE3C2
:101AC000C501B4010E94941F69837A838B839C8330
:101AD0009B01AC01C301B2010E94A11D4B015C013D
:101AE00029813A814B815C81C301B2010E94A01D12
:101AF0002B013C01D701C601B05889839A83AB837F
:101B0000BC83A50194015F7760E070E080E89FE30B
:101B10000E940C1E6B017C01A30192015F7760E0C3
:101B200070E080E89FE30E940C1E1B01182F092F14
:101B30009601A7010E94051E87FF03C06101E12EE7
:101B4000F02E29813A814B815C815F7760E070E003
:101B500080E89FE30E940C1E1B01182F092F96019D
:101B6000A7010E94051E87FF03C06101E12EF02E30
:101B70009601A70169817A818B819C810E94941FC3
:101B800020E030E048EC52E40E94941F0E94741E52
:101B9000162F9601A701C301B2010E94941F20E0F5
:101BA00030E048EC52E40E94941F0E94741E062FFD
:101BB0009601A701C501B4010E94941F20E030E006
:101BC00048EC52E40E94941F0E94741E862F412FFD
:101BD000602F0F900F900F900F90DF91CF911F917A
:101BE0000F91FF90EF90DF90CF90BF90AF909F90BC
:101BF0008F907F906F905F904F903F902F9007CC89
:101C00000F900F900F900F90DF91CF911F910F9138
:101C1000FF90EF90DF90CF90BF90AF909F908F900C
:101C20007F906F905F904F903F902F90E3CBCF923B
:101C3000DF92EF92FF92CF93DF93D82FC62FA82F7A
:101C4000880FBB0B28E532E00E948B1D2FEF30E0A0
:101C500040E050E00E94611D6B017C0126E0D20251
:101C6000C0011124EFEFF0E0BF010E943A1DAB016B
:101C700055274230510509F47CC05CF541155105EA
:101C800009F454C04130510509F0EDC084E6C802A2
:101C90009001112488279927821B930BBF010E9472
:101CA0003A1D462FA4E6B0E0AC19BD09A29FC001C1
:101CB000A39F900DB29F900D1124BF010E943A1D69
:101CC000C62F2C9DC0012D9D900D3C9D900D112483
:101CD000BEC04430510509F495C00CF470C04530C5
:101CE000510509F0C0C084E6C8029001112444E601
:101CF00050E04C195D09429FC001439F900D529FD7
:101D0000900D1124BF010E943A1D462F2C9DC00149
:101D10002D9D900D3C9D900D1124BF010E943A1DF8
:101D2000C62F88279927821B930B91C084E6C8028F
:101D3000900111242C9DC0012D9D900D3C9D900D76
:101D40001124919581959109BF010E943A1D462F5A
:101D5000C901BF010E943A1DC62FA4E6B0E0AC192C
:101D6000BD09A29FC001A39F900DB29F900D1124A9
:101D70006BC084E6C8029001112444E650E04C197F
:101D80005D09429FC001439F900D529F900D112409
:101D9000919581959109BF010E943A1D462F2C9D76
:101DA000C0012D9D900D3C9D900D11249195819524
:101DB0009109BF010E943A1DC62FC90148C084E69F
:101DC000C802900111242C9DC0012D9D900D3C9DB9
:101DD000900D1124BF010E943A1D462F8827992794
:101DE000821B930BBF010E943A1DC62FA4E6B0E0F0
:101DF000AC19BD09A29FC001A39F900DB29F900D89
:101E0000112425C084E6C80290011124C901BF0134
:101E10000E943A1D462FA4E6B0E0AC19BD09A29F6E
:101E2000C001A39F900DB29F900D112491958195B3
:101E30009109BF010E943A1DC62F2C9DC0012D9D06
:101E4000900D3C9D900D1124919581959109BF01B4
:101E50000E943A1D862F6C2FDF91CF91FF90EF905B
:101E6000DF90CF9092C2DF91CF91FF90EF90DF9003
:101E7000CF9008952F923F924F925F926F927F92F0
:101E80008F929F92AF92BF92CF92DF92EF92FF928A
:101E90000F931F93CF93DF93CDB7DEB766970FB63F
:101EA000F894DEBF0FBECDBF83E028D92AE0E22E32
:101EB000F12CB7010E944E1D1B0182E01FD9B70112
:101EC0000E944E1D8B0181E019D9B7010E944E1D61
:101ED0007E8B6D8B60914402709145028091460229
:101EE0009091470228E939EF4EE85CE30E94941F85
:101EF0000E94091E2B013C01609144027091450231
:101F0000809146029091470228E939EF4EE85CE360
:101F10000E94941F0E94F71F4B015C0127ED33EBD9
:101F20004DE55FE30E94941F6B017C0120E030E0EF
:101F300040E05FE3C301B2010E94941F9B01AC012A
:101F4000C701B6010E94A01D69837A838B839C839D
:101F500020E030E040E05FE3C501B4010E94941F3F
:101F60006B017C0127ED33EB4DE55FE3C301B2016B
:101F70000E94941F9B01AC01C701B6010E94A11DE4
:101F800069877A878B879C87B101032C000C880BAB
:101F9000990B0E94A71E6B017C01F7FAF094F7F8E9
:101FA000F094A3019201C701B6010E94941F2B0176
:101FB0003C01A5019401C701B6010E94941F698BE1
:101FC0007A8B8B8B9C8BB801012E000C880B990BA4
:101FD0000E94A71E6B017C0129813A814B815C81A3
:101FE0000E94941F6D837E838F839887C701B601FB
:101FF000905829853A854B855C850E94941F4B013A
:102000005C012D893E89B901330F880B990B0E9421
:10201000A71E6B017C0129813A814B815C810E9462
:10202000941F6D877E878F87988B29853A854B858E
:102030005C85C701B6010E94941F69837A838B83F4
:102040009C832D813E814F815885C301B2010E943E
:10205000051E811136C02D853E854F8558896D81BD
:102060007E818F8198850E94051E81112AC0C090B3
:102070003C02D0903D02E0903E02F0903F022FE6FD
:1020800032E143E85AE3C301B2010E94941F9B016D
:10209000AC01C701B6010E94A11D60933C02709380
:1020A0003D0280933E0290933F0229813A814B8109
:1020B0005C81C501B4010E94051E882309F4E2C0B9
:1020C0003BC0C0903C02D0903D02E0903E02F090B8
:1020D0003F022D813E814F815885C301B2010E948C
:1020E000A11D2D853E854F8558890E94A11D20E0A8
:1020F00030E040E450E40E940C1E2FE632E143E859
:102100005AE30E94941F9B01AC01C701B6010E94D3
:10211000A11D60933C0270933D0280933E02909318
:102120003F022D813E814F815885C301B2010E943B
:10213000051E882309F4C5C0C0904002D09041021A
:10214000E0904202F0904302A501940169897A89E6
:102150008B899C890E94A11D29813A814B815C81D8
:102160000E94A11D20E030E040E450E40E940C1EDB
:102170002FE632E143E85AE30E94941F9B01AC0131
:10218000C701B6010E94A11D6093400270934102F5
:102190008093420290934302C0904402D090450243
:1021A000E0904602F09047028D899E89080F191F22
:1021B000B801620D731D072E000C880B990B0E944D
:1021C000A71E21EE3AE744E95EE30E94941F9B01BB
:1021D000AC01C701B6010E94A11D60934402709337
:1021E00045028093460290934702609144027091A9
:1021F0004502809146029091470220E030E044E39E
:1022000053E40E94901F1816B4F460914402709138
:102210004502809146029091470220E030E044EB75
:1022200053E40E94A01D6093440270934502809382
:10223000460290934702609144027091450280915A
:1022400046029091470220E030E044E353EC0E94C4
:10225000051E87FF4FC06091440270914502809136
:1022600046029091470220E030E044EB53E40E94A4
:10227000A11D60934402709345028093460290939F
:10228000470238C0C0904002D0904102E090420224
:10229000F09043022FE632E143E85AE3C501B4016E
:1022A0000E94941F9B01AC01C701B6010E94A11DB1
:1022B00060934002709341028093420290934302E4
:1022C00019C029813A814B815C81C501B4010E940A
:1022D000051E811131CFC0904002D0904102E090A4
:1022E0004202F09043022FE632E143E85AE3C5018F
:1022F000B40142CF66960FB6F894DEBF0FBECDBFD5
:10230000DF91CF911F910F91FF90EF90DF90CF90D1
:10231000BF90AF909F908F907F906F905F904F9005
:102320003F902F9008950F931F93CF93DF93ECE38B
:10233000F2E00081118122813381DC010D931D9334
:102340002D933C93139784819581A681B781EB01EE
:1023500088839983AA83BB836085718582859385F1
:10236000DF91CF911F910F91089544D88FB7F894C2
:10237000EDE2F2E010821182128214821382168240
:102380001582108617828FBF0895853624F48C3904
:102390001CF48CE901C084E6653624F46C391CF425
:1023A0006CE901C064E6453624F44C391CF44CE970
:1023B00001C044E69FB7F89480932D0260932E02EB
:1023C00040932F029FBF0895653624F46C391CF4A6
:1023D0006CE901C064E69FEF980F933060F48130A0
:1023E00019F460932D020895823019F460932E023F
:1023F000089560932F0208959FEF980F933068F42B
:10240000813019F480912D020895823019F4809161
:102410002E02089580912F02089580E00895853658
:1024200008F084E68093360208958091360208957C
:1024300030912D02209136023203C001112464E64E
:1024400070E00E944E1D8091300290913102681719
:102450007907C1F09B01281B390B2630310524F088
:10246000BC016B5F7F4F09C09C01261B370B2630D8
:1024700031051CF0BC016550710970933102609305
:102480003002CB0197FD02C02A9A04C02A98919588
:1024900081959109F89410928D0080938C00789426
:1024A00030912E02209136023203C001112464E6DD
:1024B00070E00E944E1D80913202909133026817A5
:1024C0007907C1F09B01281B390B2630310524F018
:1024D000BC016B5F7F4F09C09C01261B370B263068
:1024E00031051CF0BC016550710970933302609393
:1024F0003202CB0197FD02C02B9804C02B9A919514
:1025000081959109F89410928B0080938A007894B9
:1025100030912F02209136023203C001112464E66B
:1025200070E00E944E1D8091340290913502681730
:102530007907C1F09B01281B390B2630310524F0A7
:10254000BC016B5F7F4F09C09C01261B370B2630F7
:1025500031051CF0BC016550710970933502609320
:102560003402CB0197FD02C02C9A04C02C9891959F
:1025700081959109F894109289008093880078944D
:102580000895CF93C82F80913702882311F08C2FA4
:10259000DED780913A02882311F08C2F3DD58091AF
:1025A0002C02882319F08C2FCF91DFC3CF9108958F
:1025B00090912B0280913B02992389F0882369F046
:1025C0000E94241B811107C0A4D591E0811101C094
:1025D00090E0892F089581E008950C94241B8111C7
:1025E00098C5089590912B0280913B02992379F030
:1025F000882381F00E94241B882321F08AD5811131
:1026000008C008C086D58111F9CF0000F3CF882318
:1026100011F00FC5A9C780E00895662319F06F5F18
:1026200060933B02882319F08F5F80932B020895FB
:10263000662319F06F5F60933A02882319F08F5F69
:1026400080933702442319F04F5F40932C02089582
:1026500020913B02222311F021E001C02FEFFB016A
:10266000208320912B02222311F021E001C02FEFC3
:10267000FC012083089520913A02222311F021E0E9
:1026800001C02FEFFB01208320913702222311F09C
:1026900021E001C02FEFFC01208380912C028823D0
:1026A00011F081E001C08FEFFA018083089596B1A7
:1026B000909589238E7F089599B19095892380768E
:1026C00008959BB18923807908959BB18079982BD7
:1026D0009BB908959BB18079809598239BB9089503
:1026E0009BB1807998279BB908951F920F920FB6DE
:1026F0000F9211248F939F938CB1982F9695969556
:102700009695892782FF06C08091190290911A023E
:10271000019605C08091190290911A020197909339
:102720001A02809319029F918F910F900FBE0F9004
:102730001F9018951F920F920FB60F9211248F932E
:102740009F938CB1982F969596959695892783FFA0
:1027500006C080911D0290911E02019705C08091D4
:102760001D0290911E02019690931E0280931D02FD
:102770009F918F910F900FBE0F901F9018951F92F1
:102780000F920FB60F9211248F939F938CB1982FB5
:10279000969596959695892784FF06C080911B0291
:1027A00090911C02019605C080911B0290911C0221
:1027B000019790931C0280931B029F918F910F9021
:1027C0000FBE0F901F9018951F920F920FB60F9289
:1027D00011240BB60F922F933F934F935F936F93F8
:1027E0007F938F939F93AF93BF93EF93FF938091CA
:1027F0003802909139020196909339028093380201
:102800008091070280FD0DC0809107028160809356
:10281000070278940DDEF894809107028E7F8093F2
:102820000702809106028F5F809306028A30A0F033
:102830008091070281FD10C010920602809107026C
:1028400082608093070278940E949908F89480919E
:1028500007028D7F80930702809105028F5F80932E
:1028600005028A30A0F08091070282FD10C010920C
:1028700005028091070284608093070278940E9489
:10288000F80AF894809107028B7F80930702809169
:1028900004028F5F809304028A3098F080910702CF
:1028A00083FD0FC01092040280910702886080931C
:1028B00007027894DFDAF89480910702877F80938B
:1028C0000702FF91EF91BF91AF919F918F917F91FF
:1028D0006F915F914F913F912F910F900BBE0F9091
:1028E0000FBE0F901F9018952FB7F8948091380263
:1028F000909139022FBF08959C019FB7F8943093AF
:102900003902209338029FBF089560E777E10E9463
:102910003A1D862F089564E670E00E943A1DCB01AF
:102920006CE370E00C943A1D64E670E00E943A1D7E
:102930002AE0AC01249FC001259F900D1124089529
:10294000EF92FF921F93CF93DF9300D000D0CDB7CB
:10295000DEB77C01CB01413208F040E220E0EAE042
:10296000F0E011E0120F61E070E06C0F7D1F620F6C
:10297000711D9B01BF010E943A1D90E3980FD90180
:102980009C93CB01212F009761F7141738F480E254
:102990004E83F70119954E814150F7CF115050F0F9
:1029A000E1E0F0E0EC0FFD1FE10FF11D8081F70188
:1029B0001995F4CF26960FB6F894DEBF0FBECDBFA3
:1029C000DF91CF911F91FF90EF9008950F931F9388
:1029D000CF93DF9300D0CDB7DEB78C0177FF13C064
:1029E0007195619571098DE24B8369837A83F80152
:1029F00019954B8169817A81413218F4442319F089
:102A000001C040E24150C8010F900F900F90DF913C
:102A1000CF911F910F9194CFEF92FF920F931F933D
:102A2000CF93DF931F92CDB7DEB77C018B0147FFB9
:102A300009C0419580E34983F701199588E7F701BB
:102A40001995498145304CF424E030E0241B3109CC
:102A500047FD3395220F220F01C020E0022E02C055
:102A6000000F111F0A94E2F72031A4F4912F9295E0
:102A70009F709A3010F480E301C087E3890F2983A7
:102A8000F701199584E0000F111F8A95E1F729815C
:102A90002C5FEACF0F90DF91CF911F910F91FF90A4
:102AA000EF900895DF92EF92FF920F931F93CF93D1
:102AB000DF931F92CDB7DEB77C018B0147FF09C0C2
:102AC000419580E34983F701199582E6F70119954D
:102AD0004981413124F480E1D82ED41A01C0D12C8F
:102AE0000D2C02C0000F111F0A94E2F7FFE0FD1544
:102AF0005CF017FF02C081E301C080E3F701199584
:102B0000000F111FD394F2CF0F90DF91CF911F913F
:102B10000F91FF90EF90DF9008950F931F93CF9345
:102B2000DF938C01EB018991882319F0F801199545
:102B3000FACFDF91CF911F910F9108950F931F93BB
:102B4000CF93DF938C01EB01AE010D2E000C660BD1
:102B5000770B6BBFFA0187912196882319F0F80152
:102B60001995F2CFDF91CF911F910F9108956623B0
:102B700019F06DE873E002C067E873E0DFCFEF9211
:102B8000FF920F931F93CF93DF937C018B01CFEFC5
:102B9000C40FCF3FC1F0A801012E000C660B770BCC
:102BA0006BBFFA0187910F5F1F4FDFEFDC0F8111C1
:102BB00006C0C15040F080E2F7011995FACFF70145
:102BC0001995CD2FE6CFDF91CF911F910F91FF90F7
:102BD000EF900895CF93DF93EC016DE773E0AEDFE4
:102BE00061E773E0CE01AADF6EE673E0CE01DF910C
:102BF000CF91A4CFCF93DF93EC0162E473E09EDF2B
:102C000066E373E0CE019ADF63E373E0CE01DF9108
:102C1000CF9194CF009759F020ED37E000000000ED
:102C20000000000021503109C9F70197F3CF089542
:102C30008A95F1F7089534E3009729F0232F2A9518
:102C4000F1F70197F9CF0895CF93DF93EC0165EE8B
:102C500073E074DF69ED73E0CE0170DF66ED73E061
:102C6000CE01DF91CF916ACFCF93DF93EC016CEA75
:102C700073E064DF4FE064EA73E0CE0180DF61EA75
:102C800073E0CE015BDF68E973E0CE0157DF65E9F1
:102C900073E0CE0153DF62E973E0CE01DF91CF91A3
:102CA0004DCF81E090E0C7DF149A81E090E0C3DF70
:102CB000149881E090E0BFCFCF93DF9380914802DA
:102CC0008823A1F1169A1598149882B1807F82B951
:102CD00081B1807F81B981B1806781B980914802DB
:102CE000853010F084E003C08091480281508093C9
:102CF000480281E090E09FDFC4E6DFEF8091480268
:102D00008F3F61F0C15051F0149A81E090E093DF61
:102D1000039BD09348021498C4DFF0CF169880919B
:102D20004802811103C081B18F7881B9DF91CF91C1
:102D30000895CF93C82FC0DF809148028F3F99F448
:102D400081B18F6081B992B18C2F82958F70907F05
:102D5000982B92B9A6DF92B18C2F8F70907F892B20
:102D600082B9CF919ECFCF910895CF93C82FA4DF82
:102D7000809148028F3FA1F4159A81B18F6081B98B
:102D800092B18C2F82958F70907F982B92B989DFAA
:102D900092B18C2F8F70907F892B82B9CF9181CF88
:102DA000CF91089581E0C5CF82E0C3CF83708C605E
:102DB000C0CF8F7060FD806461FD80618068B9CF95
:102DC000EF92FF920F931F93CF93DF931F921F9267
:102DD000CDB7DEB7877028E0829FC00111248064E0
:102DE00069837A83A6DF6981E62E7A81F72E8701CF
:102DF000085F1F4FF70181917F01B7DFE016F106F1
:102E0000C9F70F900F90DF91CF911F910F91FF9015
:102E1000EF9008958FEF8093480208951092480232
:102E200008959091480281E09F3F09F080E0089565
:102E3000CF93DF93EC0163ED74E080DE4FE069EC4B
:102E400074E0CE019CDE66EC74E0CE0177DE80910A
:102E5000480261E08F3F09F060E0CE0188DE63EC5C
:102E600074E0CE016BDE60EC74E0CE01DF91CF91B7
:102E700065CECF93DF93EC0162E974E05FDE44E15D
:102E800063E874E0CE017BDE60E874E0CE0156DEDC
:102E90006EE774E0CE0152DE6BE774E0CE014EDEE9
:102EA00044E16BE674E0CE016ADE68E674E0CE01D0
:102EB00045DE66E674E0CE0141DE63E674E0CE01F5
:102EC0003DDE44E162E574E0CE0159DE6FE474E07A
:102ED000CE0134DE6DE474E0CE0130DE6AE474E0ED
:102EE000CE012CDE44E169E374E0CE0148DE66E306
:102EF00074E0CE0123DE64E374E0CE011FDE61E303
:102F000074E0CE011BDE44E16DE174E0CE0137DEFA
:102F10006AE174E0CE0112DE68E174E0CE010EDEFB
:102F200065E174E0CE010ADE44E163E074E0CE01C5
:102F300026DE60E074E0CE0101DE64EF73E0CE01D6
:102F4000FDDD61EF73E0CE01F9DD6EEE73E0CE01E1
:102F5000DF91CF91F3CD8FEF8093480216981598AB
:102F6000149882B1807F82B981B1806781B981B1C3
:102F70008F6081B98FE090E04DDE82B1807F836009
:102F800082B98FDE85E090E045DE8BDE86E990E059
:102F900052DE87DE169881B18F6081B982B1807F61
:102FA000826082B97EDE88E2C4DE86E0C2DE8CE02A
:102FB000C0DE81E0BECE2FB7F89430918B029091A5
:102FC000490239130BC04091C10043FF07C0409133
:102FD000C00045FF03C08093C6001BC0E92FF0E08E
:102FE000E55BFD4F808381E0890F803410F081EC38
:102FF000890F381303C02FBF80E0089580934902E2
:103000008091C10083FF05C08091C10080628093E0
:10301000C1002FBF8FEF0895CF93C82F8C2FCBDF28
:10302000811105C078948091C10083FDF7CFCF91C5
:103030000895F89490914A0280918C0298131AC0D6
:103040008091C10084FF04C08091C00087FD02C050
:10305000892F10C08091C6001CC078949091C10047
:10306000892F807194FF16C00000F89490914A0255
:1030700080918C02981789F3E92FF0E0E357FD4F18
:10308000808121E0290F203410F021EC290F2093BA
:103090004A02789408959FB7F89420914A0280914B
:1030A0008C02281771F0E22FF0E0E357FD4F80818A
:1030B00031E0320F303410F031EC320F30934A02ED
:1030C0000CC02091C100822F807124FF06C0809126
:1030D000C00087FF04C08091C6009FBF08959FBFB6
:1030E00080E008953FB7F89490918B0220914902B7
:1030F000822F891B291708F4805C8F3F41F0909143
:10310000C10093FF04C09091C00095FF8F5F3FBF47
:1031100008953FB7F89490914A0220918C02822F33
:10312000891B291708F4805C8F3F41F09091C10002
:1031300094FF04C09091C00097FD8F5F3FBF08953A
:103140008FB7F89410928B021092490210924A02A3
:1031500010928C028FBF0895CF92DF92EF92FF9270
:10316000CF939C01CFB7009711F480E022C06C018F
:10317000D694C794E12CF12CC701B601605C7D4B5D
:10318000804F9F4F40E050E09CD4BA01A9014150CC
:10319000510961097109672B41F7CA018827907F9E
:1031A000892B19F7F8945093C5004093C400CFBF02
:1031B0008FEFCF91FF90EF90DF90CF9008958FB772
:1031C000F8949091C400292F9091C500392F8FBF9A
:1031D0003F702F5F3F4FB90176956795CB01A0E017
:1031E000B0E0BC01CD01605C7D4B804F9F4F40E063
:1031F00050E067D4452B11F4C90108958FEF9FEF7C
:1032000008959FB7F8948091C10088608093C100B1
:103210008091C10080618093C1002091490280911A
:103220008B02281729F08091C10080628093C10031
:103230008091C10080688093C1009FBF0895109263
:103240008B021092490210924A0210928C02109244
:10325000C0001092C1008EE08093C20080E091EE29
:103260007BDFCFCF9FB7F894E1ECF0E08081877FE0
:10327000808380818F7E808380818F7D8083808129
:103280008F7780839FBF08959091C100987181E0EE
:10329000983109F080E0819508950F931F93CF93A3
:1032A000DF93EC016AED75E049DC4FE060ED75E01D
:1032B000CE0165DC6DEC75E0CE0140DCE5DF682F0A
:1032C000CE0155DC6AEC75E0CE0138DC8FB7F8949E
:1032D0009091C400692F9091C500792F8FBF8B0109
:1032E0001F704FE062EC75E0CE0149DC6FEB75E0DA
:1032F000CE0124DC45E0B801CE0122DB6CEB75E0A9
:10330000CE011CDC4FE065EB75E0CE0138DC62EBF2
:1033100075E0CE0113DC53DF45E0BC01CE0110DBCC
:103320006FEA75E0CE010ADC4FE06AEA75E0CE0193
:1033300026DC67EA75E0CE0101DCD4DE682F70E0A0
:1033400041E0CE01FDDA64EA75E0CE01F7DB4FE043
:103350006FE975E0CE0113DC6CE975E0CE01EEDBC0
:10336000D8DE682F70E041E0CE01EADA69E975E065
:10337000CE01E4DB66E975E0CE01DF91CF911F91CC
:103380000F91DCCBCF93DF93EC016CE675E0D6DBDD
:1033900067E375E0CE01D2DB4FE061E375E0CE017B
:1033A000EEDB6EE275E0CE01C9DB63E275E0CE01D3
:1033B000C5DB60E275E0CE01C1DB4FE068E175E09E
:1033C000CE01DDDB65E175E0CE01B8DB6CE075E0D8
:1033D000CE01B4DB69E075E0CE01B0DB4FE06EEF0B
:1033E00074E0CE01CCDB6BEF74E0CE01A7DB68EFBD
:1033F00074E0CE01A3DB65EF74E0CE019FDB4FE00C
:103400006AEE74E0CE01BBDB67EE74E0CE0196DBC2
:1034100064EE74E0CE0192DB61EE74E0CE018EDBEF
:103420006EED74E0CE01DF91CF9188CB1F920F92A9
:103430000FB60F9211240BB60F922F938F939F9379
:10344000EF93FF9390918B0220914902921789F09C
:10345000E92FF0E0E55BFD4F80818093C60081E0BD
:10346000890F803410F081EC890F80938B028213D6
:1034700005C08091C1008F7D8093C100FF91EF91C5
:103480009F918F912F910F900BBE0F900FBE0F90B9
:103490001F9018951F920F920FB60F9211240BB622
:1034A0000F922F938F939F93EF93FF9320914A0254
:1034B00090918C02E92FF0E08091C600E357FD4F18
:1034C000808381E0890F803410F081EC890F28130C
:1034D00080938C02FF91EF919F918F912F910F908C
:1034E0000BBE0F900FBE0F901F9018952FB7F8943A
:1034F00030910F0390910D0339130BC04091C90017
:1035000043FF07C04091C80045FF03C08093CE0031
:103510001BC0E92FF0E0E05FFC4F808381E0890F62
:10352000803410F081EC890F381303C02FBF80E086
:10353000089580930D038091C90083FF05C0809199
:10354000C90080628093C9002FBF8FEF0895CF9389
:10355000C82F8C2FCBDF811105C078948091C900D2
:1035600083FDF7CFCF910895F89490915003809107
:103570000E0398131AC08091C90084FF04C0809183
:10358000C80087FD02C0892F10C08091CE001CC0EA
:1035900078949091C900892F807194FF16C0000023
:1035A000F8949091500380910E03981789F3E92FB6
:1035B000F0E0E353FD4F808121E0290F203410F02B
:1035C00021EC290F20935003789408959FB7F89425
:1035D0002091500380910E03281771F0E22FF0E044
:1035E000E353FD4F808131E0320F303410F031EC85
:1035F000320F309350030CC02091C900822F80718C
:1036000024FF06C08091C80087FF04C08091CE00CF
:103610009FBF08959FBF80E008953FB7F8949091B1
:103620000F0320910D03822F891B291708F4805C5A
:103630008F3F41F09091C90093FF04C09091C80062
:1036400095FF8F5F3FBF08953FB7F8949091500367
:1036500020910E03822F891B291708F4805C8F3F6D
:1036600041F09091C90094FF04C09091C80097FD6B
:103670008F5F3FBF08958FB7F89410920F03109299
:103680000D031092500310920E038FBF0895CF9236
:10369000DF92EF92FF92CF939C01CFB7009711F486
:1036A00080E022C06C01D694C794E12CF12CC701B4
:1036B000B601605C7D4B804F9F4F40E050E001D2EF
:1036C000BA01A9014150510961097109672B41F7FC
:1036D000CA018827907F892B19F7F8945093CD0061
:1036E0004093CC00CFBF8FEFCF91FF90EF90DF9052
:1036F000CF9008958FB7F8949091CC00292F909196
:10370000CD00392F8FBF3F702F5F3F4FB9017695A6
:103710006795CB01A0E0B0E0BC01CD01605C7D4BC2
:10372000804F9F4F40E050E0CCD1452B11F4C901B0
:1037300008958FEF9FEF08959FB7F8948091C90087
:1037400088608093C9008091C90080618093C9001E
:1037500020910D0380910F03281729F08091C90053
:1037600080628093C9008091C90080688093C900FD
:103770009FBF089510920F0310920D0310925003F3
:1037800010920E031092C8001092C9008EE0809330
:10379000CA0080E091EE7BDFCFCF9FB7F894E9ECD1
:1037A000F0E08081877F808380818F7E808380812D
:1037B0008F7D808380818F7780839FBF08959091D4
:1037C000C900987181E0983109F080E081950895F1
:1037D0000F931F93CF93DF93EC016FED76E0AED99B
:1037E0004FE065ED76E0CE01CAD962ED76E0CE011C
:1037F000A5D9E5DF682FCE01BAD96FEC76E0CE010E
:103800009DD98FB7F8949091CC00692F9091CD00FD
:10381000792F8FBF8B011F704FE067EC76E0CE01F0
:10382000AED964EC76E0CE0189D945E0B801CE018D
:1038300087D861EC76E0CE0181D94FE06AEB76E083
:10384000CE019DD967EB76E0CE0178D953DF45E014
:10385000BC01CE0175D864EB76E0CE016FD94FE0A4
:103860006FEA76E0CE018BD96CEA76E0CE0166D9BC
:10387000D4DE682F70E041E0CE0162D869EA76E0DC
:10388000CE015CD94FE064EA76E0CE0178D961EAF6
:1038900076E0CE0153D9D8DE682F70E041E0CE014A
:1038A0004FD86EE976E0CE0149D96BE976E0CE01DA
:1038B000DF91CF911F910F9141C9CF93DF93EC011D
:1038C00061E776E03BD96CE376E0CE0137D94FE093
:1038D00066E376E0CE0153D963E376E0CE012ED9DC
:1038E00068E276E0CE012AD965E276E0CE0126D9FB
:1038F0004FE06DE176E0CE0142D96AE176E0CE019B
:103900001DD961E176E0CE0119D96EE076E0CE01F5
:1039100015D94FE063E076E0CE0131D960E076E082
:10392000CE010CD96DEF75E0CE0108D96AEF75E0D4
:10393000CE0104D94FE06FEE75E0CE0120D96CEED8
:1039400075E0CE01FBD869EE75E0CE01F7D866EEE2
:1039500075E0CE01F3D863EE75E0CE01DF91CF9133
:10396000EDC81F920F920FB60F9211240BB60F9253
:103970002F938F939F93EF93FF9390910F03209139
:103980000D03921789F0E92FF0E0E05FFC4F808192
:103990008093CE0081E0890F803410F081EC890F94
:1039A00080930F03821305C08091C9008F7D80939F
:1039B000C900FF91EF919F918F912F910F900BBEB6
:1039C0000F900FBE0F901F9018951F920F920FB679
:1039D0000F9211240BB60F922F938F939F93EF9317
:1039E000FF932091500390910E03E92FF0E0809116
:1039F000CE00E353FD4F808381E0890F803410F0C7
:103A000081EC890F281380930E03FF91EF919F9112
:103A10008F912F910F900BBE0F900FBE0F901F90A4
:103A20001895F89498DA0BDCA5DE78940E94D703F9
:103A300078946AE671E081EC92E180D866E571E005
:103A400081EC92E17BD860E471E081EC92E176D880
:103A50006FE271E085EB96E171D861E080E0A9D971
:103A60006EE171E085EB96E169D80E94DA0780E0AB
:103A700090E00895AA1BBB1B51E107C0AA1FBB1F02
:103A8000A617B70710F0A61BB70B881F991F5A95EA
:103A9000A9F780959095BC01CD01089597FB072E5D
:103AA00016F4009406D077FD08D0E4DF07FC05D0BB
:103AB0003EF4909581959F4F0895709561957F4F45
:103AC0000895A1E21A2EAA1BBB1BFD010DC0AA1F5F
:103AD000BB1FEE1FFF1FA217B307E407F50720F077
:103AE000A21BB30BE40BF50B661F771F881F991FF2
:103AF0001A9469F760957095809590959B01AC013B
:103B0000BD01CF010895EE0FFF1F881F8BBF0790E7
:103B1000F691E02D199405D0B7FF0895821B930B01
:103B20000895A29FB001B39FC001A39F700D811D96
:103B30001124911DB29F700D811D1124911D0895B6
:103B40005058BB27AA270ED0A0C169D130F06ED142
:103B500020F031F49F3F11F41EF45EC10EF4E095A5
:103B6000E7FB54C1E92FB3D180F3BA17620773079B
:103B70008407950718F071F49EF5CBC10EF4E0951B
:103B80000B2EBA2FA02D0B01B90190010C01CA0117
:103B9000A0011124FF27591B99F0593F50F4503EC2
:103BA00068F11A16F040A22F232F342F4427585FB4
:103BB000F3CF469537952795A795F0405395C9F7CC
:103BC0007EF41F16BA0B620B730B840BBAF0915084
:103BD000A1F0FF0FBB1F661F771F881FC2F70EC023
:103BE000BA0F621F731F841F48F4879577956795F6
:103BF000B795F7959E3F08F0B3CF9395880F08F0DF
:103C00009927EE0F979587950895DCD008F481E009
:103C1000089514D1E3954AC10CD037C107D140F0C3
:103C2000FED030F021F45F3F19F0F0C0511172C1A5
:103C3000F3C04DD198F39923C9F35523B1F3951BE4
:103C4000550BBB27AA2762177307840738F09F5FBD
:103C50005F4F220F331F441FAA1FA9F333D00E2E2C
:103C60003AF0E0E830D091505040E695001CCAF799
:103C700029D0FE2F27D0660F771F881FBB1F26175E
:103C800037074807AB07B0E809F0BB0B802DBF0131
:103C9000FF2793585F4F2AF09E3F510568F0B6C04A
:103CA00039C15F3FECF3983EDCF3869577956795D5
:103CB000B795F7959F5FC9F7880F911D96958795E2
:103CC00097F90895E1E0660F771F881FBB1F621701
:103CD00073078407BA0720F0621B730B840BBA0BBF
:103CE000EE1F88F7E095089504D06894B11112C1D1
:103CF0000895F5D088F09F5790F0B92F9927B751C4
:103D0000A0F0D1F0660F771F881F991F1AF0BA959F
:103D1000C9F712C0B13081F0FCD0B1E00895F9C00C
:103D2000672F782F8827B85F39F0B93FCCF3869595
:103D300077956795B395D9F73EF4909580957095F2
:103D400061957F4F8F4F9F4F0895E89409C097FB6F
:103D50003EF490958095709561957F4F8F4F9F4F62
:103D60009923A9F0F92F96E9BB279395F6958795A6
:103D700077956795B795F111F8CFFAF4BB0F11F469
:103D800060FF1BC06F5F7F4F8F4F9F4F16C0882310
:103D900011F096E911C0772321F09EE8872F762F46
:103DA00005C0662371F096E8862F70E060E02AF087
:103DB0009A95660F771F881FDAF7880F9695879573
:103DC00097F90895990F0008550FAA0BE0E8FEEF48
:103DD00016161706E807F907C0F012161306E407CF
:103DE000F50798F0621B730B840B950B39F40A26C8
:103DF00061F0232B242B252B21F408950A2609F4A6
:103E0000A140A6958FEF811D811D089597F99F67A9
:103E100080E870E060E008959FEF80EC0895002452
:103E20000A941616170618060906089500240A941F
:103E300012161306140605060895EECF50D0E8F3C7
:103E4000E894E0E0BB279F57F0F02AED3FE049EC13
:103E500006C0EE0FBB0F661F771F881F28F0B23A0F
:103E600062077307840728F0B25A620B730B840B46
:103E7000E3959A9572F7803830F49A95BB0F661FD8
:103E8000771F881FD2F79048BAC0092E0394000C00
:103E900011F4882352F0BB0F40F4BF2B11F460FFE4
:103EA00004C06F5F7F4F8F4F9F4F0895EF93E0FFE8
:103EB00006C0A2EA2AED3FE049EC5FEB53DEE5DF06
:103EC0000F90039401FC9058E0E0F1E0A4C057FD8E
:103ED0009058440F551F59F05F3F71F04795880F78
:103EE00097FB991F61F09F3F79F08795089512160F
:103EF00013061406551FF2CF4695F1DF08C01616BB
:103F000017061806991FF1CF86957105610508946B
:103F10000895E894BB2766277727CB0197F9089582
:103F200051DF08F48FEF08950BD0AFCF78DF28F082
:103F30007DDF18F0952309F069CF6ECF1124EACF09
:103F4000C6DFA0F3959FD1F3950F50E0551F629FF8
:103F5000F001729FBB27F00DB11D639FAA27F00DE2
:103F6000B11DAA1F649F6627B00DA11D661F829F09
:103F70002227B00DA11D621F739FB00DA11D621FEE
:103F8000839FA00D611D221F749F3327A00D611D0B
:103F9000231F849F600D211D822F762F6A2F1124ED
:103FA0009F5750408AF0E1F088234AF0EE0FFF1F40
:103FB000BB1F661F771F881F91505040A9F79E3F77
:103FC000510570F023CFA6CF5F3FECF3983EDCF3B2
:103FD000869577956795B795F795E7959F5FC1F7B4
:103FE000FE2B880F911D9695879597F908959F93BD
:103FF00025DF0F9007FCEE5F59CF9F3F31F09150C6
:1040000020F4879577956795B795880F911D9695BC
:10401000879597F908959F938F937F936F93FF935D
:10402000EF939B01AC0180DFEF91FF9105D02F91C1
:104030003F914F915F9178CFDF93CF931F930F9371
:10404000FF92EF92DF927B018C01689405C0DA2E1B
:10405000EF0176DFFE01E894A59125913591459118
:104060005591AEF3EF017EDDFE019701A801DA94D0
:1040700079F7DF90EF90FF900F911F91CF91DF9133
:064080000895F894FFCF43
:00000001FF
