:1000000034C000004EC000004CC000004AC00000D8
:1000100048C0000046C0000044C0000042C00000CC
:1000200040C000008CC500003CC000003AC0000089
:1000300038C0000036C0000034C0000032C00000EC
:1000400030C000002EC000002CC000002AC00000FC
:1000500028C0000026C0000024C0000022C000000C
:1000600020C000001EC00000540611241FBECFEFA8
:10007000D8E0DEBFCDBF11E0A0E0B1E0E2E7F9E1FA
:1000800002C005900D92A231B107D9F721E0A2E19B
:10009000B1E001C01D92AA37B207E1F7B3D20C94C8
:1000A000AD0CAECF20E030E054E046E0F999FECF51
:1000B00007B600FCFDCF92BD81BDFB01022E02C040
:1000C000F695E7950A94E2F7E0BD5FBB4FBB01965A
:1000D000285F3F4F2031310549F70895F999FECF48
:1000E00092BD81BD21E02FBB20B530E0F999FECF54
:1000F000019692BD81BD81E08FBB80B5A901582BCF
:10010000CA0108950F931F93CF93DF930CE611E07C
:10011000C0E0D0E0F801619171918F01CE01C2DFA2
:100120002296CA30D105B1F7DF91CF911F910F917F
:1001300008950F931F93CF93DF930CE611E0C0E077
:10014000D0E0CE01CBDFF801819391938F0122960D
:10015000CA30D105B1F7DF91CF911F910F9108956A
:10016000CF92DF92EF92FF92CF93DF93CCE6D1E074
:10017000C12CD12C76017CD3C701B601C7D361E075
:1001800080E0E6D36991799180E090E0BFD388EE7A
:1001900093E01DD58FEFC81AD80AE80AF80A85E05F
:1001A000C816D104E104F10431F7DF91CF91FF903B
:1001B000EF90DF90CF9008954F925F926F927F9271
:1001C000AF92BF92CF92DF92EF92FF920F931F9365
:1001D000CF93DF932A013B017C0100E010E0A12CCA
:1001E000B12CC0E0D0E0BE0180E090E00E94770A30
:1001F000A30192010E94DA0987FF0AC0F7018191E9
:1002000091917F010F5F1F4F5E01C80FD91FEBCF88
:10021000B50180E090E00E94770A9B01AC01C30128
:10022000B2010E9475096B017C01BE016A197B094C
:1002300080E090E00E94770A9B01AC01C701B60103
:100240000E94DE096B017C01B8016150710980E0F8
:1002500090E00E94770A9B01AC01C701B6010E94A1
:100260007609DF91CF911F910F91FF90EF90DF9072
:10027000CF90BF90AF907F906F905F904F90089518
:100280008F929F92AF92BF92CF92DF92EF92FF92A6
:100290000F931F93CF93DF93CDB7DEB7CA54D140EE
:1002A0000FB6F894DEBF0FBECDBF62EE7FEF8EE1DA
:1002B00090E0F5D38E010F5F1F4F6E018FEBC81AD0
:1002C0008EEFD80A980180E090E0F901E80FF91F5D
:1002D00011821082029680349105B9F7205C3F4F5D
:1002E000C216D30681F7E12C62E0F62E7FE3A72E3B
:1002F000B12C61E0C601D6D4460120E030E0F40123
:10030000819191914F01B5017DD7F90145E0EE0F43
:10031000FF1F4A95E1F7E60FF71FEE0FFF1FE00FF3
:10032000F11F808191810196918380832F5F3F4FE0
:100330002530310521F78BE090E049D4F1E0EF1A48
:10034000F108B9F68CE6E82E81E0F82E96E7C92E82
:1003500091E0D92E4DE35AE067ED73E4C8012CDF3C
:1003600020E030E04CE752E40E94290B0E944B0A47
:10037000F701619371937F01005C1F4FCE16DF067A
:1003800049F788EA90E023D460E070E080E090E0F4
:1003900086D3C65BDE4F0FB6F894DEBF0FBECDBF6F
:1003A000DF91CF911F910F91FF90EF90DF90CF9051
:1003B000BF90AF909F908F900895AF92BF92CF92D1
:1003C000DF92EF92FF920F931F93CF93DF93CDB7FE
:1003D000DEB72F970FB6F894DEBF0FBECDBF61E03A
:1003E000CE0101965FD4FE0131962CE631E05E012C
:1003F0008BE0A80EB11C850161917191D9014D91DD
:100400005D919D0181E04617570708F080E0D80113
:100410008D938D01EA15FB0579F761E080E098D2B4
:100420008EEFC82EDD24DA9400E010E0E12CF12CF0
:10043000F50181915F01882331F0EC0CFD1C0F5F09
:100440001F4F83E201C08FE5B5D1FFEFCF1ADF0A5E
:1004500083E0C816D10461F701151105A1F0B701B9
:10046000FF0C880B990B0E94790A6B017C01B80183
:10047000110F880B990B0E94790A9B01AC01C701EF
:10048000B6019CD704C060E070E08AE794E42F9640
:100490000FB6F894DEBF0FBECDBFDF91CF911F9195
:1004A0000F91FF90EF90DF90CF90BF90AF900895A5
:1004B0000F931F93CF93DF93CDB7DEB72A970FB675
:1004C000F894DEBF0FBECDBF65EB7FEF8BE490E00D
:1004D000E6D288EC90E07BD38E010F5F1F4F8AE05D
:1004E000F80111928A95E9F72D813E818091700182
:1004F000909171012817390780F486E0CFD06BE422
:1005000070E0CD9718F08BE490E002C082E390E0B9
:10051000C6D261E0C801C6D3E7CF69E170E08BE4E1
:1005200090E0BDD280E491E052D32A960FB6F894C1
:10053000DEBF0FBECDBFDF91CF911F910F91089508
:1005400097D187E0ABD0EC01BC0180E090E0DED138
:10055000C135D10508F0ACDF30DF6B017C0120E054
:1005600030E04AE754E426D7811136C06BE470E0EE
:100570008BE490E094D204E610E0C0E0D0E08AE0A2
:1005800090E025D31ADF6B017C0120E030E04AE7E0
:1005900054E410D7882321F02196C330D105E4F428
:1005A0000150110961F72397BCF460E070E080E02E
:1005B00090E075D2C0E0D0E08AE090E008D3FDDEA4
:1005C0006B017C0120E030E04AE754E4F3D681116E
:1005D0002196C330D10584F320E030E048E452E4B2
:1005E000C701B6010E94290B51D72BE430E0261B2E
:1005F000370BCB01855B9F4FB90151D28AE090E068
:10060000E6D29ECF60E070E080E090E048D280913A
:100610007C00806280937C008FEF97E03CD389DD83
:1006200082E379D28AD2823019F42ADE6BDDF8CFE8
:10063000803109F485DF94DDF3CF80917C0085FB68
:10064000882780F90895F9DF882321F080917900C7
:1006500090E008958091780090917900089580321B
:10066000A0F497E890937A0090917C00662311F0B3
:10067000906C02C09F779064907E892B80937C0061
:1006800080917A00806480937A00089560E0E7DFCB
:1006900080917A0086FDFCCFD6CF0895F7CF0895DC
:1006A00081E090E06F9364E06A95F1F76F910197B4
:1006B000C9F708950F931F93CF93DF931AB15798FB
:1006C0005A98289AC0E0D0E0EBDF5C9AE9DF09B1E4
:1006D0005C98E6DF5C9AE4DF5C98249607FF10C024
:1006E000CE01A0E0B0E04091120150911301609161
:1006F00014017091150184179507A607B70720F319
:100700001AB9DF91CF911F910F91089525B1482F0C
:10071000417050E0BA01660F771F382F367098E0AD
:10072000399FA0011124962F942B2D7C922B95B9E3
:100730009BB188708295807F9F77892B8BB95C9A5B
:10074000AFDF5C98ADCFA0E0B0E0E8EAF3E09BC596
:10075000C82FD62EE42E80916801811104C081E05B
:10076000809368012CD0A6DF14B1D5B1FAB00BB1DB
:100770002898DD2011F05A9A01C05A9884B18263FA
:1007800084B9579A81E0E81621F08C2F82958F70FA
:10079000BDDF8C2F8F70BADFFAB80BB914B9D5B999
:1007A000CDB7DEB7E7E08BC542E060E0CCCF42E0FA
:1007B00061E0C9CFFCCF089541E060E0C4CF80E1A3
:1007C00097E2A0E0B0E08093120190931301A09310
:1007D0001401B0931501529A209A549A8EE190E038
:1007E000F6D183E0E9DF86E090E0F1D183E0E4DF59
:1007F00082E090E0ECD183E0DFDF82E090E0E7D1BF
:1008000082E0DADF82E090E0E2D188E2CDDF88E0CA
:10081000CBDF81E0C9DF86E0C7DF8CE0C5CF81E0B8
:10082000C3DF8091180190911901892B01F140E0FB
:1008300050E2242F30E08091010190E00197E09197
:100840000001E89FB001E99F700D112426173707BA
:1008500054F48091180190911901FC01E20FF31FEB
:1008600050834F5FE6CF1092160110921701089542
:10087000D6CF0895AAE0B0E0EFE3F4E003C51AE0B4
:100880002AE0C22ED12CE12CF12C062FA7019601D3
:10089000CDD4CA01B9011150E1E0F0E0EC0FFD1F29
:1008A000E10FF11D005D2AE0629F00191124008311
:1008B000611571058105910541F71A3050F4E1E0A9
:1008C000F0E0EC0FFD1FE10FF11D808170DF1F5F75
:1008D000F4CF2A96E8E0F2C4CF92DF92EF92FF9233
:1008E0006B017C0197FF0AC0F094E094D094C0940F
:1008F000C11CD11CE11CF11C8DE259DFC701B601FE
:10090000B9DFFF90EF90DF90CF900895E5CF089585
:10091000A4E0B0E0EDE8F4E0B9C4082F162F809110
:10092000080190910901A0910A01B0910B018983FE
:100930009A83AB83BC83FE01E60FF11D8181800F9A
:1009400033DF00931601109317012496E4E0BAC434
:10095000DFCF0895982F883050F481E001C0880FD0
:100960009A95EAF7AAE2B0E0EBE2F0E01FC08E3021
:1009700058F4985081E001C0880F9A95EAF7A4E2F4
:10098000B0E0E5E2F0E012C0853158F49E5081E01D
:1009900001C0880F9A95EAF7A7E2B0E0E8E2F0E03C
:1009A00005C080E0A0E0B0E0E0E0F0E090816F3FC3
:1009B00011F4982707C0662311F0982B03C0282F45
:1009C0002095922390839C91892B8C93089583EF9B
:1009D0008093B00084BD82E08093B10085BD109209
:1009E000B4001092B30018BC17BC60E086E0B2DF20
:1009F00060E085E0AFDF60E08BE0ACDF60E083E0EB
:100A0000A9CF80916901811104C081E080936901BF
:100A1000DECF0895CF93DF93EC01F3DFD7FF05C05E
:100A2000D195C195D10981E001C080E0CF3FD105CA
:100A300019F014F0CFEFD0E0882319F018BCC7BD2F
:100A400002C0C8BD17BCDF91CF910895CF93DF934B
:100A5000EC01D7DFD7FF05C0D195C195D10981E061
:100A600001C080E0CF3FD10519F014F0CFEFD0E006
:100A7000882329F01092B400C093B30004C0C0933F
:100A8000B4001092B300DF91CF910895CF93DF931C
:100A9000EB01C0DFCE01DADFDF91CF910895F6CF11
:100AA000089584B18D7C84B985B1826385B985E070
:100AB00090E06F9364E06A95F1F76F910197C9F741
:100AC000089580916A01811104C081E080936A01D8
:100AD000E8CF08951F93CF93DF93182FF2DFC12F34
:100AE000D0E083B190E0809590958C239D23892B55
:100AF000C1F38AE090E06BD083B190E0809590954F
:100B00008C239D23892B69F383B180958123DF9109
:100B1000CF911F910895DECF0895CF93C82FD1DFD5
:100B200083B18C23E9F38AE090E051D083B18C2328
:100B3000B9F383B18C23CF910895EFCF08952F920D
:100B40008F939F932FB6809121019091220101965E
:100B5000809321019093220190E080912301891FCD
:100B60008093230190911B019C5F90931B018091C6
:100B70001A0180519742C0F090931B0180931A0193
:100B800080911C0190911D01019680931C0190930E
:100B90001D0190E080911E01891F80931E018091AC
:100BA0001F01891F80931F012FBE9F918F912F904E
:100BB000189528EE33E0019748F0F9016F9364E04F
:100BC0006A95F1F76F913197C9F7F5CF0895F1CF95
:100BD0000895E0E7F0E080818E7F8083A0EBB0E0B5
:100BE0008C9183608C93A1EBB0E08C91807F8C938F
:100BF0008C9182608C93B89A808181608083789494
:100C0000089580916B01811104C081E080936B0194
:100C1000E0CF0895F6DFE0E7F0E080818E7F80830B
:100C200010921C0110921D0110921E0110921F01C2
:100C300010921B0110921A018081816080830895B7
:100C40000F93CF93DF9300D000D01F92CDB7DEB7C4
:100C50009C0185E0ECE0F1E0DE01119601900D923F
:100C60008A95E1F7662311F00FEF01C003E145E03B
:100C7000BE016F5F7F4F84E291E0AFD084E291E0EC
:100C800085D0C8DF0F900F900F900F900F90DF91DD
:100C9000CF910F91089560E0D3CF462FBC0184E23D
:100CA00091E03FC2FACF089584E291E091C26F9340
:100CB00064E06A95F1F76F910197C9F70895FC0117
:100CC0001182108213821282158214821682683079
:100CD00068F489E290E0918380838BE290E09383D3
:100CE00082838AE290E0958384831FC06E3070F423
:100CF00083E290E09183808385E290E09383828316
:100D000084E290E09583848368500FC0653198F445
:100D100086E290E09183808388E290E093838283EF
:100D200087E290E0958384836E5081E001C0880F54
:100D30006A95EAF786830895A7E0B0E0E1EAF6E075
:100D4000A5C28C01FC0111821082138212821582CD
:100D5000148217821682613118F080E1808702C008
:100D6000FC016087F801208B642FCE010196A7DF7C
:100D70008F81F80181878B819C81938782878D8108
:100D80009E81958784872796E4E09CC2FC01A48518
:100D9000B585109771F09C918185892B8C93A285E4
:100DA000B3859C918185809589238C9388EC90E014
:100DB0007ECF0895FC01A485B585109769F09C91BC
:100DC0008185892B8C93A285B3859C918185892B04
:100DD0008C9388EC90E06BCF0895A7E0B0E0E2EF51
:100DE000F6E048C27C014B01642F3901402F20E01E
:100DF000A3DF270181E4480E511CF2011082670134
:100E0000F2E4CF0ED11CF60110825701F3E4AF0ECD
:100E1000B11CF5011082F70177866686712CF70107
:100E20008085781650F5072D10E0F401E00FF11FD2
:100E30006081CE01019643DF8F81F701E00FF11F42
:100E4000818B29813A81000F111FF701E00FF11FFB
:100E500032A321A32332310511F4F20109C0263255
:100E6000310511F4F60104C02932310521F4F501F0
:100E70009081892B80837394D2CF2796E0E116C2AC
:100E8000A0E0B0E0E5E4F7E0F8C1EC016B015C0143
:100E900031E4A30EB11CD5019C907C01B2E4EB0EB1
:100EA000F11CF70180808C010D5B1F4FD8017C90F5
:100EB00080E09885891748F4F601E80FF11DE80FE6
:100EC000F11D118210828F5FF4CF94B1F501808102
:100ED000892B84B997B1D7018C91892B87B99AB1A5
:100EE000F8018081892B8AB995B1D5018C91892B24
:100EF00085B998B1F7018081892B88B99BB1D80158
:100F00008C91892B8BB98AE090E0D1DE94B1F50108
:100F100080818095892384B997B1D7018C91809580
:100F2000892387B99AB1F8018081809589238AB98C
:100F300095B1D5018C918095892385B998B1F70138
:100F400080818095892388B99BB1D8018C91809547
:100F500089238BB9E090B000B090B1008091B000CF
:100F600083608093B00082E08093B1002091B20052
:100F700080E090E04E855F858417950790F4F090AF
:100F8000B200BF2DB21B8B0F911D23B1921220C056
:100F900026B182121DC039B173121AC0732E2F2DC3
:100FA000E9CFE092B000B092B10080E09885891757
:100FB000C0F5F601E80FF11DE80FF11D2081318128
:100FC000232B21F42E853F85318320838F5FEECF45
:100FD00093B086B039B120E048852417F8F6422F47
:100FE00050E0BA01660F771FF601E60FF71F008188
:100FF00011810115110581F46C0F7D1FDB019196A4
:101000006D917C919297DB016C914C0F5D1FDA0121
:1010100051964C91462311F02F5FDECF9183808350
:10102000FBCFCDB7DEB7EDE044C1EF92FF920F9357
:101030001F93CF93DF93FC018B01E0907C00F09035
:101040007A0037B148B180917A0086FDFCCF80E00C
:101050009085891748F4D801A80FB11DA80FB11DBC
:101060001D921C928F5FF4CF97B182A18095892346
:1010700087B998B182A18095892388B987E8809340
:101080007A0090E081A1981710F480E016C020E06B
:1010900028C020917A0026FDFCCF609178007091E5
:1010A0007900AA0FBB1FA00FB11FCD91DC91119742
:1010B0006C0F7D1F6D937C938F5F2085821778F472
:1010C000A82FB0E0EF01CA0FDB1F2989206420930D
:1010D0007C0020917A00206420937A00DACF9F5F11
:1010E000D1CF8085281798F4E801C20FD11DC20F17
:1010F000D11D61A170E0DB01B595A795888199812B
:101100008A0F9B1F7FD0798368832F5FEACFE0929D
:101110007C00F0927A0048B937B9CDB7DEB7E6E087
:10112000CFC0A0E2B0E0E6E9F8E0ADC08C017B0101
:10113000D42E8FEF840F823010F4C8013BDED8012B
:1011400050968C91B70181110DC0C80199DEC8017C
:101150001DDEB2E0DB1239C0BE016F5F7F4FC801F8
:101160008FDE0CC0C80161DFC80110DEE2E0DE12D4
:101170002CC0BE016F5F7F4FC80157DF40E0D80130
:1011800018968C911897481700F5842F90E0880FD7
:10119000991FF701E80FF91F21E030E02C0F3D1FE8
:1011A000820F931F1E962D913C911F97DC018D910C
:1011B0009C91B901681B790BCB0120813181820F91
:1011C000931F918380834F5FDACFA096E7E077C0CB
:1011D000CF93DF93EC018A819B81009709F034D390
:1011E0008E819F81009709F02FD388819981009784
:1011F00009F02AD38C819D81009709F025D3DF91D6
:10120000CF910895AA1BBB1B51E107C0AA1FBB1FAA
:10121000A617B70710F0A61BB70B881F991F5A9582
:10122000A9F780959095BC01CD010895A1E21A2EF1
:10123000AA1BBB1BFD010DC0AA1FBB1FEE1FFF1F7A
:10124000A217B307E407F50720F0A21BB30BE40BCA
:10125000F50B661F771F881F991F1A9469F7609511
:101260007095809590959B01AC01BD01CF010895CB
:101270002F923F924F925F926F927F928F929F92A6
:10128000AF92BF92CF92DF92EF92FF920F931F9394
:10129000CF93DF93CDB7DEB7CA1BDB0B0FB6F89445
:1012A000DEBF0FBECDBF09942A88398848885F8485
:1012B0006E847D848C849B84AA84B984C884DF80F6
:1012C000EE80FD800C811B81AA81B981CE0FD11DDA
:1012D0000FB6F894DEBF0FBECDBFED010895EE0F3F
:1012E000FF1F0590F491E02D09945058BB27AA27C1
:1012F0000ED075C166D130F06BD120F031F49F3F34
:1013000011F41EF45BC10EF4E095E7FB51C1E92F27
:1013100077D180F3BA17620773078407950718F02F
:1013200071F49EF58FC10EF4E0950B2EBA2FA02D0F
:101330000B01B90190010C01CA01A0011124FF2782
:10134000591B99F0593F50F4503E68F11A16F0407D
:10135000A22F232F342F4427585FF3CF469537957C
:101360002795A795F0405395C9F77EF41F16BA0B41
:10137000620B730B840BBAF09150A1F0FF0FBB1FEF
:10138000661F771F881FC2F70EC0BA0F621F731F38
:10139000841F48F4879577956795B795F7959E3F95
:1013A00008F0B3CF9395880F08F09927EE0F979523
:1013B00087950895D9D008F481E008950CD00FC125
:1013C00007D140F0FED030F021F45F3F19F0F0C0BB
:1013D000511139C1F3C014D198F39923C9F355239E
:1013E000B1F3951B550BBB27AA2762177307840718
:1013F00038F09F5F5F4F220F331F441FAA1FA9F3CE
:1014000033D00E2E3AF0E0E830D091505040E695BF
:10141000001CCAF729D0FE2F27D0660F771F881F20
:10142000BB1F261737074807AB07B0E809F0BB0B0F
:10143000802DBF01FF2793585F4F2AF09E3F510533
:1014400068F0B6C000C15F3FECF3983EDCF38695D0
:1014500077956795B795F7959F5FC9F7880F911DA9
:101460009695879597F90895E1E0660F771F881F95
:10147000BB1F621773078407BA0720F0621B730B48
:10148000840BBA0BEE1F88F7E095089504D068949A
:10149000B111D9C00895BCD088F09F5790F0B92FF2
:1014A0009927B751A0F0D1F0660F771F881F991FB9
:1014B0001AF0BA95C9F712C0B13081F0C3D0B1E0CB
:1014C0000895C0C0672F782F8827B85F39F0B93FDB
:1014D000CCF3869577956795B395D9F73EF49095BB
:1014E0008095709561957F4F8F4F9F4F0895E89439
:1014F00009C097FB3EF490958095709561957F4F5C
:101500008F4F9F4F9923A9F0F92F96E9BB27939509
:10151000F695879577956795B795F111F8CFFAF419
:10152000BB0F11F460FF1BC06F5F7F4F8F4F9F4F4A
:1015300016C0882311F096E911C0772321F09EE8A8
:10154000872F762F05C0662371F096E8862F70E00E
:1015500060E02AF09A95660F771F881FDAF7880FE8
:101560009695879597F90895990F0008550FAA0B3E
:10157000E0E8FEEF16161706E807F907C0F01216A6
:101580001306E407F50798F0621B730B840B950BA9
:1015900039F40A2661F0232B242B252B21F40895FE
:1015A0000A2609F4A140A6958FEF811D811D08959B
:1015B00097F99F6780E870E060E008959FEF80EC06
:1015C000089500240A9416161706180609060895A9
:1015D00000240A9412161306140605060895092E0F
:1015E0000394000C11F4882352F0BB0F40F4BF2B7E
:1015F00011F460FF04C06F5F7F4F8F4F9F4F0895BE
:1016000057FD9058440F551F59F05F3F71F04795B3
:10161000880F97FB991F61F09F3F79F08795089598
:10162000121613061406551FF2CF4695F1DF08C0B7
:10163000161617061806991FF1CF869571056105D4
:1016400008940895E894BB2766277727CB0197F97C
:1016500008950BD0C4CFB5DF28F0BADF18F095237A
:1016600009F0A6CFABCF1124EECFCADFA0F3959F30
:10167000D1F3950F50E0551F629FF001729FBB2779
:10168000F00DB11D639FAA27F00DB11DAA1F649F25
:101690006627B00DA11D661F829F2227B00DA11DD8
:1016A000621F739FB00DA11D621F839FA00D611D5E
:1016B000221F749F3327A00D611D231F849F600D7F
:1016C000211D822F762F6A2F11249F5750408AF0B8
:1016D000E1F088234AF0EE0FFF1FBB1F661F771F44
:1016E000881F91505040A9F79E3F510570F060CF80
:1016F000AACF5F3FECF3983EDCF38695779567952C
:10170000B795F795E7959F5FC1F7FE2B880F911D61
:101710009695879597F908950F931F93CF93DF932D
:101720008230910510F482E090E0E0917801F09130
:10173000790120E030E0A0E0B0E0309719F140817D
:1017400051810281138148175907C8F08417950702
:1017500069F4109731F012960C93129713961C931C
:1017600027C0009378011093790122C0211531051B
:1017700019F04217530718F49A01BD01EF01DF0178
:10178000F801DBCF21153105F9F0281B390B243086
:10179000310580F48A819B816115710521F0FB017F
:1017A0009383828304C09093790180937801FE0132
:1017B000329644C0FE01E20FF31F819391932250B1
:1017C0003109398328833AC020917601309177011D
:1017D000232B41F4209104013091050130937701CE
:1017E00020937601209102013091030121153105EA
:1017F00041F42DB73EB74091060150910701241BDB
:10180000350BE0917601F0917701E217F307A0F430
:101810002E1B3F0B2817390778F0AC014E5F5F4F46
:101820002417350748F04E0F5F1F50937701409300
:1018300076018193919302C0E0E0F0E0CF01DF9167
:10184000CF911F910F910895CF93DF93009709F4E3
:1018500081C0FC01329713821282A0917801B0916D
:101860007901109781F420813181820F931F20919B
:101870007601309177012817390751F5F0937701F8
:10188000E093760167C0ED0120E030E0CE17DF077E
:1018900040F44A815B819E0141155105F1F0EA0156
:1018A000F5CFD383C28340815181840F951FC81720
:1018B000D90759F488819981840F951F02969183E5
:1018C00080838A819B81938382832115310529F44A
:1018D000F0937901E09378013DC0E901FB83EA834D
:1018E00049915991C40FD51FEC17FD0761F4808110
:1018F0009181840F951F0296E901998388838281E3
:1019000093819B838A83E0E0F0E012968D919C9115
:101910001397009719F0FD01DC01F7CF8D919C9191
:1019200011979D012E5F3F4F820F931F20917601EB
:10193000309177012817390769F4309729F410920C
:1019400079011092780102C013821282B09377015C
:10195000A0937601DF91CF91089510E0C4E3D0E029
:1019600003C0FE01BCDC2196C533D107D1F7F89442
:02197000FFCFA7
:10197200080200007A01200080C094D40E0F1011DA
:02198200120051
:00000001FF
