:1000000034C000004EC000004CC000004AC00000D8
:1000100048C0000046C0000044C0000042C00000CC
:1000200040C0000063C500003CC000003AC00000B2
:1000300038C0000036C0000034C0000032C00000EC
:1000400030C000002EC000002CC000002AC00000FC
:1000500028C0000026C0000024C0000022C000000C
:1000600020C000001EC000002B0611241FBECFEFD1
:10007000D8E0DEBFCDBF11E0A0E0B1E0E2EFF4E1F7
:1000800002C005900D92A635B107D9F721E0A6E58B
:10009000B1E001C01D92AC3BB207E1F7A5D20C94D0
:1000A0006D0AAECF97FF03C0919581959109089590
:1000B000CF93DF93ECE7F0E080818062808386E07D
:1000C000E3D2C4EBD1E09B838A8387E0DDD29983BE
:1000D0008883DF91CF910895CF93DF93CDB7DEB7BB
:1000E000A8970FB6F894DEBF0FBECDBF98E2E8E048
:1000F000F1E0DE01119601900D929A95E1F7E1E0B1
:10010000F0E0EC0FFD1F98E0899FE00DF11D112438
:1001100040E050E0A0EDB7E080E021913191261B56
:10012000370B37FF03C03195219531092A173B075B
:1001300014F4D901842F4F5F5F4F4430510569F7A4
:10014000A8960FB6F894DEBF0FBECDBFDF91CF915A
:100150000895CF93DF93CDB7DEB72A970FB6F89403
:10016000DEBF0FBECDBF61E0CE01019672D57E012C
:1001700083E0E80EF11C11E0F70160817181812FAD
:10018000ABDF90E0F701819391937F011F5F143003
:1001900099F760E080E0C4D36B817C8180E090E0DF
:1001A0009DD360E085E0BCD36D817E8180E090E0EE
:1001B00095D361E080E0B4D36F81788580E090E0F2
:1001C0008DD361E085E0ACD369857A8580E090E0ED
:1001D00085D384E690E0D2D4C6CFAF92BF92CF92BF
:1001E000DF92EF92FF920F931F93CF93DF93CDB7E0
:1001F000DEB72A970FB6F894DEBF0FBECDBF8E01D3
:100200000F5F1F4F8AE0F80111928A95E9F761E0CC
:10021000C8011FD5680100E010E0E12CF12CAA24F0
:10022000A394B12C61E0802F7BD3F6018191919151
:100230006F018F39924060F0C501002E02C0880F17
:10024000991F0A94E2F7E82AF92A89E391E002C0AB
:100250008BE391E00FD30F5F1F4F0530110511F7AE
:10026000C7012A960FB6F894DEBF0FBECDBFDF914F
:10027000CF911F910F91FF90EF90DF90CF90BF90A3
:10028000AF900895AC0120E030E081E090E02617C7
:1002900037075CF4FC01E49FC001E59F900DF49FDB
:1002A000900D11242F5F3F4FF2CF0895CF93DF932E
:1002B000CDB7DEB72A970FB6F894DEBF0FBECDBF1D
:1002C0008E010F5F1F4F8AE0F80111928A95E9F7BE
:1002D0007E01FBE0EF0EF11CCC24C394D12C97E0FF
:1002E000992E26E4A22EB12CE3DE61E0C801B1D440
:1002F00074DF209158013091590181FF02C020E044
:1003000030E082FF02C020E030E083FF02C020E046
:1003100030E084FF02C020E030E0309359012093A8
:100320005801283031050CF09BC020E030E0412C12
:10033000512C3201A601022E02C0440F551F0A940F
:10034000E2F748235923452B21F121303105B1F043
:100350004CF421153105E9F445E0441A51086108CF
:10036000710817C02330310579F02430310589F444
:1003700045E0440E511C611C711C0BC0E2E04E1A9A
:1003800051086108710805C0F2E04F0E511C611C54
:10039000711C2F5F3F4F2530310561F6949C900111
:1003A000959C300D1124C9018A5B9F4F85369105BC
:1003B00034F48A3091052CF48AE090E002C084E69F
:1003C00090E0B501621B730B6536710534F46A3039
:1003D00071052CF46AE070E002C064E670E048D376
:1003E0008091B4019091B501853691053CF48091DE
:1003F000B6019091B7018536910574F189859A858A
:100400008431E5E09E0738F48091560190915701C0
:10041000019791F409C08431954071F080915601A3
:1004200090915701892B41F466E470E086E490E0F6
:100430001FD384EF91E0A2D36AEB7FEF8AEB9FEFAB
:1004400017D388EE93E09AD36AEB7FEF86E490E0CF
:100450000FD380E293E092D382E390E08FD344CF36
:100460008DE391E007D264EC7FEF84EC9FEF00D343
:1004700061E0C801EED38091580190915901009735
:1004800029F410925901109258012ECFF8012191B0
:1004900031912330310511F480E090E0EE15FF0535
:1004A000B1F7EDCFCF93DF93CDB7DEB72A970FB675
:1004B000F894DEBF0FBECDBFCE0101967C018AE06D
:1004C000F70111928A95E9F788DE8C0161E0C70196
:1004D000C0D39801227033273C832B83A80144703A
:1004E00055275E834D83C8018870992798878F832D
:1004F000452BA9F00A701127012B19F466E470E06E
:1005000019C0232B39F0892BE9F466E470E081E40B
:1005100090E017C0892B89F061E470E00BC0232BB9
:1005200029F066E470E08EE190E00BC0892B29F0A1
:100530006EE170E086E490E004C062EE7FEF80EE52
:100540009FEF96D2B5DD8091B4019091B5018536CB
:10055000910544F48091B6019091B70185369105DB
:100560000CF43EC089859A858431F5E09F0738F404
:100570008091560190915701019711F509C084317E
:100580009540F1F08091560190915701892BC1F46B
:1005900066E470E086E490E06BD284EF91E0EED206
:1005A0006AEB7FEF8AEB9FEF63D288EE93E0E6D2AF
:1005B0006AEB7FEF86E490E05BD288E592E00FC0C3
:1005C0006AEB7FEF8AEB9FEF53D288EE93E0D6D2AF
:1005D0006AEB7FEF86E490E04BD280E293E0CED2EC
:1005E0008EE190E0CBD270CF80ED97E02BD360E02E
:1005F00070E080E090E03CD282E276D2823049F432
:1006000081E090E0909357018093560182E491E05D
:1006100002C088E491E02ED18CE491E02BD180E1FE
:1006200063D21BD13FDF80917C0085FB882780F956
:100630000895F9DF882321F08091790090E00895F2
:10064000809178009091790008958032A0F497E825
:1006500090937A0090917C00662311F0906C02C018
:100660009F779064907E892B80937C0080917A00A4
:10067000806480937A00089560E0E7DF80917A00DB
:1006800086FDFCCFD6CF0895F7CF089581E090E0A6
:100690006F9364E06A95F1F76F910197C9F7089538
:1006A0000F931F93CF93DF931AB157985A98289AB4
:1006B000C0E0D0E0EBDF5C9AE9DF09B15C98E6DFEF
:1006C0005C9AE4DF5C98249607FF10C0CE01A0E09E
:1006D000B0E040915A0150915B0160915C017091D2
:1006E0005D0184179507A607B70720F31AB9DF91B4
:1006F000CF911F910F91089525B1482F417050E07F
:10070000BA01660F771F382F367098E0399FA00125
:100710001124962F942B2D7C922B95B99BB1887028
:100720008295807F9F77892B8BB95C9AAFDF5C982D
:10073000ADCF0895A0E0B0E0EFE9F3E07BC5C82FAE
:10074000D62EE42E8091B001811104C081E0809307
:10075000B0012AD0A5DF14B1D5B1FAB00BB12898F9
:10076000DD2011F05A9A01C05A9884B1826384B98D
:10077000579A81E0E81621F08C2F82958F70BCDFAC
:100780008C2F8F70B9DFFAB80BB914B9D5B9CDB7C2
:10079000DEB7E7E06BC542E060E0CCCF42E061E06D
:1007A000C9CF41E060E0C6CF80E197E2A0E0B0E0D1
:1007B00080935A0190935B01A0935C01B0935D011B
:1007C000529A209A549A8EE190E0D8D183E0E9DFE2
:1007D00086E090E0D3D183E0E4DF82E090E0CED108
:1007E00083E0DFDF82E090E0C9D182E0DADF82E0FF
:1007F00090E0C4D188E2CFDF88E0CDDF81E0CBDFBD
:1008000086E0C9DF8CE0C7CF81E0C5DF8091600161
:1008100090916101892B01F140E050E2242F30E0FA
:100820008091010190E00197E0910001E89FB00103
:10083000E99F700D11242617370754F48091600149
:1008400090916101FC01E20FF31F50834F5FE6CFEF
:1008500010925E0110925F010895D6CF0895CF9354
:10086000DF93EC018991882311F098DFFBCFDF91B2
:10087000CF910895F4CF0895AAE0B0E0E1E4F4E068
:10088000D8C41AE02AE0C22ED12CE12CF12C062F7C
:10089000A7019601A2D4CA01B9011150E1E0F0E02C
:1008A000EC0FFD1FE10FF11D005D2AE0629F0019B2
:1008B00011240083611571058105910541F71A30F6
:1008C00050F4E1E0F0E0EC0FFD1FE10FF11D80813D
:1008D00065DF1F5FF4CF2A96E8E0C7C4CDCF089547
:1008E000A4E0B0E0E5E7F4E0A8C4082F162F80915B
:1008F000300190913101A0913201B091330189838F
:100900009A83AB83BC83FE01E60FF11D8181800FCA
:1009100042DF00935E0110935F012496E4E0A9C4D6
:10092000DFCF0895982F883050F481E001C0880F00
:100930009A95EAF7AAE2B0E0EBE2F0E01FC08E3051
:1009400058F4985081E001C0880F9A95EAF7A4E224
:10095000B0E0E5E2F0E012C0853158F49E5081E04D
:1009600001C0880F9A95EAF7A7E2B0E0E8E2F0E06C
:1009700005C080E0A0E0B0E0E0E0F0E090816F3FF3
:1009800011F4982707C0662311F0982B03C0282F75
:100990002095922390839C91892B8C93089583EFCB
:1009A0008093B00084BD82E08093B10085BD109239
:1009B000B4001092B30018BC17BC60E086E0B2DF50
:1009C00060E085E0AFDF60E08BE0ACDF60E083E01B
:1009D000A9CF08958091B101811104C081E0809375
:1009E000B101DDCF0895CF93DF93EC01F3DFD7FFA3
:1009F00005C0D195C195D10981E001C080E0CF3F0C
:100A0000D10519F014F0CFEFD0E0882319F018BC0D
:100A1000C7BD02C0C8BD17BCDF91CF910895CF9369
:100A2000DF93EC01D7DFD7FF05C0D195C195D10980
:100A300081E001C080E0CF3FD10519F014F0CFEF85
:100A4000D0E0882329F01092B400C093B30004C012
:100A5000C093B4001092B300DF91CF910895CF936B
:100A6000DF93EB01C0DFCE01DADFDF91CF91089594
:100A7000F6CF089584B18D7C84B985B1826385B940
:100A800085E090E06F9364E06A95F1F76F910197CC
:100A9000C9F708958091B201811104C081E080936B
:100AA000B201E8CF08951F93CF93DF93182FF2DFA1
:100AB000C12FD0E083B190E0809590958C239D2349
:100AC000892BC1F38AE090E059D083B190E0809502
:100AD00090958C239D23892B69F383B18095812385
:100AE000DF91CF911F910895DECF08952F928F93BC
:100AF0009F932FB68091690190916A01019680932E
:100B0000690190936A0190E080916B01891F809345
:100B10006B01909163019C5F9093630180916201EE
:100B200080519742C0F0909363018093620180915D
:100B30006401909165010196809364019093650131
:100B400090E080916601891F809366018091670122
:100B5000891F809367012FBE9F918F912F901895C9
:100B600028EE33E0019748F0F9016F9364E06A954D
:100B7000F1F76F913197C9F7F5CF0895F1CF089547
:100B8000E0E7F0E080818E7F8083A0EBB0E08C9185
:100B900083608C93A1EBB0E08C91807F8C938C91DF
:100BA00082608C93B89A8081816080837894089564
:100BB0008091B301811104C081E08093B301E0CF43
:100BC0000895F6DFE0E7F0E080818E7F8083109269
:100BD00064011092650110926601109267011092F3
:100BE00063011092620180818160808308950F9378
:100BF000CF93DF9300D000D01F92CDB7DEB79C011A
:100C000085E0E4E3F1E0DE01119601900D928A9512
:100C1000E1F7662311F00FEF01C003E145E0BE01EB
:100C20006F5F7F4F8CE691E0AFD08CE691E085D08E
:100C3000C8DF0F900F900F900F900F90DF91CF9122
:100C40000F91089560E0D3CF462FBC018CE691E070
:100C50003FC2FACF08958CE691E091C26F9364E0B1
:100C60006A95F1F76F910197C9F70895FC01118218
:100C7000108213821282158214821682683068F400
:100C800089E290E0918380838BE290E0938382837A
:100C90008AE290E0958384831FC06E3070F483E213
:100CA00090E09183808385E290E09383828384E265
:100CB00090E09583848368500FC0653198F486E294
:100CC00090E09183808388E290E09383828387E23F
:100CD00090E0958384836E5081E001C0880F6A950F
:100CE000EAF786830895A7E0B0E0E8E7F6E0A5C25A
:100CF0008C01FC01118210821382128215821482EF
:100D000017821682613118F080E1808702C0FC01F1
:100D10006087F801208B642FCE010196A7DF8F81B9
:100D2000F80181878B819C81938782878D819E8149
:100D3000958784872796E4E09CC2FC01A485B5854D
:100D4000109771F09C918185892B8C93A285B38536
:100D50009C918185809589238C9388EC90E07ECF4F
:100D60000895FC01A485B585109769F09C91818553
:100D7000892B8C93A285B3859C918185892B8C933B
:100D800088EC90E06BCF0895A7E0B0E0E9ECF6E0E6
:100D900048C27C014B01642F3901402F20E0A3DFC2
:100DA000270181E4480E511CF20110826701F2E430
:100DB000CF0ED11CF60110825701F3E4AF0EB11C27
:100DC000F5011082F70177866686712CF701808520
:100DD000781650F5072D10E0F401E00FF11F608147
:100DE000CE01019643DF8F81F701E00FF11F818B68
:100DF00029813A81000F111FF701E00FF11F32A383
:100E000021A32332310511F4F20109C02632310544
:100E100011F4F60104C02932310521F4F501908165
:100E2000892B80837394D2CF2796E0E116C2A0E08D
:100E3000B0E0ECE1F7E0F8C1EC016B015C0131E4FA
:100E4000A30EB11CD5019C907C01B2E4EB0EF11C09
:100E5000F70180808C010D5B1F4FD8017C9080E0F2
:100E60009885891748F4F601E80FF11DE80FF11D88
:100E7000118210828F5FF4CF94B1F5018081892BAC
:100E800084B997B1D7018C91892B87B99AB1F801B0
:100E90008081892B8AB995B1D5018C91892B85B92F
:100EA00098B1F7018081892B88B99BB1D8018C91C9
:100EB000892B8BB98AE090E0D1DE94B1F501808175
:100EC0008095892384B997B1D7018C918095892326
:100ED00087B99AB1F8018081809589238AB995B143
:100EE000D5018C918095892385B998B1F7018081CE
:100EF0008095892388B99BB1D8018C9180958923ED
:100F00008BB9E090B000B090B1008091B0008360E8
:100F10008093B00082E08093B1002091B20080E025
:100F200090E04E855F858417950790F4F090B200AD
:100F3000BF2DB21B8B0F911D23B1921220C026B181
:100F400082121DC039B173121AC0732E2F2DE9CF32
:100F5000E092B000B092B10080E098858917C0F5AA
:100F6000F601E80FF11DE80FF11D20813181232BDF
:100F700021F42E853F85318320838F5FEECF93B0A0
:100F800086B039B120E048852417F8F6422F50E0AA
:100F9000BA01660F771FF601E60FF71F0081118176
:100FA0000115110581F46C0F7D1FDB0191966D9188
:100FB0007C919297DB016C914C0F5D1FDA01519689
:100FC0004C91462311F02F5FDECF91838083FBCFBE
:100FD000CDB7DEB7EDE044C1EF92FF920F931F93C0
:100FE000CF93DF93FC018B01E0907C00F0907A00BE
:100FF00037B148B180917A0086FDFCCF80E09085C2
:10100000891748F4D801A80FB11DA80FB11D1D9272
:101010001C928F5FF4CF97B182A18095892387B905
:1010200098B182A18095892388B987E880937A0056
:1010300090E081A1981710F480E016C020E028C04D
:1010400020917A0026FDFCCF6091780070917900A4
:10105000AA0FBB1FA00FB11FCD91DC9111976C0F90
:101060007D1F6D937C938F5F2085821778F4A82F66
:10107000B0E0EF01CA0FDB1F2989206420937C00B8
:1010800020917A00206420937A00DACF9F5FD1CF3D
:101090008085281798F4E801C20FD11DC20FD11D19
:1010A00061A170E0DB01B595A795888199818A0FD0
:1010B0009B1F7FD0798368832F5FEACFE0927C000B
:1010C000F0927A0048B937B9CDB7DEB7E6E0CFC0C5
:1010D000A0E2B0E0EDE6F8E0ADC08C017B01D42EDB
:1010E0008FEF840F823010F4C8013BDED801509698
:1010F0008C91B70181110DC0C80199DEC8011DDEB8
:10110000B2E0DB1239C0BE016F5F7F4FC8018FDED6
:101110000CC0C80161DFC80110DEE2E0DE122CC0A5
:10112000BE016F5F7F4FC80157DF40E0D8011896BE
:101130008C911897481700F5842F90E0880F991F1D
:10114000F701E80FF91F21E030E02C0F3D1F820F5F
:10115000931F1E962D913C911F97DC018D919C91C0
:10116000B901681B790BCB0120813181820F931F5C
:10117000918380834F5FDACFA096E7E077C0CF936B
:10118000DF93EC018A819B81009709F01DD18E814C
:101190009F81009709F018D188819981009709F003
:1011A00013D18C819D81009709F00ED1DF91CF91F1
:1011B0000895AA1BBB1B51E107C0AA1FBB1FA6179E
:1011C000B70710F0A61BB70B881F991F5A95A9F7F0
:1011D00080959095BC01CD010895A1E21A2EAA1B1D
:1011E000BB1BFD010DC0AA1FBB1FEE1FFF1FA217D7
:1011F000B307E407F50720F0A21BB30BE40BF50BD4
:10120000661F771F881F991F1A9469F7609570955C
:10121000809590959B01AC01BD01CF0108952F925F
:101220003F924F925F926F927F928F929F92AF9276
:10123000BF92CF92DF92EF92FF920F931F93CF93C3
:10124000DF93CDB7DEB7CA1BDB0B0FB6F894DEBF5A
:101250000FBECDBF09942A88398848885F846E8480
:101260007D848C849B84AA84B984C884DF80EE80CA
:10127000FD800C811B81AA81B981CE0FD11D0FB6D3
:10128000F894DEBF0FBECDBFED010895EE0FFF1F36
:101290000590F491E02D09940F931F93CF93DF9362
:1012A0008230910510F482E090E0E091BA01F09173
:1012B000BB0120E030E0A0E0B0E0309719F14081C0
:1012C00051810281138148175907C8F08417950787
:1012D00069F4109731F012960C93129713961C93A1
:1012E00027C00093BA011093BB0122C0211531051C
:1012F00019F04217530718F49A01BD01EF01DF01FD
:10130000F801DBCF21153105F9F0281B390B24300A
:10131000310580F48A819B816115710521F0FB0103
:101320009383828304C09093BB018093BA01FE0132
:10133000329644C0FE01E20FF31F81939193225035
:101340003109398328833AC02091B8013091B9011D
:10135000232B41F420910401309105013093B90110
:101360002093B8012091020130910301211531052C
:1013700041F42DB73EB74091060150910701241B5F
:10138000350BE091B801F091B901E217F307A0F431
:101390002E1B3F0B2817390778F0AC014E5F5F4FCB
:1013A0002417350748F04E0F5F1F5093B901409343
:1013B000B8018193919302C0E0E0F0E0CF01DF91AA
:1013C000CF911F910F910895CF93DF93009709F468
:1013D00081C0FC01329713821282A091BA01B091B0
:1013E000BB01109781F420813181820F931F2091DE
:1013F000B8013091B9012817390751F5F093B901B7
:10140000E093B80167C0ED0120E030E0CE17DF07C0
:1014100040F44A815B819E0141155105F1F0EA01DA
:10142000F5CFD383C28340815181840F951FC817A4
:10143000D90759F488819981840F951F0296918369
:1014400080838A819B81938382832115310529F4CE
:10145000F093BB01E093BA013DC0E901FB83EA834D
:1014600049915991C40FD51FEC17FD0761F4808194
:101470009181840F951F0296E90199838883828167
:1014800093819B838A83E0E0F0E012968D919C919A
:101490001397009719F0FD01DC01F7CF8D919C9116
:1014A00011979D012E5F3F4F820F931F2091B8012E
:1014B0003091B9012817390769F4309729F410924F
:1014C000BB011092BA0102C013821282B093B9011B
:1014D000A093B801DF91CF91089510E0C4E3D0E06C
:1014E00003C0FE01D3DE2196C533D107D1F7F894AE
:0214F000FFCF2C
:1014F20008020000BC012000000000000000000003
:101502008601E0015C03B004FA005E016202B004ED
:10151200860126028403B0040000000000000000DF
:1015220080C094D40E0F1011123100300054657334
:101532007400677275656E00726F74005072657325
:06154200732042210000AD
:00000001FF
