:1000000064C000007EC000007CC000007AC0000018
:1000100078C0000076C0000074C0000072C000000C
:1000200070C00000FCC600006CC000006AC0000088
:1000300068C0000066C0000064C0000062C000002C
:1000400060C000005EC0000016C60000C4C600000C
:1000500058C0000056C0000054C0000052C000004C
:1000600050C000004EC000000D0A0020205B656DEE
:100070007074795D0D0A00726F626F6C69622F7324
:100080007472696E672F737472696E672E632030A5
:10009000352E31302E323031352056312E312E3042
:1000A0000D0A000D0A0020205B656D7074795D0DEE
:1000B0000A00737472696E673A0D0A0066616C73A8
:1000C0006500747275650000C20711241FBECFEF72
:1000D000D8E0DEBFCDBF11E0A0E0B1E0E4E8F8E198
:1000E00002C005900D92A635B107D9F712E0A6E53A
:1000F000B1E001C01D92A031B107E1F7F4D20C9438
:10010000360C7ECFDC011296ED91FC91139716967A
:100110008C9190816F3F11F4982703C0662319F0EA
:10012000982B908308958095892380830895CF9399
:10013000DF931F92CDB7DEB7898361E0CE010196D0
:1001400048D60F90DF91CF910895CF93DF93CDB72D
:10015000DEB727970FB6F894DEBF0FBECDBF29E2FA
:1001600030E03A8329832BE230E03C832B832AE280
:1001700030E03E832D8392E09F83682FCE0101966D
:10018000C1DFED81FE8180819F81892B808327964D
:100190000FB6F894DEBF0FBECDBFDF91CF910895AB
:1001A000CF93DF93CDB7DEB727970FB6F894DEBFB6
:1001B0000FBECDBF29E230E03A8329832BE230E045
:1001C0003C832B832AE230E03E832D8390E89F839B
:1001D000682FCE01019696DFED81FE8180819F819F
:1001E000892B808327960FB6F894DEBF0FBECDBF54
:1001F000DF91CF9108951092570160E071EE80E099
:1002000090E08BD560E48CEB91E033C5B3D4909152
:1002100057018917D9F3E92FF0E0E454FE4F8081AC
:100220009F5F903418F490935701089510925701EE
:100230000895CF93DF93EC01D7FF06C08DE277DFFF
:10024000D195C195D109F8CFCA30D1053CF0CE0186
:100250006AE070E00E949D0ACB01EBDFCE016AE00C
:1002600070E00E949D0A805DDF91CF9160CFBC015C
:1002700087E990E0C4C1ECE7F0E080818062808390
:1002800086E094D2909309028093080287E08ED290
:10029000909307028093060208952A982298089561
:1002A00083B1847090E00895883522E0920768F069
:1002B0008C3B22E0920728F0883E934020F482E0B5
:1002C000089581E0089583E0089580E00895CF9334
:1002D000DF93D1DF80910602909107028D972CF475
:1002E00068E270E084E690E097C061E08CEF91E016
:1002F00017D68091020290910302D6DFC82F809119
:10030000040290910502D0DFD82F60E080E05CD33A
:100310006C2F70E080E090E038D360E085E054D34B
:100320006D2F70E080E090E030D3CD1305C0C33076
:1003300031F0C09356013DC0D33009F03AC08091EE
:10034000560190910B02891711F0811132C064E1BE
:1003500070E084E190E0E3D384EF91E0A8D51A9BAC
:1003600021C08FE091E083DF81E01ADF84E690E036
:100370009ED56EEC7FEF82E390E0D1D387E791E0EA
:1003800096D566E470E086E490E0C9D388E592E013
:100390008ED56EEC7FEF8EEC9FEFC1D38EE591E0B2
:1003A00086D50EC08FE291E062DF80E0DF91CF91D1
:1003B000F7CE80910802909109028035910554F0A2
:1003C00062E370E08EEC9FEFAAD387E791E0DF91C4
:1003D000CF916DC580910602909107029C01225831
:1003E00031092E31310518F462E370E00EC0803A15
:1003F00091052CF062E370E088E290E00DC08D97EB
:100400008535910528F468E270E082E390E004C04D
:1004100060E070E080E090E0DF91CF9180C3FF92D8
:100420000F931F93CF93DF9300D000D000D0CDB7B0
:10043000DEB78C01CB01413208F040E250E02AE007
:1004400030E0FF24F394F50EE1E0F0E0EC0FFD1F47
:10045000E50FF11DB9010E94890A805D8083CB01FF
:10046000009711F05F2DEDCFF41638F480E24E8343
:10047000F80109954E814150F7CFFA94FFEFFF162E
:1004800051F0E1E0F0E0EC0FFD1FEF0DF11D808178
:10049000F8010995F2CF26960FB6F894DEBF0FBE8D
:1004A000CDBFDF91CF911F910F91FF9008950F93D2
:1004B0001F93CF93DF9300D01F92CDB7DEB78C018F
:1004C00077FF13C07195619571098DE24B83698344
:1004D0007A83F80109954B8169817A81413218F458
:1004E000442319F001C040E24150C8010F900F9021
:1004F0000F90DF91CF911F910F9191CFEF92FF92CB
:100500000F931F93CF93DF931F92CDB7DEB77C017C
:100510008B0147FF09C0419580E34983F7010995A5
:1005200088E7F70109954981453054F484E090E06B
:10053000841B910947FD9395982F990F990F01C03E
:1005400090E0092E02C0000F111F0A94E2F79031CB
:100550009CF4812F82958F708A3010F4805D01C0E9
:10056000895C9983F701099584E0000F111F8A9532
:10057000E1F799819C5FEBCF0F90DF91CF911F91B5
:100580000F91FF90EF900895CF92DF92FF920F931B
:100590001F93CF93DF931F92CDB7DEB76C018B0112
:1005A00047FF09C0419580E34983F601099582E63A
:1005B000F60109954981413124F420E1F22EF41A23
:1005C00001C0F12C0F2C02C0000F111F0A94E2F79A
:1005D000FFE0FF155CF017FF02C081E301C080E37C
:1005E000F6010995000F111FF394F2CF0F90DF91E0
:1005F000CF911F910F91FF90DF90CF9008950F93AF
:100600001F93CF93DF938C01EB018991882319F01D
:10061000F8010995FACFDF91CF911F910F910895BD
:100620000F931F93CF93DF93EC01FB0184918B0118
:100630000F5F1F4F882321F0FE010995B801F5CF08
:10064000DF91CF911F910F910895662319F062EC0D
:1006500070E002C06CEB70E0E3CFFF920F931F934A
:10066000CF93DF93EC014150FB014F3FB1F08491F8
:100670008F010F5F1F4FFF24FA94F40E811108C001
:10068000142F112351F080E2FE0109951150F9CF8A
:10069000FE010995F8014F2DE8CFDF91CF911F9111
:1006A0000F91FF900895CF93DF93EC0162EB70E020
:1006B000B7DF66EA70E0CE01B3DF63EA70E0CE0137
:1006C000DF91CF91ADCFCF93DF93EC0167E770E07F
:1006D000A7DF6BE670E0CE01A3DF68E670E0CE0135
:1006E000DF91CF919DCF60E070E080E090E017D285
:1006F00082DDD3DD80ED97E043D482E039D28823D8
:1007000049F082E035D2882351F081E080930B02DA
:1007100047DD0AC080E22CD2882379F3F2CF82E051
:1007200080930B0281E011DD80ED97E0C0D3C1E042
:10073000CEDD83B1847034DD83B182FB882780F9FC
:100740008C2703DD8AE090E0B2D3F2CF80917C0069
:1007500085FB882780F90895F9DF882321F08091AF
:10076000790090E008958091780090917900089543
:100770008032A0F497E890937A0090917C006623F1
:1007800011F0906C02C09F779064907E982B9093AC
:100790007C0080917A00806480937A00089560E004
:1007A000E7DF80917A0086FDFCCFD6CFF8CF0895A1
:1007B00081E090E06F9364E06A95F1F76F910197A3
:1007C000C9F708950F931F93CF93DF931AB15798EA
:1007D0005A98289AC0E0D0E0EBDF5C9AE9DF09B1D3
:1007E0005C98E6DF5C9AE4DF5C98249607FF10C013
:1007F000AE0160E070E08091580190915901A091A4
:100800005A01B0915B01481759076A077B0720F32B
:100810001AB9DF91CF911F910F91089595B1282FAB
:10082000217030E0220F331F482F467068E0469F4A
:10083000A0011124242B9D7C292B25B99BB1887004
:100840008295807F9F77892B8BB95C9AB1DF5C980A
:10085000AFCFA0E0B0E0EEE2F4E0AFC6C82FD62EF6
:10086000E42E8091B801811104C081E08093B80129
:100870002AD0A8DF14B1D5B1FAB00BB12898DD2089
:1008800011F05A9A01C05A9894B1926394B9579A48
:1008900081E0E81621F08C2F82958F70BFDF8C2FBE
:1008A0008F70BCDFFAB80BB914B9D5B9CDB7DEB7C4
:1008B000E7E09FC642E060E0CCCF42E061E0C9CF14
:1008C00041E060E0C6CF80E197E2A0E0B0E0809335
:1008D000580190935901A0935A01B0935B01529A29
:1008E000209A549A8EE190E0E2D283E0E9DF86E03C
:1008F00090E0DDD283E0E4DF82E090E0D8D283E0D4
:10090000DFDF82E090E0D3D282E0DADF82E090E0C5
:10091000CED288E2CFDF88E0CDDF81E0CBDF86E09A
:10092000C9DF8CE0C7CFAAE0B0E0E8E9F4E044C654
:100930001AE05AE0C52ED12CE12CF12C062FA7018C
:1009400096010ED6CA01B9011150E1E0F0E0EC0FBA
:10095000FD1FE10FF11D005D2AE0629F00191124C7
:100960000083611571058105910541F71A3050F436
:10097000E1E0F0E0EC0FFD1FE10FF11D80819DDF54
:100980001F5FF4CF2A96E8E033C6CDCF0895A5E0E7
:10099000B0E0ECECF4E015C6182F80E8898380EC19
:1009A0008A8384E98B8384ED8C83FE01E60FF11D3D
:1009B0008181810F6D837EDF10935C016D81609377
:1009C0005D012596E3E019C6E2CF0895883058F41A
:1009D00091E001C0990F8A95EAF7892FAAE2B0E069
:1009E000EBE2F0E021C08E3060F498EF980F81E0E8
:1009F00001C0880F9A95EAF7A4E2B0E0E5E2F0E0E2
:100A000013C0853160F492EF980F81E001C0880F28
:100A10009A95EAF7A7E2B0E0E8E2F0E005C080E0EE
:100A2000A0E0B0E0E0E0F0E06F3F19F4908198279B
:100A300009C0662319F09081982B04C02081982F5B
:100A40009095922390839C91982B9C93089583EF8B
:100A50008093B00084BD82E08093B10085BD109288
:100A6000B4001092B30018BC17BC60E086E0AEDFA3
:100A700060E085E0ABDF60E08BE0A8DF60E083E072
:100A8000A5CF8091B901811104C081E08093B901A3
:100A9000DECF0895CF93DF93EC01F3DFD7FF05C0DE
:100AA000D195C195D10981E001C080E0CF3FD1054A
:100AB00019F014F0CFEFD0E0882319F018BCC7BDAF
:100AC00002C0C8BD17BCDF91CF910895CF93DF93CB
:100AD000EC01D7DFD7FF05C0D195C195D10981E0E1
:100AE00001C080E0CF3FD10519F014F0CFEFD0E086
:100AF000882329F01092B400C093B30004C0C093BF
:100B0000B4001092B300DF91CF910895CF93DF939B
:100B1000EB01C0DFCE01DADFDF91CF910895F6CF90
:100B2000089584B18D7C84B985B1826385B985E0EF
:100B300090E06F9364E06A95F1F76F910197C9F7C0
:100B400008958091BA01811104C081E08093BA01B7
:100B5000E8CF0895A1E0B0E0EFEAF5E033C589837E
:100B6000F0DF93B19095898189232196E2E046C513
:100B7000F1CF0895809162010895282F30E09AE026
:100B8000899FF0011124E05AFE4F808591850097DE
:100B900021F052814481541780F08AE0829FF00155
:100BA000839FF00D1124E05AFE4F928184819813A7
:100BB0000EC0858181110AC008954281DC01A40F15
:100BC000B11D6C9382818F5F8283E7CF128208957B
:100BD000CF93DF939091C1009F779093C100C82F6E
:100BE000D0E09AE0899FF0011124E05AFE4F208561
:100BF0003185232B41F022819481291720F4909193
:100C0000C00097FD11C08AE08C9FF0018D9FF00D10
:100C10001124E05AFE4F808181110AC08091C100E9
:100C200080688093C10004C06091C600A6DFEBCF4E
:100C3000DF91CF9108959091C1009F779093C1006B
:100C40009AE0899FF0011124E05AFE4F7187608776
:100C50001282448325838081811105C08091C10067
:100C600080688093C1000895462F21E0BC0180E098
:100C7000E2CFFACF08951F920F920FB60F92112470
:100C80002F933F934F935F936F937F938F939F9394
:100C9000AF93BF93EF93FF936091C60080E06DDF49
:100CA000FF91EF91BF91AF919F918F917F916F9144
:100CB0005F914F913F912F910F900FBE0F901F901A
:100CC00018959AE0899FF0011124E05AFE4F868121
:100CD0009781892B59F091818381981738F480810D
:100CE000811104C08091C100806203C08091C10065
:100CF0008F7D8093C10008959AE0899FF0011124AF
:100D0000E05AFE4F9081911102C098E901C098E12C
:100D10009093C100D6DF78940895CF92DF92EF923E
:100D2000FF926B017C0180E0E7DFA8EFBFEFA70136
:100D30009601EBD3735D8E4C9E4FE4E0220F331F80
:100D4000441F551FEA95D1F70BD43093C50020936B
:100D5000C400FF90EF90DF90CF9008959AE0899FB4
:100D6000F0011124E05AFE4F26813781211531050B
:100D700041F041819381491720F49091C00095FD85
:100D800001C09FCF9181D901A90FB11D9C91909372
:100D9000C60091819F5F9183F4CFE1ECF0E0808108
:100DA0008F7D808380E0DADF80E012CF909367014F
:100DB00080936601109261016093630180E081DF9E
:100DC0009091610180916301981711F0E6DFF8CFEF
:100DD0000895ECCF08951F920F920FB60F92112431
:100DE0002F933F934F935F936F937F938F939F9333
:100DF000AF93BF93EF93FF9380E0B0DFFF91EF914C
:100E0000BF91AF919F918F917F916F915F914F9122
:100E10003F912F910F900FBE0F901F9018952F921A
:100E20008F939F932FB680917101909172010196DB
:100E3000809371019093720190E080917301891FFA
:100E40008093730190916B019C5F90936B018091F3
:100E50006A0180519742C0F090936B0180936A01C0
:100E600080916C0190916D01019680936C0190933B
:100E70006D0190E080916E01891F80936E018091D9
:100E80006F01891F80936F012FBE9F918F912F90CB
:100E9000189528EE33E0019748F0F9016F9364E06C
:100EA0006A95F1F76F913197C9F7F5CF0895F1CFB2
:100EB0000895E0E7F0E080818E7F8083A0EBB0E0D2
:100EC0008C9183608C93A1EBB0E08C91807F8C93AC
:100ED0008C9182608C93B89A8081816080837894B1
:100EE00008958091BB01811104C081E08093BB0112
:100EF000E0CF0895F6DFE0E7F0E080818E7F808329
:100F000010926C0110926D0110926E0110926F019F
:100F100010926B0110926A01808181608083089534
:100F2000462FBC0184E791E067C20F93CF93DF9314
:100F300000D000D01F92CDB7DEB79C0185E0EAE07B
:100F4000F1E0DE01119601900D928A95E1F766239A
:100F500011F00FEF01C003E145E0BE016F5F7F4F6D
:100F600084E791E0A8D084E791E07ED0C3DF0F90C2
:100F70000F900F900F900F90DF91CF910F910895E8
:100F800060E0D3CF84E791E08BC26F9364E06A9511
:100F9000F1F76F910197C9F70895FC011182108252
:100FA00013821282158214821682683068F489E2F4
:100FB00090E0918380838BE290E0938382838AE246
:100FC00090E0958384831FC06E3070F483E290E0DC
:100FD0009183808385E290E09383828384E290E032
:100FE0009583848368500FC0653198F486E290E061
:100FF0009183808388E290E09383828387E290E00C
:10100000958384836E5081E001C0880F6A95EAF76A
:1010100086830895A7E0B0E0EFE0F8E0D1C28C014C
:10102000FC011182108213821282158214821782AF
:101030001682613118F080E1808702C0FC01608770
:10104000F801208B642FCE010196A7DF8F81F80174
:1010500081878B819C81938782878D819E819587F3
:1010600084872796E4E0C8C2FC01A485B585109763
:1010700071F08C919185892B8C93A285B3859C917D
:101080008185809589238C9388EC90E07ECF0895AC
:10109000FC01A485B585109769F08C919185892B09
:1010A0008C93A285B3858C919185892B8C9388EC48
:1010B00090E06BCF0895A7E0B0E0E0E6F8E075C2FD
:1010C0007C014B01642F3901402F20E0A3DF870111
:1010D0000F5B1F4FF80110826701F2E4CF0ED11CA5
:1010E000F60110825701F3E4AF0EB11CF501108236
:1010F000F70177866686512CF7018085581648F5EA
:10110000652C712CF401E60DF71D6081CE0101966E
:1011100044DF2F81F701E60DF71D218B89819A812C
:10112000F301EE0FFF1FEE0DFF1D92A381A383328B
:10113000910511F4F80108C08632910511F4F60109
:1011400003C0899721F4F5018081822B8083539419
:10115000D3CF2796EFE045C2A0E0B0E0E1EBF8E0A6
:1011600026C2EC015B016C0181E4C80ED11CF601C2
:1011700080807E01F2E4EF0EF11CF70170808E0199
:101180000D5B1F4FF801908080E09885891748F427
:10119000F501E80FF11DE80FF11D118210828F5F3C
:1011A000F4CF84B1F6019081892B84B987B1F7011E
:1011B0009081892B87B98AB1F8019081892B8AB9EE
:1011C00085B1F6019081892B85B988B1F7019081AD
:1011D000892B88B98BB1F8019081892B8BB98AE072
:1011E00090E0D3DE94B1F60180818095892384B9A3
:1011F00097B1F70180818095892387B99AB1F80169
:101200008081809589238AB995B1F6018081809586
:10121000892385B998B1F70180818095892388B9A0
:101220009BB1F8018081809589238BB9E090B00053
:10123000D090B1008091B00083608093B00082E0D4
:101240008093B1004091B20080E090E02E853F8510
:101250008217930720F5C090B2002C2D241B820F1B
:10126000911D03B1081132C0F6B0F7102FC029B19B
:1012700029112CC010C0212F30E0A901440F551FA7
:10128000F501E40FF51F60817181672B21F11F5F6C
:101290002885121780F37F2C802E4C2DD7CFE0921B
:1012A000B000D092B10020E08885281730F5F50114
:1012B000E20FF11DE20FF11D80819181892B21F454
:1012C0008E859F85918380832F5FEECF03B1F6B02B
:1012D00099B010E0DDCFDE01A40FB51F91960D90FF
:1012E000BC91A02D4C91DE01A20FB31F51962C9101
:1012F000422369F691838083CACFCDB7DEB7EDE094
:1013000072C1EF92FF920F931F93CF93DF93FC0173
:101310009B01F0907C0000917A0047B118B1809158
:101320007A0086FDFCCF80E09085891748F4D901CA
:10133000A80FB11DA80FB11D1D921C928F5FF4CF95
:1013400097B182A18095892387B998B182A18095B0
:10135000892388B987E880937A00E12C81A1E81677
:1013600010F0E12C29C050E08085581718F5A52F02
:10137000B0E0EF01CA0FDB1F8989806480937C0095
:1013800080917A00806480937A0080917A0086FD53
:10139000FCCF6091780070917900AA0FBB1FA20F5B
:1013A000B31F8D919C911197860F971F8D939C93DE
:1013B0005F5FDACFE394D2CF8085E81698F4E90135
:1013C000CE0DD11DCE0DD11D61A170E0CB01959543
:1013D0008795A881B9818A0F9B1F9BD079836883E9
:1013E000E394EACFF0927C0000937A0018B947B9F1
:1013F000CDB7DEB7E6E0FEC0A0E2B0E0E1E0FAE0A3
:10140000DCC08C017B01D42E8FEF840F823010F46E
:10141000C8013EDED80150968C91B70181110DC0F4
:10142000C8019ADEC80120DEB2E0DB1236C0BE0180
:101430006F5F7F4FC80190DE0CC0C80162DFC8013A
:1014400013DEE2E0DE1229C0BE016F5F7F4FC801EC
:1014500058DF40E0F80180854817F8F4842F90E0C9
:10146000880F991FF701E80FF91F21E030E02C0FDA
:101470003D1F820F931FD8011E962D913C911F97FF
:10148000DC018D919C91281B390B80819181820F09
:10149000931F918380834F5FDDCFA096E7E0A9C0C3
:1014A000CF93DF93EC018A819B81009709F04FD1A4
:1014B0008E819F81009709F04AD188819981009798
:1014C00009F045D18C819D81009709F040D1DF91D1
:1014D000CF910895A29FB001B39FC001A39F700D4B
:1014E000811D1124911DB29F700D811D1124911D2C
:1014F0000895F0DFA59F900DB49F900DA49F800DDF
:10150000911D11240895B7FFF4CFF3DF821B930BD5
:101510000895AA1BBB1B51E107C0AA1FBB1FA6173A
:10152000B70710F0A61BB70B881F991F5A95A9F78C
:1015300080959095BC01CD01089597FB072E16F478
:10154000009406D077FD08D0E4DF07FC05D03EF418
:10155000909581959F4F0895709561957F4F08955F
:10156000A1E21A2EAA1BBB1BFD010DC0AA1FBB1FA7
:10157000EE1FFF1FA217B307E407F50720F0A21B19
:10158000B30BE40BF50B661F771F881F991F1A9486
:1015900069F760957095809590959B01AC01BD01B0
:1015A000CF0108952F923F924F925F926F927F9258
:1015B0008F929F92AF92BF92CF92DF92EF92FF9263
:1015C0000F931F93CF93DF93CDB7DEB7CA1BDB0B0F
:1015D0000FB6F894DEBF0FBECDBF09942A883988B4
:1015E00048885F846E847D848C849B84AA84B984BB
:1015F000C884DF80EE80FD800C811B81AA81B981C7
:10160000CE0FD11D0FB6F894DEBF0FBECDBFED01DA
:101610000895EE0FFF1F0590F491E02D0994CF93EC
:10162000DF938230910510F482E090E0E0910E02A9
:10163000F0910F0220E030E0A0E0B0E0309739F107
:101640004081518148175907B8F04817590771F47C
:1016500082819381109729F013969C938E93129711
:101660002CC090930F0280930E0227C021153105E4
:1016700031F04217530718F0A901DB0101C0EF0157
:101680009A01BD01DF010280F381E02DD7CF211542
:101690003105F9F0281B390B2430310580F48A819B
:1016A0009B816115710521F0FB019383828304C046
:1016B00090930F0280930E02FE01329644C0FE0109
:1016C000E20FF31F819391932250310939832883CC
:1016D0003AC020910C0230910D02232B41F420914D
:1016E00006013091070130930D0220930C022091E6
:1016F0000401309105012115310541F42DB73EB7A4
:101700004091080150910901241B350BE0910C0216
:10171000F0910D02E217F307A0F42E1B3F0B2817E0
:10172000390778F0AC014E5F5F4F2417350748F05A
:101730004E0F5F1F50930D0240930C0281939193C3
:1017400002C0E0E0F0E0CF01DF91CF910895CF93A8
:10175000DF93009709F487C0FC013297138212824D
:10176000C0910E02D0910F02209781F42081318127
:10177000280F391F80910C0290910D028217930758
:1017800079F5F0930D02E0930C026DC0DE0120E0CC
:1017900030E0AE17BF0750F412964D915C9113974D
:1017A0009D014115510509F1DA01F3CFB383A283FD
:1017B00040815181840F951F8A179B0771F48D9189
:1017C0009C911197840F951F0296918380831296A6
:1017D0008D919C911397938382832115310529F470
:1017E000F0930F02E0930E023EC0D9011396FC93D2
:1017F000EE9312974D915D91A40FB51FEA17FB0769
:1018000079F480819181840F951F0296D9011196F8
:101810009C938E938281938113969C938E931297BF
:10182000E0E0F0E08A819B81009719F0FE01EC0175
:10183000F9CFCE01029628813981820F931F209122
:101840000C0230910D022817390769F4309729F4FA
:1018500010920F0210920E0202C013821282D093D5
:101860000D02C0930C02DF91CF91089510E0C8ECF7
:10187000D0E003C0FE01CFDE2296CA3CD107D1F7EB
:04188000F894FFCF0A
:10188400881308020000100220000E0F1011120A23
:101894004C454420616E2C204B6E6F706620776936
:1018A40072642067656472C3BC636B742E0A000A99
:1018B4004C4544206175732C204B6E6F7066207705
:1018C400697264206E696368742067656472C3BC5E
:0618D400636B742E0A0094
:00000001FF
